{
  "contractName": "EnlistmentRegistry",
  "abi": [
    {
      "constant": true,
      "inputs": [
        {
          "name": "lat1",
          "type": "int256"
        },
        {
          "name": "lng1",
          "type": "int256"
        },
        {
          "name": "lat2",
          "type": "int256"
        },
        {
          "name": "lng2",
          "type": "int256"
        }
      ],
      "name": "distance",
      "outputs": [
        {
          "name": "",
          "type": "uint256"
        }
      ],
      "payable": false,
      "stateMutability": "pure",
      "type": "function"
    },
    {
      "constant": true,
      "inputs": [
        {
          "name": "degrees",
          "type": "int256"
        }
      ],
      "name": "degreesToIntAngle",
      "outputs": [
        {
          "name": "",
          "type": "uint16"
        }
      ],
      "payable": false,
      "stateMutability": "pure",
      "type": "function"
    },
    {
      "constant": true,
      "inputs": [
        {
          "name": "lat",
          "type": "int256"
        },
        {
          "name": "lng",
          "type": "int256"
        },
        {
          "name": "searchRadius",
          "type": "uint256"
        }
      ],
      "name": "geosearch",
      "outputs": [
        {
          "name": "",
          "type": "address[]"
        }
      ],
      "payable": false,
      "stateMutability": "view",
      "type": "function"
    },
    {
      "constant": true,
      "inputs": [],
      "name": "getOwner",
      "outputs": [
        {
          "name": "",
          "type": "address"
        }
      ],
      "payable": false,
      "stateMutability": "view",
      "type": "function"
    },
    {
      "constant": true,
      "inputs": [],
      "name": "getEnlistments",
      "outputs": [
        {
          "name": "",
          "type": "address[]"
        }
      ],
      "payable": false,
      "stateMutability": "view",
      "type": "function"
    },
    {
      "constant": false,
      "inputs": [
        {
          "name": "enlistmentAddress",
          "type": "address"
        }
      ],
      "name": "addEnlistment",
      "outputs": [],
      "payable": true,
      "stateMutability": "payable",
      "type": "function"
    },
    {
      "constant": true,
      "inputs": [],
      "name": "getEnlistmentsForBidderFiltering",
      "outputs": [
        {
          "name": "",
          "type": "address[]"
        },
        {
          "name": "",
          "type": "uint256[]"
        }
      ],
      "payable": false,
      "stateMutability": "view",
      "type": "function"
    },
    {
      "inputs": [],
      "payable": false,
      "stateMutability": "nonpayable",
      "type": "constructor"
    }
  ],
  "bytecode": "0x6060604052341561000f57600080fd5b33600160006101000a81548173ffffffffffffffffffffffffffffffffffffffff021916908373ffffffffffffffffffffffffffffffffffffffff160217905550610a5f8061005f6000396000f300606060405260043610610083576000357c0100000000000000000000000000000000000000000000000000000000900463ffffffff16806301989805146100885780637b8e3447146100da57806382ab4e6e14610119578063893d20e8146101a3578063a88d8c26146101f8578063bdb7f58114610262578063e079721514610290575b600080fd5b341561009357600080fd5b6100c46004808035906020019091908035906020019091908035906020019091908035906020019091905050610342565b6040518082815260200191505060405180910390f35b34156100e557600080fd5b6100fb6004808035906020019091905050610425565b604051808261ffff1661ffff16815260200191505060405180910390f35b341561012457600080fd5b61014c6004808035906020019091908035906020019091908035906020019091905050610449565b6040518080602001828103825283818151815260200191508051906020019060200280838360005b8381101561018f578082015181840152602081019050610174565b505050509050019250505060405180910390f35b34156101ae57600080fd5b6101b6610619565b604051808273ffffffffffffffffffffffffffffffffffffffff1673ffffffffffffffffffffffffffffffffffffffff16815260200191505060405180910390f35b341561020357600080fd5b61020b610643565b6040518080602001828103825283818151815260200191508051906020019060200280838360005b8381101561024e578082015181840152602081019050610233565b505050509050019250505060405180910390f35b61028e600480803573ffffffffffffffffffffffffffffffffffffffff16906020019091905050610733565b005b341561029b57600080fd5b6102a3610799565b604051808060200180602001838103835285818151815260200191508051906020019060200280838360005b838110156102ea5780820151818401526020810190506102cf565b50505050905001838103825284818151815260200191508051906020019060200280838360005b8381101561032c578082015181840152602081019050610311565b5050505090500194505050505060405180910390f35b60008060008487039150617fff60010b73__Trigonometry__________________________63564a6b9461037588610425565b6000604051602001526040518263ffffffff167c0100000000000000000000000000000000000000000000000000000000028152600401808261ffff1661ffff16815260200191505060206040518083038186803b15156103d557600080fd5b6102c65a03f415156103e657600080fd5b50505060405180519050858803028115156103fd57fe5b05905061040f8182028384020161096f565b6201b2d762ffffff160292505050949350505050565b60006315752a0060030b61400061ffff16830281151561044157fe5b059050919050565b6104516109ba565b6104596109ba565b600080600080805490506040518059106104705750595b90808252806020026020018201604052509350600092505b60008054905083101561060b576000838154811015156104a457fe5b906000526020600020900160009054906101000a900473ffffffffffffffffffffffffffffffffffffffff1673ffffffffffffffffffffffffffffffffffffffff166303a935986000604051604001526040518163ffffffff167c01000000000000000000000000000000000000000000000000000000000281526004016040805180830381600087803b151561053a57600080fd5b6102c65a03f1151561054b57600080fd5b50505060405180519060200180519050915091508561057289898560030b8560030b610342565b10156105fe5760008381548110151561058757fe5b906000526020600020900160009054906101000a900473ffffffffffffffffffffffffffffffffffffffff1684848151811015156105c157fe5b9060200190602002019073ffffffffffffffffffffffffffffffffffffffff16908173ffffffffffffffffffffffffffffffffffffffff16815250505b8280600101935050610488565b839450505050509392505050565b6000600160009054906101000a900473ffffffffffffffffffffffffffffffffffffffff16905090565b61064b6109ba565b600160009054906101000a900473ffffffffffffffffffffffffffffffffffffffff1673ffffffffffffffffffffffffffffffffffffffff163373ffffffffffffffffffffffffffffffffffffffff161415156106a757600080fd5b600080548060200260200160405190810160405280929190818152602001828054801561072957602002820191906000526020600020905b8160009054906101000a900473ffffffffffffffffffffffffffffffffffffffff1673ffffffffffffffffffffffffffffffffffffffff16815260200190600101908083116106df575b5050505050905090565b6000805480600101828161074791906109ce565b9160005260206000209001600083909190916101000a81548173ffffffffffffffffffffffffffffffffffffffff021916908373ffffffffffffffffffffffffffffffffffffffff1602179055505050565b6107a16109ba565b6107a96109fa565b6107b16109fa565b6000806000805490506040518059106107c75750595b90808252806020026020018201604052509250600091505b6000805490508210156108d9576000828154811015156107fb57fe5b906000526020600020900160009054906101000a900473ffffffffffffffffffffffffffffffffffffffff1690508073ffffffffffffffffffffffffffffffffffffffff16639450a7dc6000604051602001526040518163ffffffff167c0100000000000000000000000000000000000000000000000000000000028152600401602060405180830381600087803b151561089557600080fd5b6102c65a03f115156108a657600080fd5b5050506040518051905083838151811015156108be57fe5b906020019060200201818152505081806001019250506107df565b6000838180548060200260200160405190810160405280929190818152602001828054801561095d57602002820191906000526020600020905b8160009054906101000a900473ffffffffffffffffffffffffffffffffffffffff1673ffffffffffffffffffffffffffffffffffffffff1681526020019060010190808311610913575b50505050509150945094505050509091565b60008060026001840181151561098157fe5b0490508291505b818110156109b45780915060028182858115156109a157fe5b04018115156109ac57fe5b049050610988565b50919050565b602060405190810160405280600081525090565b8154818355818115116109f5578183600052602060002091820191016109f49190610a0e565b5b505050565b602060405190810160405280600081525090565b610a3091905b80821115610a2c576000816000905550600101610a14565b5090565b905600a165627a7a72305820918de1626d6cd1361e4d1aac5180c4190490a45db93b88226b0bd4df33f0411f0029",
  "source": "pragma solidity ^0.4.18;\n\nimport \"./Trigonometry.sol\";\n\ninterface Enlistment {\n    function getCoords() view external returns(int32, int32);\n    function getOfferAuthorsLength() view external returns (uint);\n}\n\ncontract EnlistmentRegistry {\n\n    address[] enlistments;\n    address owner;\n    \n    uint16 constant ANGLES_IN_CYCLE = 16384;\n    int32 constant FULL_CYCLE_DEGREES = 360000000; // compensates 6 decimal points for coordinates\n    int16 constant AMPLITUDE = 32767;\n    uint24 constant EQUATOR_LNG_DEG_LEN = 111319; // distance of 1 degree of longitude on the equator in metres\n\n    function EnlistmentRegistry() public {\n        owner = msg.sender;\n    }\n\n    function addEnlistment(address enlistmentAddress) payable public {\n        enlistments.push(enlistmentAddress);\n    }\n    \n    function degreesToIntAngle(int degrees) pure public returns(uint16) {\n        return uint16(degrees * ANGLES_IN_CYCLE / FULL_CYCLE_DEGREES);\n    }\n\n    // public for tests only\n    function distance(int lat1, int lng1, int lat2, int lng2) pure public returns(uint) {\n        int dLat = lat1 - lat2;\n        int adjustedDLng = (lng1 - lng2) * Trigonometry.cos(degreesToIntAngle(lat2)) / AMPLITUDE;\n        return EQUATOR_LNG_DEG_LEN * sqrt(uint(dLat * dLat) + uint(adjustedDLng * adjustedDLng));\n    }\n\n    function sqrt(uint x) pure private returns (uint y) {\n        uint z = (x + 1) / 2;\n        y = x;\n        while (z < y) {\n            y = z;\n            z = (x / z + z) / 2;\n        }\n    }\n\n    /* discontinued: bitmasking technique for filter result array indices does not work for registries bigger than 256+1 */\n    /* function bitmask_geosearch(int lat, int lng, uint searchRadius) view public returns (uint result, uint startsWithNthBit) {\n        result = 0;\n        startsWithNthBit = 0;\n        for (uint i = 0; i < enlistments.length; i++) {\n            var (enlistmentLat, enlistmentLng) = Enlistment(enlistments[i]).getCoords();\n            if (distance(lat, lng, enlistmentLat, enlistmentLng) < searchRadius) {\n                if (result == 0) {\n                    startsWithNthBit = i;\n                    result = 1;\n                } else {\n                    result = result * 2 ** i;\n                }\n            }\n        }\n        return (result, startsWithNthBit);\n    } */\n\n    function geosearch(int lat, int lng, uint searchRadius) view public returns (address[]) {\n        address[] memory result = new address[](enlistments.length);\n        for (uint i = 0; i < enlistments.length; i++) {\n            var (enlistmentLat, enlistmentLng) = Enlistment(enlistments[i]).getCoords();\n            if (distance(lat, lng, enlistmentLat, enlistmentLng) < searchRadius) {\n                result[i] = enlistments[i];\n            }\n        }\n\n        return result;\n    }\n\n    function getEnlistmentsForBidderFiltering() view public returns(address[], uint[]) {\n        uint[] memory offerCounts = new uint[](enlistments.length);\n        for (uint i = 0; i < enlistments.length; i++) {\n            Enlistment enlistmentContractInstance = Enlistment(enlistments[i]);\n            offerCounts[i] = enlistmentContractInstance.getOfferAuthorsLength();\n        }\n        return (enlistments, offerCounts);\n    }\n\n    function getEnlistments() view public ownerOnly() returns(address[]) {\n        return enlistments;\n    }\n\n    function getOwner() view public returns (address) {\n        return owner;\n    }\n\n    modifier ownerOnly() {\n        require(msg.sender == owner);\n        _;\n    }\n\n}\n",
  "sourcePath": "/Users/Indrek/Ulikool/Thesis/blockchain-real-estate-baseline/ethereum/contracts/EnlistmentRegistry.sol",
  "compiler": {
    "name": "solc",
    "version": "0.4.19+commit.c4cbbb05.Emscripten.clang"
  },
  "schemaVersion": "1.0.1",
  "updatedAt": "2018-04-30T20:38:27.140Z"
}