{
  "contractName": "EnlistmentRegistry",
  "abi": [
    {
      "constant": true,
      "inputs": [
        {
          "name": "tenantEmail",
          "type": "string"
        }
      ],
      "name": "getEnlistmentsByBidder",
      "outputs": [
        {
          "name": "result",
          "type": "uint256"
        }
      ],
      "payable": false,
      "stateMutability": "view",
      "type": "function"
    },
    {
      "constant": true,
      "inputs": [
        {
          "name": "idx",
          "type": "uint256"
        }
      ],
      "name": "getEnlistmentAddressByIndex",
      "outputs": [
        {
          "name": "addr",
          "type": "address"
        }
      ],
      "payable": false,
      "stateMutability": "view",
      "type": "function"
    },
    {
      "constant": true,
      "inputs": [
        {
          "name": "landlordEmail",
          "type": "string"
        }
      ],
      "name": "getEnlistmentsByLandlord",
      "outputs": [
        {
          "name": "result",
          "type": "uint256"
        }
      ],
      "payable": false,
      "stateMutability": "view",
      "type": "function"
    },
    {
      "constant": true,
      "inputs": [
        {
          "name": "lat",
          "type": "int256"
        },
        {
          "name": "lng",
          "type": "int256"
        },
        {
          "name": "searchRadius",
          "type": "uint256"
        }
      ],
      "name": "geosearch",
      "outputs": [
        {
          "name": "result",
          "type": "uint256"
        }
      ],
      "payable": false,
      "stateMutability": "view",
      "type": "function"
    },
    {
      "constant": true,
      "inputs": [],
      "name": "getOwner",
      "outputs": [
        {
          "name": "",
          "type": "address"
        }
      ],
      "payable": false,
      "stateMutability": "view",
      "type": "function"
    },
    {
      "constant": true,
      "inputs": [],
      "name": "getEnlistments",
      "outputs": [
        {
          "name": "",
          "type": "address[]"
        }
      ],
      "payable": false,
      "stateMutability": "view",
      "type": "function"
    },
    {
      "constant": false,
      "inputs": [
        {
          "name": "enlistmentAddress",
          "type": "address"
        }
      ],
      "name": "addEnlistment",
      "outputs": [],
      "payable": true,
      "stateMutability": "payable",
      "type": "function"
    },
    {
      "inputs": [],
      "payable": false,
      "stateMutability": "nonpayable",
      "type": "constructor"
    }
  ],
  "bytecode": "0x6060604052341561000f57600080fd5b33600160006101000a81548173ffffffffffffffffffffffffffffffffffffffff021916908373ffffffffffffffffffffffffffffffffffffffff160217905550610a588061005f6000396000f300606060405260043610610082576000357c0100000000000000000000000000000000000000000000000000000000900463ffffffff168062225efd14610087578063098bfc31146100f857806362587e771461015b57806382ab4e6e146101cc578063893d20e814610215578063a88d8c261461026a578063bdb7f581146102d4575b600080fd5b341561009257600080fd5b6100e2600480803590602001908201803590602001908080601f01602080910402602001604051908101604052809392919081815260200183838082843782019150505050505091905050610302565b6040518082815260200191505060405180910390f35b341561010357600080fd5b6101196004808035906020019091905050610475565b604051808273ffffffffffffffffffffffffffffffffffffffff1673ffffffffffffffffffffffffffffffffffffffff16815260200191505060405180910390f35b341561016657600080fd5b6101b6600480803590602001908201803590602001908080601f016020809104026020016040519081016040528093929190818152602001838380828437820191505050505050919050506104b8565b6040518082815260200191505060405180910390f35b34156101d757600080fd5b6101ff6004808035906020019091908035906020019091908035906020019091905050610627565b6040518082815260200191505060405180910390f35b341561022057600080fd5b6102286107eb565b604051808273ffffffffffffffffffffffffffffffffffffffff1673ffffffffffffffffffffffffffffffffffffffff16815260200191505060405180910390f35b341561027557600080fd5b61027d610815565b6040518080602001828103825283818151815260200191508051906020019060200280838360005b838110156102c05780820151818401526020810190506102a5565b505050509050019250505060405180910390f35b610300600480803573ffffffffffffffffffffffffffffffffffffffff16906020019091905050610905565b005b6000806000809250600091505b60008054905082101561046b5760008281548110151561032b57fe5b906000526020600020900160009054906101000a900473ffffffffffffffffffffffffffffffffffffffff1690508073ffffffffffffffffffffffffffffffffffffffff1663cdb1ca6a856000604051602001526040518263ffffffff167c01000000000000000000000000000000000000000000000000000000000281526004018080602001828103825283818151815260200191508051906020019080838360005b838110156103ea5780820151818401526020810190506103cf565b50505050905090810190601f1680156104175780820380516001836020036101000a031916815260200191505b5092505050602060405180830381600087803b151561043557600080fd5b6102c65a03f1151561044657600080fd5b505050604051805190501561045e578160020a831792505b818060010192505061030f565b8292505050919050565b6000808281548110151561048557fe5b906000526020600020900160009054906101000a900473ffffffffffffffffffffffffffffffffffffffff169050919050565b6000806000809250600091505b60008054905082101561061d576000828154811015156104e157fe5b906000526020600020900160009054906101000a900473ffffffffffffffffffffffffffffffffffffffff1690508073ffffffffffffffffffffffffffffffffffffffff166322e8e9eb6000604051602001526040518163ffffffff167c0100000000000000000000000000000000000000000000000000000000028152600401602060405180830381600087803b151561057b57600080fd5b6102c65a03f1151561058c57600080fd5b5050506040518051905060001916846040518082805190602001908083835b6020831015156105d057805182526020820191506020810190506020830392506105ab565b6001836020036101000a0380198251168184511680821785525050505050509050019150506040518091039020600019161415610610578160020a831792505b81806001019250506104c5565b8292505050919050565b60008060008060008094506002860a9350600092505b6000805490508310156107dd5760008381548110151561065957fe5b906000526020600020900160009054906101000a900473ffffffffffffffffffffffffffffffffffffffff1673ffffffffffffffffffffffffffffffffffffffff166303a935986000604051604001526040518163ffffffff167c01000000000000000000000000000000000000000000000000000000000281526004016040805180830381600087803b15156106ef57600080fd5b6102c65a03f1151561070057600080fd5b50505060405180519060200180519050915091508373__GeoDistance___________________________63c59a45d08a8a86866000604051602001526040518563ffffffff167c0100000000000000000000000000000000000000000000000000000000028152600401808581526020018481526020018360030b81526020018260030b815260200194505050505060206040518083038186803b15156107a657600080fd5b6102c65a03f415156107b757600080fd5b5050506040518051905010156107d0578260020a851794505b828060010193505061063d565b849450505050509392505050565b6000600160009054906101000a900473ffffffffffffffffffffffffffffffffffffffff16905090565b61081d6109c7565b600160009054906101000a900473ffffffffffffffffffffffffffffffffffffffff1673ffffffffffffffffffffffffffffffffffffffff163373ffffffffffffffffffffffffffffffffffffffff1614151561087957600080fd5b60008054806020026020016040519081016040528092919081815260200182805480156108fb57602002820191906000526020600020905b8160009054906101000a900473ffffffffffffffffffffffffffffffffffffffff1673ffffffffffffffffffffffffffffffffffffffff16815260200190600101908083116108b1575b5050505050905090565b600160009054906101000a900473ffffffffffffffffffffffffffffffffffffffff1673ffffffffffffffffffffffffffffffffffffffff163373ffffffffffffffffffffffffffffffffffffffff1614151561096157600080fd5b6000805480600101828161097591906109db565b9160005260206000209001600083909190916101000a81548173ffffffffffffffffffffffffffffffffffffffff021916908373ffffffffffffffffffffffffffffffffffffffff1602179055505050565b602060405190810160405280600081525090565b815481835581811511610a0257818360005260206000209182019101610a019190610a07565b5b505050565b610a2991905b80821115610a25576000816000905550600101610a0d565b5090565b905600a165627a7a723058200a8716ac7ec734cfa58d119852c6ce14d5dd515ea7240aa10c4f5d9479513df40029",
  "source": "pragma solidity ^0.4.18;\n\ninterface Enlistment {\n    function getCoords() view external returns(int32, int32);\n    function hasBid(string tenantEmail) view external returns (bool);\n    function getLandlordEmailKeccak256() view external returns(bytes32);\n}\n\nimport \"./GeoDistance.sol\";\n\n// TODO: should guard for duplicates\n\ncontract EnlistmentRegistry {\n\n    address[] enlistments;\n    address owner;\n\n    function EnlistmentRegistry() public {\n        owner = msg.sender;\n    }\n\n    function addEnlistment(address enlistmentAddress) payable public ownerOnly() {\n        enlistments.push(enlistmentAddress);\n    }\n\n    function getEnlistmentAddressByIndex(uint idx) view public returns (address addr) {\n        return enlistments[idx];\n    }\n\n    function geosearch(int lat, int lng, uint searchRadius) view public returns (uint result) {\n        result = 0;\n        uint searchRadius2 = searchRadius**2;\n        for (uint i = 0; i < enlistments.length; i++) {\n            var (enlistmentLat, enlistmentLng) = Enlistment(enlistments[i]).getCoords();\n            if (GeoDistance.distancePow2(lat, lng, enlistmentLat, enlistmentLng) < searchRadius2) {\n                result = result | 2 ** i;\n            }\n        }\n        return result;\n    }\n\n    function getEnlistmentsByBidder(string tenantEmail) view public returns(uint result) {\n        result = 0;\n        for (uint i = 0; i < enlistments.length; i++) {\n            Enlistment enlistmentContractInstance = Enlistment(enlistments[i]);\n            if (enlistmentContractInstance.hasBid(tenantEmail)) {\n                result = result | 2 ** i;\n            }\n        }\n        return result;\n    }\n\n    function getEnlistmentsByLandlord(string landlordEmail) view public returns(uint result) {\n        result = 0;\n        for (uint i = 0; i < enlistments.length; i++) {\n            Enlistment enlistmentContractInstance = Enlistment(enlistments[i]);\n            if (keccak256(landlordEmail) == enlistmentContractInstance.getLandlordEmailKeccak256()) {\n                result = result | 2 ** i;\n            }\n        }\n        return result;\n\n    }\n\n    function getEnlistments() view public ownerOnly() returns(address[]) {\n        return enlistments;\n    }\n\n    function getOwner() view public returns (address) {\n        return owner;\n    }\n\n    modifier ownerOnly() {\n        require(msg.sender == owner);\n        _;\n    }\n\n    modifier indexInRange(uint index) {\n        require(enlistments.length > index);\n        _;\n    }\n\n}\n",
  "sourcePath": "/Users/Indrek/Ulikool/Thesis/blockchain-real-estate-baseline/ethereum/contracts/EnlistmentRegistry.sol",
  "compiler": {
    "name": "solc",
    "version": "0.4.19+commit.c4cbbb05.Emscripten.clang"
  },
  "schemaVersion": "1.0.1",
  "updatedAt": "2018-05-11T21:41:12.399Z"
}