{
  "contractName": "EnlistmentRegistry",
  "abi": [
    {
      "constant": true,
      "inputs": [
        {
          "name": "lat1",
          "type": "int256"
        },
        {
          "name": "lng1",
          "type": "int256"
        },
        {
          "name": "lat2",
          "type": "int256"
        },
        {
          "name": "lng2",
          "type": "int256"
        }
      ],
      "name": "distance",
      "outputs": [
        {
          "name": "",
          "type": "uint256"
        }
      ],
      "payable": false,
      "stateMutability": "pure",
      "type": "function"
    },
    {
      "constant": true,
      "inputs": [
        {
          "name": "degrees",
          "type": "int256"
        }
      ],
      "name": "degreesToIntAngle",
      "outputs": [
        {
          "name": "",
          "type": "uint16"
        }
      ],
      "payable": false,
      "stateMutability": "pure",
      "type": "function"
    },
    {
      "constant": true,
      "inputs": [
        {
          "name": "lat",
          "type": "int256"
        },
        {
          "name": "lng",
          "type": "int256"
        },
        {
          "name": "searchRadius",
          "type": "uint256"
        }
      ],
      "name": "geosearch",
      "outputs": [
        {
          "name": "result",
          "type": "uint256"
        }
      ],
      "payable": false,
      "stateMutability": "view",
      "type": "function"
    },
    {
      "constant": true,
      "inputs": [],
      "name": "getOwner",
      "outputs": [
        {
          "name": "",
          "type": "address"
        }
      ],
      "payable": false,
      "stateMutability": "view",
      "type": "function"
    },
    {
      "constant": true,
      "inputs": [],
      "name": "getEnlistments",
      "outputs": [
        {
          "name": "",
          "type": "address[]"
        }
      ],
      "payable": false,
      "stateMutability": "view",
      "type": "function"
    },
    {
      "constant": true,
      "inputs": [],
      "name": "getEnlistmentsForGeosearch",
      "outputs": [
        {
          "name": "",
          "type": "address[]"
        },
        {
          "name": "",
          "type": "bytes9[]"
        }
      ],
      "payable": false,
      "stateMutability": "view",
      "type": "function"
    },
    {
      "constant": false,
      "inputs": [
        {
          "name": "enlistmentAddress",
          "type": "address"
        }
      ],
      "name": "addEnlistment",
      "outputs": [],
      "payable": true,
      "stateMutability": "payable",
      "type": "function"
    },
    {
      "constant": true,
      "inputs": [],
      "name": "getEnlistmentsForBidderFiltering",
      "outputs": [
        {
          "name": "",
          "type": "address[]"
        },
        {
          "name": "",
          "type": "uint256[]"
        }
      ],
      "payable": false,
      "stateMutability": "view",
      "type": "function"
    },
    {
      "inputs": [],
      "payable": false,
      "stateMutability": "nonpayable",
      "type": "constructor"
    }
  ],
  "bytecode": "0x6060604052341561000f57600080fd5b33600160006101000a81548173ffffffffffffffffffffffffffffffffffffffff021916908373ffffffffffffffffffffffffffffffffffffffff160217905550610b708061005f6000396000f30060606040526004361061008e576000357c0100000000000000000000000000000000000000000000000000000000900463ffffffff16806301989805146100935780637b8e3447146100e557806382ab4e6e14610124578063893d20e81461016d578063a88d8c26146101c2578063abe3f71a1461022c578063bdb7f581146102de578063e07972151461030c575b600080fd5b341561009e57600080fd5b6100cf60048080359060200190919080359060200190919080359060200190919080359060200190919050506103be565b6040518082815260200191505060405180910390f35b34156100f057600080fd5b61010660048080359060200190919050506104a1565b604051808261ffff1661ffff16815260200191505060405180910390f35b341561012f57600080fd5b61015760048080359060200190919080359060200190919080359060200190919050506104c5565b6040518082815260200191505060405180910390f35b341561017857600080fd5b6101806105e3565b604051808273ffffffffffffffffffffffffffffffffffffffff1673ffffffffffffffffffffffffffffffffffffffff16815260200191505060405180910390f35b34156101cd57600080fd5b6101d561060d565b6040518080602001828103825283818151815260200191508051906020019060200280838360005b838110156102185780820151818401526020810190506101fd565b505050509050019250505060405180910390f35b341561023757600080fd5b61023f6106fd565b604051808060200180602001838103835285818151815260200191508051906020019060200280838360005b8381101561028657808201518184015260208101905061026b565b50505050905001838103825284818151815260200191508051906020019060200280838360005b838110156102c85780820151818401526020810190506102ad565b5050505090500194505050505060405180910390f35b61030a600480803573ffffffffffffffffffffffffffffffffffffffff16906020019091905050610830565b005b341561031757600080fd5b61031f610896565b604051808060200180602001838103835285818151815260200191508051906020019060200280838360005b8381101561036657808201518184015260208101905061034b565b50505050905001838103825284818151815260200191508051906020019060200280838360005b838110156103a857808201518184015260208101905061038d565b5050505090500194505050505060405180910390f35b60008060008487039150617fff60010b73__Trigonometry__________________________63564a6b946103f1886104a1565b6000604051602001526040518263ffffffff167c0100000000000000000000000000000000000000000000000000000000028152600401808261ffff1661ffff16815260200191505060206040518083038186803b151561045157600080fd5b6102c65a03f4151561046257600080fd5b505050604051805190508588030281151561047957fe5b05905061048b81820283840201610a6c565b6201b2d762ffffff160292505050949350505050565b60006315752a0060030b61400061ffff1683028115156104bd57fe5b059050919050565b600080600080600092505b6000805490508310156105d6576000838154811015156104ec57fe5b906000526020600020900160009054906101000a900473ffffffffffffffffffffffffffffffffffffffff1673ffffffffffffffffffffffffffffffffffffffff166303a935986000604051604001526040518163ffffffff167c01000000000000000000000000000000000000000000000000000000000281526004016040805180830381600087803b151561058257600080fd5b6102c65a03f1151561059357600080fd5b5050506040518051906020018051905091509150846105ba88888560030b8560030b6103be565b10156105c9578260020a841793505b82806001019350506104d0565b8393505050509392505050565b6000600160009054906101000a900473ffffffffffffffffffffffffffffffffffffffff16905090565b610615610ab7565b600160009054906101000a900473ffffffffffffffffffffffffffffffffffffffff1673ffffffffffffffffffffffffffffffffffffffff163373ffffffffffffffffffffffffffffffffffffffff1614151561067157600080fd5b60008054806020026020016040519081016040528092919081815260200182805480156106f357602002820191906000526020600020905b8160009054906101000a900473ffffffffffffffffffffffffffffffffffffffff1673ffffffffffffffffffffffffffffffffffffffff16815260200190600101908083116106a9575b5050505050905090565b610705610ab7565b61070d610acb565b610715610acb565b60008060008054905060405180591061072b5750595b90808252806020026020018201604052509250600091505b60008054905082101561079a5760008281548110151561075f57fe5b906000526020600020900160009054906101000a900473ffffffffffffffffffffffffffffffffffffffff1690508180600101925050610743565b6000838180548060200260200160405190810160405280929190818152602001828054801561081e57602002820191906000526020600020905b8160009054906101000a900473ffffffffffffffffffffffffffffffffffffffff1673ffffffffffffffffffffffffffffffffffffffff16815260200190600101908083116107d4575b50505050509150945094505050509091565b600080548060010182816108449190610adf565b9160005260206000209001600083909190916101000a81548173ffffffffffffffffffffffffffffffffffffffff021916908373ffffffffffffffffffffffffffffffffffffffff1602179055505050565b61089e610ab7565b6108a6610b0b565b6108ae610b0b565b6000806000805490506040518059106108c45750595b90808252806020026020018201604052509250600091505b6000805490508210156109d6576000828154811015156108f857fe5b906000526020600020900160009054906101000a900473ffffffffffffffffffffffffffffffffffffffff1690508073ffffffffffffffffffffffffffffffffffffffff16639450a7dc6000604051602001526040518163ffffffff167c0100000000000000000000000000000000000000000000000000000000028152600401602060405180830381600087803b151561099257600080fd5b6102c65a03f115156109a357600080fd5b5050506040518051905083838151811015156109bb57fe5b906020019060200201818152505081806001019250506108dc565b60008381805480602002602001604051908101604052809291908181526020018280548015610a5a57602002820191906000526020600020905b8160009054906101000a900473ffffffffffffffffffffffffffffffffffffffff1673ffffffffffffffffffffffffffffffffffffffff1681526020019060010190808311610a10575b50505050509150945094505050509091565b600080600260018401811515610a7e57fe5b0490508291505b81811015610ab1578091506002818285811515610a9e57fe5b0401811515610aa957fe5b049050610a85565b50919050565b602060405190810160405280600081525090565b602060405190810160405280600081525090565b815481835581811511610b0657818360005260206000209182019101610b059190610b1f565b5b505050565b602060405190810160405280600081525090565b610b4191905b80821115610b3d576000816000905550600101610b25565b5090565b905600a165627a7a7230582036cb41a6c29c1331f3a4bdd068b5e52064c455d69b20988b33dbdf80ae4475100029",
  "source": "pragma solidity ^0.4.18;\n\nimport \"./Trigonometry.sol\";\n\ninterface Enlistment {\n    function getCoords() view external returns(int32, int32);\n    function getOfferAuthorsLength() view external returns (uint);\n}\n\ncontract EnlistmentRegistry {\n\n    address[] enlistments;\n    address owner;\n    \n    uint16 constant ANGLES_IN_CYCLE = 16384;\n    int32 constant FULL_CYCLE_DEGREES = 360000000; // compensates 6 decimal points for coordinates\n    int16 constant AMPLITUDE = 32767;\n    uint24 constant EQUATOR_LNG_DEG_LEN = 111319; // distance of 1 degree of longitude on the equator in metres\n\n    function EnlistmentRegistry() public {\n        owner = msg.sender;\n    }\n\n    function addEnlistment(address enlistmentAddress) payable public {\n        enlistments.push(enlistmentAddress);\n    }\n    \n    function degreesToIntAngle(int degrees) pure public returns(uint16) {\n        return uint16(degrees * ANGLES_IN_CYCLE / FULL_CYCLE_DEGREES);\n    }\n\n    // public for tests only\n    function distance(int lat1, int lng1, int lat2, int lng2) pure public returns(uint) {\n        int dLat = lat1 - lat2;\n        int adjustedDLng = (lng1 - lng2) * Trigonometry.cos(degreesToIntAngle(lat2)) / AMPLITUDE;\n        return EQUATOR_LNG_DEG_LEN * sqrt(uint(dLat * dLat) + uint(adjustedDLng * adjustedDLng));\n    }\n\n    function sqrt(uint x) pure private returns (uint y) {\n        uint z = (x + 1) / 2;\n        y = x;\n        while (z < y) {\n            y = z;\n            z = (x / z + z) / 2;\n        }\n    }\n\n    function geosearch(int lat, int lng, uint searchRadius) view public returns (uint result) {\n\n        for (uint i = 0; i < enlistments.length; i++) {\n            var (enlistmentLat, enlistmentLng) = Enlistment(enlistments[i]).getCoords();\n            if (distance(lat, lng, enlistmentLat, enlistmentLng) < searchRadius) {\n                result = result | uint(2**i);\n            }\n        }\n\n        return result;\n    }\n\n    function getEnlistmentsForGeosearch() view public returns (address[], bytes9[]) {\n        bytes9[] memory geohashes = new bytes9[](enlistments.length);\n        for (uint i = 0; i < enlistments.length; i++) {\n            Enlistment enlistmentContractInstance = Enlistment(enlistments[i]);\n            //geohashes[i] = enlistmentContractInstance.getGeohash();\n        }\n        return (enlistments, geohashes);\n    }\n\n    function getEnlistmentsForBidderFiltering() view public returns(address[], uint[]) {\n        uint[] memory offerCounts = new uint[](enlistments.length);\n        for (uint i = 0; i < enlistments.length; i++) {\n            Enlistment enlistmentContractInstance = Enlistment(enlistments[i]);\n            offerCounts[i] = enlistmentContractInstance.getOfferAuthorsLength();\n        }\n        return (enlistments, offerCounts);\n    }\n\n    function getEnlistments() view public ownerOnly() returns(address[]) {\n        return enlistments;\n    }\n\n    function getOwner() view public returns (address) {\n        return owner;\n    }\n\n    modifier ownerOnly() {\n        require(msg.sender == owner);\n        _;\n    }\n\n}\n",
  "sourcePath": "/Users/Indrek/Ulikool/Thesis/blockchain-real-estate-baseline/ethereum/contracts/EnlistmentRegistry.sol",
  "compiler": {
    "name": "solc",
    "version": "0.4.19+commit.c4cbbb05.Emscripten.clang"
  },
  "schemaVersion": "1.0.1",
  "updatedAt": "2018-04-30T19:14:03.391Z"
}