{
  "contractName": "EnlistmentRegistry",
  "abi": [
    {
      "constant": true,
      "inputs": [],
      "name": "getOwner",
      "outputs": [
        {
          "name": "",
          "type": "address"
        }
      ],
      "payable": false,
      "stateMutability": "view",
      "type": "function"
    },
    {
      "constant": true,
      "inputs": [],
      "name": "getEnlistments",
      "outputs": [
        {
          "name": "",
          "type": "address[]"
        }
      ],
      "payable": false,
      "stateMutability": "view",
      "type": "function"
    },
    {
      "constant": true,
      "inputs": [],
      "name": "getEnlistmentsForGeosearch",
      "outputs": [
        {
          "name": "",
          "type": "address[]"
        },
        {
          "name": "",
          "type": "bytes9[]"
        }
      ],
      "payable": false,
      "stateMutability": "view",
      "type": "function"
    },
    {
      "constant": false,
      "inputs": [
        {
          "name": "enlistmentAddress",
          "type": "address"
        }
      ],
      "name": "addEnlistment",
      "outputs": [],
      "payable": true,
      "stateMutability": "payable",
      "type": "function"
    },
    {
      "constant": true,
      "inputs": [],
      "name": "getEnlistmentsForBidderFiltering",
      "outputs": [
        {
          "name": "",
          "type": "address[]"
        },
        {
          "name": "",
          "type": "uint256[]"
        }
      ],
      "payable": false,
      "stateMutability": "view",
      "type": "function"
    },
    {
      "inputs": [],
      "payable": false,
      "stateMutability": "nonpayable",
      "type": "constructor"
    }
  ],
  "bytecode": "0x6060604052341561000f57600080fd5b33600160006101000a81548173ffffffffffffffffffffffffffffffffffffffff021916908373ffffffffffffffffffffffffffffffffffffffff1602179055506108de8061005f6000396000f30060606040526004361061006d576000357c0100000000000000000000000000000000000000000000000000000000900463ffffffff168063893d20e814610072578063a88d8c26146100c7578063abe3f71a14610131578063bdb7f581146101e3578063e079721514610211575b600080fd5b341561007d57600080fd5b6100856102c3565b604051808273ffffffffffffffffffffffffffffffffffffffff1673ffffffffffffffffffffffffffffffffffffffff16815260200191505060405180910390f35b34156100d257600080fd5b6100da6102ed565b6040518080602001828103825283818151815260200191508051906020019060200280838360005b8381101561011d578082015181840152602081019050610102565b505050509050019250505060405180910390f35b341561013c57600080fd5b6101446103dd565b604051808060200180602001838103835285818151815260200191508051906020019060200280838360005b8381101561018b578082015181840152602081019050610170565b50505050905001838103825284818151815260200191508051906020019060200280838360005b838110156101cd5780820151818401526020810190506101b2565b5050505090500194505050505060405180910390f35b61020f600480803573ffffffffffffffffffffffffffffffffffffffff169060200190919050506105e9565b005b341561021c57600080fd5b61022461064f565b604051808060200180602001838103835285818151815260200191508051906020019060200280838360005b8381101561026b578082015181840152602081019050610250565b50505050905001838103825284818151815260200191508051906020019060200280838360005b838110156102ad578082015181840152602081019050610292565b5050505090500194505050505060405180910390f35b6000600160009054906101000a900473ffffffffffffffffffffffffffffffffffffffff16905090565b6102f5610825565b600160009054906101000a900473ffffffffffffffffffffffffffffffffffffffff1673ffffffffffffffffffffffffffffffffffffffff163373ffffffffffffffffffffffffffffffffffffffff1614151561035157600080fd5b60008054806020026020016040519081016040528092919081815260200182805480156103d357602002820191906000526020600020905b8160009054906101000a900473ffffffffffffffffffffffffffffffffffffffff1673ffffffffffffffffffffffffffffffffffffffff1681526020019060010190808311610389575b5050505050905090565b6103e5610825565b6103ed610839565b6103f5610839565b60008060008054905060405180591061040b5750595b90808252806020026020018201604052509250600091505b6000805490508210156105535760008281548110151561043f57fe5b906000526020600020900160009054906101000a900473ffffffffffffffffffffffffffffffffffffffff1690508073ffffffffffffffffffffffffffffffffffffffff16630b8df0ba6000604051602001526040518163ffffffff167c0100000000000000000000000000000000000000000000000000000000028152600401602060405180830381600087803b15156104d957600080fd5b6102c65a03f115156104ea57600080fd5b50505060405180519050838381518110151561050257fe5b9060200190602002019076ffffffffffffffffffffffffffffffffffffffffffffff1916908176ffffffffffffffffffffffffffffffffffffffffffffff1916815250508180600101925050610423565b600083818054806020026020016040519081016040528092919081815260200182805480156105d757602002820191906000526020600020905b8160009054906101000a900473ffffffffffffffffffffffffffffffffffffffff1673ffffffffffffffffffffffffffffffffffffffff168152602001906001019080831161058d575b50505050509150945094505050509091565b600080548060010182816105fd919061084d565b9160005260206000209001600083909190916101000a81548173ffffffffffffffffffffffffffffffffffffffff021916908373ffffffffffffffffffffffffffffffffffffffff1602179055505050565b610657610825565b61065f610879565b610667610879565b60008060008054905060405180591061067d5750595b90808252806020026020018201604052509250600091505b60008054905082101561078f576000828154811015156106b157fe5b906000526020600020900160009054906101000a900473ffffffffffffffffffffffffffffffffffffffff1690508073ffffffffffffffffffffffffffffffffffffffff16639450a7dc6000604051602001526040518163ffffffff167c0100000000000000000000000000000000000000000000000000000000028152600401602060405180830381600087803b151561074b57600080fd5b6102c65a03f1151561075c57600080fd5b50505060405180519050838381518110151561077457fe5b90602001906020020181815250508180600101925050610695565b6000838180548060200260200160405190810160405280929190818152602001828054801561081357602002820191906000526020600020905b8160009054906101000a900473ffffffffffffffffffffffffffffffffffffffff1673ffffffffffffffffffffffffffffffffffffffff16815260200190600101908083116107c9575b50505050509150945094505050509091565b602060405190810160405280600081525090565b602060405190810160405280600081525090565b81548183558181151161087457818360005260206000209182019101610873919061088d565b5b505050565b602060405190810160405280600081525090565b6108af91905b808211156108ab576000816000905550600101610893565b5090565b905600a165627a7a72305820d00352ab8629fd58c5042157899dae4817520b5c13f3906849a0192615da2d820029",
  "source": "pragma solidity ^0.4.18;\n\ninterface Enlistment {\n    function getGeohash() view external returns (bytes9);\n    function getOfferAuthorsLength() view external returns (uint);\n}\n\ncontract EnlistmentRegistry {\n\n    address[] enlistments;\n    address owner;\n\n    function EnlistmentRegistry() public {\n        owner = msg.sender;\n    }\n\n    function addEnlistment(address enlistmentAddress) payable public {\n        enlistments.push(enlistmentAddress);\n    }\n\n    function getEnlistmentsForGeosearch() view public returns (address[], bytes9[]) {\n        bytes9[] memory geohashes = new bytes9[](enlistments.length);\n        for (uint i = 0; i < enlistments.length; i++) {\n            Enlistment enlistmentContractInstance = Enlistment(enlistments[i]);\n            geohashes[i] = enlistmentContractInstance.getGeohash();\n        }\n        return (enlistments, geohashes);\n    }\n\n    function getEnlistmentsForBidderFiltering() view public returns(address[], uint[]) {\n        uint[] memory offerCounts = new uint[](enlistments.length);\n        for (uint i = 0; i < enlistments.length; i++) {\n            Enlistment enlistmentContractInstance = Enlistment(enlistments[i]);\n            offerCounts[i] = enlistmentContractInstance.getOfferAuthorsLength();\n        }\n        return (enlistments, offerCounts);\n    }\n\n    function getEnlistments() view public ownerOnly() returns(address[]) {\n        return enlistments;\n    }\n\n    function getOwner() view public returns (address) {\n        return owner;\n    }\n\n    modifier ownerOnly() {\n        require(msg.sender == owner);\n        _;\n    }\n\n}\n",
  "sourcePath": "/Users/Indrek/Ulikool/Thesis/blockchain-real-estate-baseline/ethereum/contracts/EnlistmentRegistry.sol",
  "compiler": {
    "name": "solc",
    "version": "0.4.19+commit.c4cbbb05.Emscripten.clang"
  },
  "schemaVersion": "1.0.1",
  "updatedAt": "2018-04-27T23:55:29.781Z"
}