{
  "contractName": "EnlistmentRegistry",
  "abi": [
    {
      "constant": true,
      "inputs": [
        {
          "name": "tenantEmail",
          "type": "string"
        }
      ],
      "name": "getEnlistmentsByBidder",
      "outputs": [
        {
          "name": "",
          "type": "address[]"
        }
      ],
      "payable": false,
      "stateMutability": "view",
      "type": "function"
    },
    {
      "constant": true,
      "inputs": [
        {
          "name": "idx",
          "type": "uint256"
        }
      ],
      "name": "getEnlistmentAddressByIndex",
      "outputs": [
        {
          "name": "addr",
          "type": "address"
        }
      ],
      "payable": false,
      "stateMutability": "view",
      "type": "function"
    },
    {
      "constant": true,
      "inputs": [
        {
          "name": "landlordEmail",
          "type": "string"
        }
      ],
      "name": "getEnlistmentsByLandlord",
      "outputs": [
        {
          "name": "",
          "type": "address[]"
        }
      ],
      "payable": false,
      "stateMutability": "view",
      "type": "function"
    },
    {
      "constant": true,
      "inputs": [
        {
          "name": "lat",
          "type": "int256"
        },
        {
          "name": "lng",
          "type": "int256"
        },
        {
          "name": "searchRadius",
          "type": "uint256"
        }
      ],
      "name": "geosearch",
      "outputs": [
        {
          "name": "result",
          "type": "uint256"
        }
      ],
      "payable": false,
      "stateMutability": "view",
      "type": "function"
    },
    {
      "constant": true,
      "inputs": [],
      "name": "getOwner",
      "outputs": [
        {
          "name": "",
          "type": "address"
        }
      ],
      "payable": false,
      "stateMutability": "view",
      "type": "function"
    },
    {
      "constant": true,
      "inputs": [],
      "name": "getEnlistments",
      "outputs": [
        {
          "name": "",
          "type": "address[]"
        }
      ],
      "payable": false,
      "stateMutability": "view",
      "type": "function"
    },
    {
      "constant": false,
      "inputs": [
        {
          "name": "enlistmentAddress",
          "type": "address"
        }
      ],
      "name": "addEnlistment",
      "outputs": [],
      "payable": true,
      "stateMutability": "payable",
      "type": "function"
    },
    {
      "inputs": [],
      "payable": false,
      "stateMutability": "nonpayable",
      "type": "constructor"
    }
  ],
  "bytecode": "0x6060604052341561000f57600080fd5b33600160006101000a81548173ffffffffffffffffffffffffffffffffffffffff021916908373ffffffffffffffffffffffffffffffffffffffff160217905550610bc68061005f6000396000f300606060405260043610610082576000357c0100000000000000000000000000000000000000000000000000000000900463ffffffff168062225efd14610087578063098bfc311461013957806362587e771461019c57806382ab4e6e1461024e578063893d20e814610297578063a88d8c26146102ec578063bdb7f58114610356575b600080fd5b341561009257600080fd5b6100e2600480803590602001908201803590602001908080601f01602080910402602001604051908101604052809392919081815260200183838082843782019150505050505091905050610384565b6040518080602001828103825283818151815260200191508051906020019060200280838360005b8381101561012557808201518184015260208101905061010a565b505050509050019250505060405180910390f35b341561014457600080fd5b61015a6004808035906020019091905050610571565b604051808273ffffffffffffffffffffffffffffffffffffffff1673ffffffffffffffffffffffffffffffffffffffff16815260200191505060405180910390f35b34156101a757600080fd5b6101f7600480803590602001908201803590602001908080601f016020809104026020016040519081016040528093929190818152602001838380828437820191505050505050919050506105b4565b6040518080602001828103825283818151815260200191508051906020019060200280838360005b8381101561023a57808201518184015260208101905061021f565b505050509050019250505060405180910390f35b341561025957600080fd5b610281600480803590602001909190803590602001909190803590602001909190505061079d565b6040518082815260200191505060405180910390f35b34156102a257600080fd5b6102aa610959565b604051808273ffffffffffffffffffffffffffffffffffffffff1673ffffffffffffffffffffffffffffffffffffffff16815260200191505060405180910390f35b34156102f757600080fd5b6102ff610983565b6040518080602001828103825283818151815260200191508051906020019060200280838360005b83811015610342578082015181840152602081019050610327565b505050509050019250505060405180910390f35b610382600480803573ffffffffffffffffffffffffffffffffffffffff16906020019091905050610a73565b005b61038c610b35565b610394610b35565b600080600080805490506040518059106103ab5750595b90808252806020026020018201604052509350600092505b600080549050831015610565576000838154811015156103df57fe5b906000526020600020900160009054906101000a900473ffffffffffffffffffffffffffffffffffffffff1691508190508073ffffffffffffffffffffffffffffffffffffffff1663cdb1ca6a876000604051602001526040518263ffffffff167c01000000000000000000000000000000000000000000000000000000000281526004018080602001828103825283818151815260200191508051906020019080838360005b838110156104a1578082015181840152602081019050610486565b50505050905090810190601f1680156104ce5780820380516001836020036101000a031916815260200191505b5092505050602060405180830381600087803b15156104ec57600080fd5b6102c65a03f115156104fd57600080fd5b50505060405180519050156105585781848481518110151561051b57fe5b9060200190602002019073ffffffffffffffffffffffffffffffffffffffff16908173ffffffffffffffffffffffffffffffffffffffff16815250505b82806001019350506103c3565b83945050505050919050565b6000808281548110151561058157fe5b906000526020600020900160009054906101000a900473ffffffffffffffffffffffffffffffffffffffff169050919050565b6105bc610b35565b6105c4610b35565b600080600080805490506040518059106105db5750595b90808252806020026020018201604052509350600092505b6000805490508310156107915760008381548110151561060f57fe5b906000526020600020900160009054906101000a900473ffffffffffffffffffffffffffffffffffffffff1691508190508073ffffffffffffffffffffffffffffffffffffffff166322e8e9eb6000604051602001526040518163ffffffff167c0100000000000000000000000000000000000000000000000000000000028152600401602060405180830381600087803b15156106ac57600080fd5b6102c65a03f115156106bd57600080fd5b5050506040518051905060001916866040518082805190602001908083835b60208310151561070157805182526020820191506020810190506020830392506106dc565b6001836020036101000a03801982511681845116808217855250505050505090500191505060405180910390206000191614156107845781848481518110151561074757fe5b9060200190602002019073ffffffffffffffffffffffffffffffffffffffff16908173ffffffffffffffffffffffffffffffffffffffff16815250505b82806001019350506105f3565b83945050505050919050565b60008060008060009350600092505b60008054905083101561094c576000838154811015156107c857fe5b906000526020600020900160009054906101000a900473ffffffffffffffffffffffffffffffffffffffff1673ffffffffffffffffffffffffffffffffffffffff166303a935986000604051604001526040518163ffffffff167c01000000000000000000000000000000000000000000000000000000000281526004016040805180830381600087803b151561085e57600080fd5b6102c65a03f1151561086f57600080fd5b50505060405180519060200180519050915091508473__GeoDistance___________________________6301989805898986866000604051602001526040518563ffffffff167c0100000000000000000000000000000000000000000000000000000000028152600401808581526020018481526020018360030b81526020018260030b815260200194505050505060206040518083038186803b151561091557600080fd5b6102c65a03f4151561092657600080fd5b50505060405180519050101561093f578260020a841793505b82806001019350506107ac565b8393505050509392505050565b6000600160009054906101000a900473ffffffffffffffffffffffffffffffffffffffff16905090565b61098b610b35565b600160009054906101000a900473ffffffffffffffffffffffffffffffffffffffff1673ffffffffffffffffffffffffffffffffffffffff163373ffffffffffffffffffffffffffffffffffffffff161415156109e757600080fd5b6000805480602002602001604051908101604052809291908181526020018280548015610a6957602002820191906000526020600020905b8160009054906101000a900473ffffffffffffffffffffffffffffffffffffffff1673ffffffffffffffffffffffffffffffffffffffff1681526020019060010190808311610a1f575b5050505050905090565b600160009054906101000a900473ffffffffffffffffffffffffffffffffffffffff1673ffffffffffffffffffffffffffffffffffffffff163373ffffffffffffffffffffffffffffffffffffffff16141515610acf57600080fd5b60008054806001018281610ae39190610b49565b9160005260206000209001600083909190916101000a81548173ffffffffffffffffffffffffffffffffffffffff021916908373ffffffffffffffffffffffffffffffffffffffff1602179055505050565b602060405190810160405280600081525090565b815481835581811511610b7057818360005260206000209182019101610b6f9190610b75565b5b505050565b610b9791905b80821115610b93576000816000905550600101610b7b565b5090565b905600a165627a7a72305820941b9f3a0732a73bf71e18e4c25514c3d8168e72e1d2ef66a03e5ffe766077ab0029",
  "source": "pragma solidity ^0.4.18;\n\ninterface Enlistment {\n    function getCoords() view external returns(int32, int32);\n    function hasBid(string tenantEmail) view external returns (bool);\n    function getLandlordEmailKeccak256() view external returns(bytes32);\n}\n\nimport \"./GeoDistance.sol\";\n\n// TODO: should guard for duplicates\n\ncontract EnlistmentRegistry {\n\n    address[] enlistments;\n    address owner;\n\n    function EnlistmentRegistry() public {\n        owner = msg.sender;\n    }\n\n    function addEnlistment(address enlistmentAddress) payable public ownerOnly() {\n        enlistments.push(enlistmentAddress);\n    }\n\n    function getEnlistmentAddressByIndex(uint idx) view public returns (address addr) {\n        return enlistments[idx];\n    }\n\n    function geosearch(int lat, int lng, uint searchRadius) view public returns (uint result) {\n        result = 0;\n        for (uint i = 0; i < enlistments.length; i++) {\n            var (enlistmentLat, enlistmentLng) = Enlistment(enlistments[i]).getCoords();\n            if (GeoDistance.distance(lat, lng, enlistmentLat, enlistmentLng) < searchRadius) {\n                result = result | 2 ** i;\n            }\n        }\n        return result;\n    }\n\n    function getEnlistmentsByBidder(string tenantEmail) view public returns(address[]) {\n        address[] memory result = new address[](enlistments.length);\n        for (uint i = 0; i < enlistments.length; i++) {\n            var en = enlistments[i];\n            Enlistment enlistmentContractInstance = Enlistment(en);\n            if (enlistmentContractInstance.hasBid(tenantEmail)) {\n                result[i] = en;\n            }\n        }\n        return result;\n    }\n\n    function getEnlistmentsByLandlord(string landlordEmail) view public returns(address[]) {\n        address[] memory result = new address[](enlistments.length);\n        for (uint i = 0; i < enlistments.length; i++) {\n            var en = enlistments[i];\n            Enlistment enlistmentContractInstance = Enlistment(en);\n            if (keccak256(landlordEmail) == enlistmentContractInstance.getLandlordEmailKeccak256()) {\n                result[i] = en;\n            }\n        }\n\n        return result;\n\n    }\n\n    function getEnlistments() view public ownerOnly() returns(address[]) {\n        return enlistments;\n    }\n\n    function getOwner() view public returns (address) {\n        return owner;\n    }\n\n    modifier ownerOnly() {\n        require(msg.sender == owner);\n        _;\n    }\n\n    modifier indexInRange(uint index) {\n        require(enlistments.length > index);\n        _;\n    }\n\n}\n",
  "sourcePath": "/Users/Indrek/Ulikool/Thesis/blockchain-real-estate-baseline/ethereum/contracts/EnlistmentRegistry.sol",
  "compiler": {
    "name": "solc",
    "version": "0.4.19+commit.c4cbbb05.Emscripten.clang"
  },
  "schemaVersion": "1.0.1",
  "updatedAt": "2018-05-08T14:58:38.150Z"
}