{
  "contractName": "EnlistmentRegistry",
  "abi": [
    {
      "constant": true,
      "inputs": [
        {
          "name": "tenantEmail",
          "type": "string"
        }
      ],
      "name": "getEnlistmentsByBidder",
      "outputs": [
        {
          "name": "",
          "type": "address[]"
        }
      ],
      "payable": false,
      "stateMutability": "view",
      "type": "function"
    },
    {
      "constant": true,
      "inputs": [
        {
          "name": "landlordEmail",
          "type": "string"
        }
      ],
      "name": "getEnlistmentsByLandlord",
      "outputs": [
        {
          "name": "",
          "type": "address[]"
        }
      ],
      "payable": false,
      "stateMutability": "view",
      "type": "function"
    },
    {
      "constant": true,
      "inputs": [
        {
          "name": "lat",
          "type": "int256"
        },
        {
          "name": "lng",
          "type": "int256"
        },
        {
          "name": "searchRadius",
          "type": "uint256"
        }
      ],
      "name": "geosearch",
      "outputs": [
        {
          "name": "",
          "type": "address[]"
        }
      ],
      "payable": false,
      "stateMutability": "view",
      "type": "function"
    },
    {
      "constant": true,
      "inputs": [],
      "name": "getOwner",
      "outputs": [
        {
          "name": "",
          "type": "address"
        }
      ],
      "payable": false,
      "stateMutability": "view",
      "type": "function"
    },
    {
      "constant": true,
      "inputs": [],
      "name": "getEnlistments",
      "outputs": [
        {
          "name": "",
          "type": "address[]"
        }
      ],
      "payable": false,
      "stateMutability": "view",
      "type": "function"
    },
    {
      "constant": false,
      "inputs": [
        {
          "name": "enlistmentAddress",
          "type": "address"
        }
      ],
      "name": "addEnlistment",
      "outputs": [],
      "payable": true,
      "stateMutability": "payable",
      "type": "function"
    },
    {
      "inputs": [],
      "payable": false,
      "stateMutability": "nonpayable",
      "type": "constructor"
    }
  ],
  "bytecode": "0x6060604052341561000f57600080fd5b33600160006101000a81548173ffffffffffffffffffffffffffffffffffffffff021916908373ffffffffffffffffffffffffffffffffffffffff160217905550610ba88061005f6000396000f300606060405260043610610077576000357c0100000000000000000000000000000000000000000000000000000000900463ffffffff168062225efd1461007c57806362587e771461012e57806382ab4e6e146101e0578063893d20e81461026a578063a88d8c26146102bf578063bdb7f58114610329575b600080fd5b341561008757600080fd5b6100d7600480803590602001908201803590602001908080601f01602080910402602001604051908101604052809392919081815260200183838082843782019150505050505091905050610357565b6040518080602001828103825283818151815260200191508051906020019060200280838360005b8381101561011a5780820151818401526020810190506100ff565b505050509050019250505060405180910390f35b341561013957600080fd5b610189600480803590602001908201803590602001908080601f01602080910402602001604051908101604052809392919081815260200183838082843782019150505050505091905050610544565b6040518080602001828103825283818151815260200191508051906020019060200280838360005b838110156101cc5780820151818401526020810190506101b1565b505050509050019250505060405180910390f35b34156101eb57600080fd5b610213600480803590602001909190803590602001909190803590602001909190505061072d565b6040518080602001828103825283818151815260200191508051906020019060200280838360005b8381101561025657808201518184015260208101905061023b565b505050509050019250505060405180910390f35b341561027557600080fd5b61027d610997565b604051808273ffffffffffffffffffffffffffffffffffffffff1673ffffffffffffffffffffffffffffffffffffffff16815260200191505060405180910390f35b34156102ca57600080fd5b6102d26109c1565b6040518080602001828103825283818151815260200191508051906020019060200280838360005b838110156103155780820151818401526020810190506102fa565b505050509050019250505060405180910390f35b610355600480803573ffffffffffffffffffffffffffffffffffffffff16906020019091905050610ab1565b005b61035f610b17565b610367610b17565b6000806000808054905060405180591061037e5750595b90808252806020026020018201604052509350600092505b600080549050831015610538576000838154811015156103b257fe5b906000526020600020900160009054906101000a900473ffffffffffffffffffffffffffffffffffffffff1691508190508073ffffffffffffffffffffffffffffffffffffffff1663cdb1ca6a876000604051602001526040518263ffffffff167c01000000000000000000000000000000000000000000000000000000000281526004018080602001828103825283818151815260200191508051906020019080838360005b83811015610474578082015181840152602081019050610459565b50505050905090810190601f1680156104a15780820380516001836020036101000a031916815260200191505b5092505050602060405180830381600087803b15156104bf57600080fd5b6102c65a03f115156104d057600080fd5b505050604051805190501561052b578184848151811015156104ee57fe5b9060200190602002019073ffffffffffffffffffffffffffffffffffffffff16908173ffffffffffffffffffffffffffffffffffffffff16815250505b8280600101935050610396565b83945050505050919050565b61054c610b17565b610554610b17565b6000806000808054905060405180591061056b5750595b90808252806020026020018201604052509350600092505b6000805490508310156107215760008381548110151561059f57fe5b906000526020600020900160009054906101000a900473ffffffffffffffffffffffffffffffffffffffff1691508190508073ffffffffffffffffffffffffffffffffffffffff166322e8e9eb6000604051602001526040518163ffffffff167c0100000000000000000000000000000000000000000000000000000000028152600401602060405180830381600087803b151561063c57600080fd5b6102c65a03f1151561064d57600080fd5b5050506040518051905060001916866040518082805190602001908083835b602083101515610691578051825260208201915060208101905060208303925061066c565b6001836020036101000a0380198251168184511680821785525050505050509050019150506040518091039020600019161415610714578184848151811015156106d757fe5b9060200190602002019073ffffffffffffffffffffffffffffffffffffffff16908173ffffffffffffffffffffffffffffffffffffffff16815250505b8280600101935050610583565b83945050505050919050565b610735610b17565b61073d610b17565b600080600080805490506040518059106107545750595b90808252806020026020018201604052509350600092505b6000805490508310156109895760008381548110151561078857fe5b906000526020600020900160009054906101000a900473ffffffffffffffffffffffffffffffffffffffff1673ffffffffffffffffffffffffffffffffffffffff166303a935986000604051604001526040518163ffffffff167c01000000000000000000000000000000000000000000000000000000000281526004016040805180830381600087803b151561081e57600080fd5b6102c65a03f1151561082f57600080fd5b50505060405180519060200180519050915091508573__GeoDistance___________________________63019898058a8a86866000604051602001526040518563ffffffff167c0100000000000000000000000000000000000000000000000000000000028152600401808581526020018481526020018360030b81526020018260030b815260200194505050505060206040518083038186803b15156108d557600080fd5b6102c65a03f415156108e657600080fd5b50505060405180519050101561097c5760008381548110151561090557fe5b906000526020600020900160009054906101000a900473ffffffffffffffffffffffffffffffffffffffff16848481518110151561093f57fe5b9060200190602002019073ffffffffffffffffffffffffffffffffffffffff16908173ffffffffffffffffffffffffffffffffffffffff16815250505b828060010193505061076c565b839450505050509392505050565b6000600160009054906101000a900473ffffffffffffffffffffffffffffffffffffffff16905090565b6109c9610b17565b600160009054906101000a900473ffffffffffffffffffffffffffffffffffffffff1673ffffffffffffffffffffffffffffffffffffffff163373ffffffffffffffffffffffffffffffffffffffff16141515610a2557600080fd5b6000805480602002602001604051908101604052809291908181526020018280548015610aa757602002820191906000526020600020905b8160009054906101000a900473ffffffffffffffffffffffffffffffffffffffff1673ffffffffffffffffffffffffffffffffffffffff1681526020019060010190808311610a5d575b5050505050905090565b60008054806001018281610ac59190610b2b565b9160005260206000209001600083909190916101000a81548173ffffffffffffffffffffffffffffffffffffffff021916908373ffffffffffffffffffffffffffffffffffffffff1602179055505050565b602060405190810160405280600081525090565b815481835581811511610b5257818360005260206000209182019101610b519190610b57565b5b505050565b610b7991905b80821115610b75576000816000905550600101610b5d565b5090565b905600a165627a7a723058208b1f5d196b6a96b06819aeca9d4108944827a225833f070b4f3db1c4d0576df70029",
  "source": "pragma solidity ^0.4.18;\n\ninterface Enlistment {\n    function getCoords() view external returns(int32, int32);\n    function hasBid(string tenantEmail) view external returns (bool);\n    function getLandlordEmailKeccak256() view external returns(bytes32);\n}\n\nimport \"./GeoDistance.sol\";\n\n// TODO: should guard for duplicates\n\ncontract EnlistmentRegistry {\n\n    address[] enlistments;\n    address owner;\n\n    function EnlistmentRegistry() public {\n        owner = msg.sender;\n    }\n\n    function addEnlistment(address enlistmentAddress) payable public {\n        enlistments.push(enlistmentAddress);\n    }\n\n    /* discontinued: bitmasking technique for filter result array indices does not work for registries bigger than 256+1 */\n    /* function bitmask_geosearch(int lat, int lng, uint searchRadius) view public returns (uint result, uint startsWithNthBit) {\n        result = 0;\n        startsWithNthBit = 0;\n        for (uint i = 0; i < enlistments.length; i++) {\n            var (enlistmentLat, enlistmentLng) = Enlistment(enlistments[i]).getCoords();\n            if (distance(lat, lng, enlistmentLat, enlistmentLng) < searchRadius) {\n                if (result == 0) {\n                    startsWithNthBit = i;\n                    result = 1;\n                } else {\n                    result = result | 2 ** i;  bignumber.tostring(2)\n                }\n            }\n        }\n        return (result, startsWithNthBit);\n    } */\n\n    function geosearch(int lat, int lng, uint searchRadius) view public returns (address[]) {\n        address[] memory result = new address[](enlistments.length);\n        for (uint i = 0; i < enlistments.length; i++) {\n            var (enlistmentLat, enlistmentLng) = Enlistment(enlistments[i]).getCoords();\n            if (GeoDistance.distance(lat, lng, enlistmentLat, enlistmentLng) < searchRadius) {\n                result[i] = enlistments[i];\n            }\n        }\n        return result;\n    }\n\n    function getEnlistmentsByBidder(string tenantEmail) view public returns(address[]) {\n        address[] memory result = new address[](enlistments.length);\n        for (uint i = 0; i < enlistments.length; i++) {\n            var en = enlistments[i];\n            Enlistment enlistmentContractInstance = Enlistment(en);\n            if (enlistmentContractInstance.hasBid(tenantEmail)) {\n                result[i] = en;\n            }\n        }\n        return result;\n    }\n\n    function getEnlistmentsByLandlord(string landlordEmail) view public returns(address[]) {\n        address[] memory result = new address[](enlistments.length);\n        for (uint i = 0; i < enlistments.length; i++) {\n            var en = enlistments[i];\n            Enlistment enlistmentContractInstance = Enlistment(en);\n            if (keccak256(landlordEmail) == enlistmentContractInstance.getLandlordEmailKeccak256()) {\n                result[i] = en;\n            }\n        }\n\n        return result;\n\n    }\n\n    function getEnlistments() view public ownerOnly() returns(address[]) {\n        return enlistments;\n    }\n\n    function getOwner() view public returns (address) {\n        return owner;\n    }\n\n    modifier ownerOnly() {\n        require(msg.sender == owner);\n        _;\n    }\n\n}\n",
  "sourcePath": "/Users/Indrek/Ulikool/Thesis/blockchain-real-estate-baseline/ethereum/contracts/EnlistmentRegistry.sol",
  "compiler": {
    "name": "solc",
    "version": "0.4.19+commit.c4cbbb05.Emscripten.clang"
  },
  "schemaVersion": "1.0.1",
  "updatedAt": "2018-05-02T22:46:13.465Z"
}