{
  "contractName": "EnlistmentToContract",
  "abi": [
    {
      "constant": true,
      "inputs": [],
      "name": "locked",
      "outputs": [
        {
          "name": "",
          "type": "bool"
        }
      ],
      "payable": false,
      "stateMutability": "view",
      "type": "function"
    },
    {
      "inputs": [
        {
          "name": "landlordEmail",
          "type": "string"
        },
        {
          "name": "landlordName",
          "type": "string"
        },
        {
          "name": "streetName",
          "type": "string"
        },
        {
          "name": "floorNr",
          "type": "uint256"
        },
        {
          "name": "apartmentNr",
          "type": "uint256"
        },
        {
          "name": "houseNr",
          "type": "uint256"
        },
        {
          "name": "postalCode",
          "type": "uint256"
        },
        {
          "name": "geohash",
          "type": "bytes9"
        },
        {
          "name": "detailsJson",
          "type": "string"
        }
      ],
      "payable": false,
      "stateMutability": "nonpayable",
      "type": "constructor"
    },
    {
      "constant": true,
      "inputs": [],
      "name": "getOwner",
      "outputs": [
        {
          "name": "",
          "type": "address"
        }
      ],
      "payable": false,
      "stateMutability": "view",
      "type": "function"
    },
    {
      "constant": true,
      "inputs": [],
      "name": "getLandlord",
      "outputs": [
        {
          "name": "",
          "type": "string"
        },
        {
          "name": "",
          "type": "string"
        }
      ],
      "payable": false,
      "stateMutability": "view",
      "type": "function"
    },
    {
      "constant": true,
      "inputs": [],
      "name": "getEnlistment",
      "outputs": [
        {
          "name": "",
          "type": "string"
        },
        {
          "name": "",
          "type": "string"
        },
        {
          "name": "",
          "type": "string"
        },
        {
          "name": "",
          "type": "uint256"
        },
        {
          "name": "",
          "type": "uint256"
        },
        {
          "name": "",
          "type": "uint256"
        },
        {
          "name": "",
          "type": "uint256"
        },
        {
          "name": "",
          "type": "bytes9"
        },
        {
          "name": "",
          "type": "string"
        }
      ],
      "payable": false,
      "stateMutability": "view",
      "type": "function"
    },
    {
      "constant": true,
      "inputs": [],
      "name": "getGeohash",
      "outputs": [
        {
          "name": "",
          "type": "bytes9"
        }
      ],
      "payable": false,
      "stateMutability": "view",
      "type": "function"
    },
    {
      "constant": true,
      "inputs": [
        {
          "name": "tenantEmail",
          "type": "string"
        }
      ],
      "name": "hasBid",
      "outputs": [
        {
          "name": "",
          "type": "bool"
        }
      ],
      "payable": false,
      "stateMutability": "view",
      "type": "function"
    },
    {
      "constant": true,
      "inputs": [],
      "name": "getOfferAuthorsLength",
      "outputs": [
        {
          "name": "",
          "type": "uint256"
        }
      ],
      "payable": false,
      "stateMutability": "view",
      "type": "function"
    },
    {
      "constant": false,
      "inputs": [
        {
          "name": "amount",
          "type": "uint256"
        },
        {
          "name": "tenantName",
          "type": "string"
        },
        {
          "name": "tenantEmail",
          "type": "string"
        }
      ],
      "name": "sendOffer",
      "outputs": [],
      "payable": true,
      "stateMutability": "payable",
      "type": "function"
    },
    {
      "constant": false,
      "inputs": [
        {
          "name": "tenantEmail",
          "type": "string"
        }
      ],
      "name": "cancelOffer",
      "outputs": [],
      "payable": true,
      "stateMutability": "payable",
      "type": "function"
    },
    {
      "constant": true,
      "inputs": [
        {
          "name": "tenantEmail",
          "type": "string"
        }
      ],
      "name": "getOffer",
      "outputs": [
        {
          "name": "",
          "type": "bool"
        },
        {
          "name": "",
          "type": "uint256"
        },
        {
          "name": "",
          "type": "string"
        },
        {
          "name": "",
          "type": "string"
        },
        {
          "name": "",
          "type": "uint8"
        }
      ],
      "payable": false,
      "stateMutability": "view",
      "type": "function"
    },
    {
      "constant": true,
      "inputs": [
        {
          "name": "idx",
          "type": "uint256"
        }
      ],
      "name": "getOfferByIndex",
      "outputs": [
        {
          "name": "",
          "type": "bool"
        },
        {
          "name": "",
          "type": "uint256"
        },
        {
          "name": "",
          "type": "string"
        },
        {
          "name": "",
          "type": "string"
        },
        {
          "name": "",
          "type": "uint8"
        }
      ],
      "payable": false,
      "stateMutability": "view",
      "type": "function"
    },
    {
      "constant": false,
      "inputs": [
        {
          "name": "result",
          "type": "bool"
        },
        {
          "name": "tenantEmail",
          "type": "string"
        }
      ],
      "name": "reviewOffer",
      "outputs": [],
      "payable": true,
      "stateMutability": "payable",
      "type": "function"
    },
    {
      "constant": false,
      "inputs": [
        {
          "name": "tenantEmail",
          "type": "string"
        },
        {
          "name": "landlordName",
          "type": "string"
        },
        {
          "name": "agreementTenantName",
          "type": "string"
        },
        {
          "name": "agreementTenantEmail",
          "type": "string"
        },
        {
          "name": "leaseStart",
          "type": "uint256"
        },
        {
          "name": "handoverDate",
          "type": "uint256"
        },
        {
          "name": "leasePeriod",
          "type": "uint256"
        },
        {
          "name": "otherTerms",
          "type": "string"
        },
        {
          "name": "hash",
          "type": "string"
        }
      ],
      "name": "submitDraft",
      "outputs": [],
      "payable": true,
      "stateMutability": "payable",
      "type": "function"
    },
    {
      "constant": true,
      "inputs": [
        {
          "name": "tenantEmail",
          "type": "string"
        }
      ],
      "name": "getAgreementParticipants",
      "outputs": [
        {
          "name": "",
          "type": "string"
        },
        {
          "name": "",
          "type": "string"
        },
        {
          "name": "",
          "type": "string"
        }
      ],
      "payable": false,
      "stateMutability": "view",
      "type": "function"
    },
    {
      "constant": true,
      "inputs": [
        {
          "name": "tenantEmail",
          "type": "string"
        }
      ],
      "name": "getAgreementDetails",
      "outputs": [
        {
          "name": "",
          "type": "uint256"
        },
        {
          "name": "",
          "type": "uint256"
        },
        {
          "name": "",
          "type": "uint256"
        },
        {
          "name": "",
          "type": "uint256"
        },
        {
          "name": "",
          "type": "string"
        }
      ],
      "payable": false,
      "stateMutability": "view",
      "type": "function"
    },
    {
      "constant": true,
      "inputs": [
        {
          "name": "tenantEmail",
          "type": "string"
        }
      ],
      "name": "getAgreementHashes",
      "outputs": [
        {
          "name": "",
          "type": "string"
        },
        {
          "name": "",
          "type": "string"
        },
        {
          "name": "",
          "type": "string"
        }
      ],
      "payable": false,
      "stateMutability": "view",
      "type": "function"
    },
    {
      "constant": true,
      "inputs": [
        {
          "name": "tenantEmail",
          "type": "string"
        }
      ],
      "name": "getAgreementStatus",
      "outputs": [
        {
          "name": "",
          "type": "uint8"
        }
      ],
      "payable": false,
      "stateMutability": "view",
      "type": "function"
    },
    {
      "constant": false,
      "inputs": [
        {
          "name": "tenantEmail",
          "type": "string"
        },
        {
          "name": "result",
          "type": "bool"
        }
      ],
      "name": "reviewAgreement",
      "outputs": [],
      "payable": true,
      "stateMutability": "payable",
      "type": "function"
    },
    {
      "constant": false,
      "inputs": [
        {
          "name": "tenantEmail",
          "type": "string"
        },
        {
          "name": "landlordSignedHash",
          "type": "string"
        }
      ],
      "name": "landlordSignAgreement",
      "outputs": [],
      "payable": true,
      "stateMutability": "payable",
      "type": "function"
    },
    {
      "constant": false,
      "inputs": [
        {
          "name": "tenantEmail",
          "type": "string"
        },
        {
          "name": "tenantSignedHash",
          "type": "string"
        }
      ],
      "name": "tenantSignAgreement",
      "outputs": [],
      "payable": true,
      "stateMutability": "payable",
      "type": "function"
    },
    {
      "constant": false,
      "inputs": [
        {
          "name": "tenantEmail",
          "type": "string"
        }
      ],
      "name": "cancelAgreement",
      "outputs": [],
      "payable": true,
      "stateMutability": "payable",
      "type": "function"
    },
    {
      "constant": false,
      "inputs": [
        {
          "name": "tenantEmail",
          "type": "string"
        }
      ],
      "name": "receiveFirstMonthRent",
      "outputs": [],
      "payable": true,
      "stateMutability": "payable",
      "type": "function"
    }
  ],
  "bytecode": "0x606060405260008060146101000a81548160ff02191690831515021790555034156200002a57600080fd5b604051620049ed380380620049ed83398101604052808051820191906020018051820191906020018051820191906020018051906020019091908051906020019091908051906020019091908051906020019091908051906020019091908051820191905050610120604051908101604052808a81526020018981526020018881526020018781526020018681526020018581526020018481526020018376ffffffffffffffffffffffffffffffffffffffffffffff1916815260200182815250600160008201518160000190805190602001906200010b92919062000225565b5060208201518160010190805190602001906200012a92919062000225565b5060408201518160020190805190602001906200014992919062000225565b50606082015181600301556080820151816004015560a0820151816005015560c0820151816006015560e08201518160070160006101000a81548168ffffffffffffffffff02191690837701000000000000000000000000000000000000000000000090040217905550610100820151816008019080519060200190620001d292919062000225565b50905050336000806101000a81548173ffffffffffffffffffffffffffffffffffffffff021916908373ffffffffffffffffffffffffffffffffffffffff160217905550505050505050505050620002d4565b828054600181600116156101000203166002900490600052602060002090601f016020900481019282601f106200026857805160ff191683800117855562000299565b8280016001018555821562000299579182015b82811115620002985782518255916020019190600101906200027b565b5b509050620002a89190620002ac565b5090565b620002d191905b80821115620002cd576000816000905550600101620002b3565b5090565b90565b61470980620002e46000396000f300606060405260043610610127576000357c0100000000000000000000000000000000000000000000000000000000900463ffffffff168062ff22c61461012c57806303746e06146101c15780630b8df0ba14610256578063222a7af9146102b3578063265adc331461046f5780632d63ce27146105615780632fcc176d146105b357806331ae8ed0146106105780634d45780e14610839578063673a95ef1461088b57806371ca1587146108e85780637a51011614610a96578063893d20e814610bff5780639450a7dc14610c54578063a578945c14610c7d578063cdb1ca6a14610d1b578063cf30901214610d90578063d441a15214610dbd578063e359a0a114610f6b578063ec2b2a121461109a578063f278f78414611119578063f502236d1461116b575b600080fd5b6101bf600480803590602001908201803590602001908080601f0160208091040260200160405190810160405280939291908181526020018383808284378201915050505050509190803590602001908201803590602001908080601f01602080910402602001604051908101604052809392919081815260200183838082843782019150505050505091905050611265565b005b610254600480803590602001908201803590602001908080601f0160208091040260200160405190810160405280939291908181526020018383808284378201915050505050509190803590602001908201803590602001908080601f016020809104026020016040519081016040528093929190818152602001838380828437820191505050505050919050506115af565b005b341561026157600080fd5b610269611930565b604051808276ffffffffffffffffffffffffffffffffffffffffffffff191676ffffffffffffffffffffffffffffffffffffffffffffff1916815260200191505060405180910390f35b61046d600480803590602001908201803590602001908080601f0160208091040260200160405190810160405280939291908181526020018383808284378201915050505050509190803590602001908201803590602001908080601f0160208091040260200160405190810160405280939291908181526020018383808284378201915050505050509190803590602001908201803590602001908080601f0160208091040260200160405190810160405280939291908181526020018383808284378201915050505050509190803590602001908201803590602001908080601f0160208091040260200160405190810160405280939291908181526020018383808284378201915050505050509190803590602001909190803590602001909190803590602001909190803590602001908201803590602001908080601f0160208091040260200160405190810160405280939291908181526020018383808284378201915050505050509190803590602001908201803590602001908080601f01602080910402602001604051908101604052809392919081815260200183838082843782019150505050505091905050611961565b005b341561047a57600080fd5b6104ca600480803590602001908201803590602001908080601f01602080910402602001604051908101604052809392919081815260200183838082843782019150505050505091905050611f56565b6040518086815260200185815260200184815260200183815260200180602001828103825283818151815260200191508051906020019080838360005b83811015610522578082015181840152602081019050610507565b50505050905090810190601f16801561054f5780820380516001836020036101000a031916815260200191505b50965050505050505060405180910390f35b6105b1600480803590602001908201803590602001908080601f016020809104026020016040519081016040528093929190818152602001838380828437820191505050505050919050506120f6565b005b61060e6004808035151590602001909190803590602001908201803590602001908080601f01602080910402602001604051908101604052809392919081815260200183838082843782019150505050505091905050612569565b005b341561061b57600080fd5b610623612799565b604051808060200180602001806020018a81526020018981526020018881526020018781526020018676ffffffffffffffffffffffffffffffffffffffffffffff191676ffffffffffffffffffffffffffffffffffffffffffffff191681526020018060200185810385528e818151815260200191508051906020019080838360005b838110156106c15780820151818401526020810190506106a6565b50505050905090810190601f1680156106ee5780820380516001836020036101000a031916815260200191505b5085810384528d818151815260200191508051906020019080838360005b8381101561072757808201518184015260208101905061070c565b50505050905090810190601f1680156107545780820380516001836020036101000a031916815260200191505b5085810383528c818151815260200191508051906020019080838360005b8381101561078d578082015181840152602081019050610772565b50505050905090810190601f1680156107ba5780820380516001836020036101000a031916815260200191505b50858103825286818151815260200191508051906020019080838360005b838110156107f35780820151818401526020810190506107d8565b50505050905090810190601f1680156108205780820380516001836020036101000a031916815260200191505b509d505050505050505050505050505060405180910390f35b610889600480803590602001908201803590602001908080601f01602080910402602001604051908101604052809392919081815260200183838082843782019150505050505091905050612afe565b005b6108e6600480803590602001908201803590602001908080601f016020809104026020016040519081016040528093929190818152602001838380828437820191505050505050919080351515906020019091905050612dc4565b005b34156108f357600080fd5b610943600480803590602001908201803590602001908080601f01602080910402602001604051908101604052809392919081815260200183838082843782019150505050505091905050613098565b60405180806020018060200180602001848103845287818151815260200191508051906020019080838360005b8381101561098b578082015181840152602081019050610970565b50505050905090810190601f1680156109b85780820380516001836020036101000a031916815260200191505b50848103835286818151815260200191508051906020019080838360005b838110156109f15780820151818401526020810190506109d6565b50505050905090810190601f168015610a1e5780820380516001836020036101000a031916815260200191505b50848103825285818151815260200191508051906020019080838360005b83811015610a57578082015181840152602081019050610a3c565b50505050905090810190601f168015610a845780820380516001836020036101000a031916815260200191505b50965050505050505060405180910390f35b3415610aa157600080fd5b610af1600480803590602001908201803590602001908080601f01602080910402602001604051908101604052809392919081815260200183838082843782019150505050505091905050613368565b60405180861515151581526020018581526020018060200180602001846003811115610b1957fe5b60ff168152602001838103835286818151815260200191508051906020019080838360005b83811015610b59578082015181840152602081019050610b3e565b50505050905090810190601f168015610b865780820380516001836020036101000a031916815260200191505b50838103825285818151815260200191508051906020019080838360005b83811015610bbf578082015181840152602081019050610ba4565b50505050905090810190601f168015610bec5780820380516001836020036101000a031916815260200191505b5097505050505050505060405180910390f35b3415610c0a57600080fd5b610c126135c3565b604051808273ffffffffffffffffffffffffffffffffffffffff1673ffffffffffffffffffffffffffffffffffffffff16815260200191505060405180910390f35b3415610c5f57600080fd5b610c67613647565b6040518082815260200191505060405180910390f35b610d19600480803590602001909190803590602001908201803590602001908080601f0160208091040260200160405190810160405280939291908181526020018383808284378201915050505050509190803590602001908201803590602001908080601f01602080910402602001604051908101604052809392919081815260200183838082843782019150505050505091905050613654565b005b3415610d2657600080fd5b610d76600480803590602001908201803590602001908080601f01602080910402602001604051908101604052809392919081815260200183838082843782019150505050505091905050613a12565b604051808215151515815260200191505060405180910390f35b3415610d9b57600080fd5b610da3613a9e565b604051808215151515815260200191505060405180910390f35b3415610dc857600080fd5b610e18600480803590602001908201803590602001908080601f01602080910402602001604051908101604052809392919081815260200183838082843782019150505050505091905050613ab1565b60405180806020018060200180602001848103845287818151815260200191508051906020019080838360005b83811015610e60578082015181840152602081019050610e45565b50505050905090810190601f168015610e8d5780820380516001836020036101000a031916815260200191505b50848103835286818151815260200191508051906020019080838360005b83811015610ec6578082015181840152602081019050610eab565b50505050905090810190601f168015610ef35780820380516001836020036101000a031916815260200191505b50848103825285818151815260200191508051906020019080838360005b83811015610f2c578082015181840152602081019050610f11565b50505050905090810190601f168015610f595780820380516001836020036101000a031916815260200191505b50965050505050505060405180910390f35b3415610f7657600080fd5b610f8c6004808035906020019091905050613d81565b60405180861515151581526020018581526020018060200180602001846003811115610fb457fe5b60ff168152602001838103835286818151815260200191508051906020019080838360005b83811015610ff4578082015181840152602081019050610fd9565b50505050905090810190601f1680156110215780820380516001836020036101000a031916815260200191505b50838103825285818151815260200191508051906020019080838360005b8381101561105a57808201518184015260208101905061103f565b50505050905090810190601f1680156110875780820380516001836020036101000a031916815260200191505b5097505050505050505060405180910390f35b34156110a557600080fd5b6110f5600480803590602001908201803590602001908080601f01602080910402602001604051908101604052809392919081815260200183838082843782019150505050505091905050613ffb565b6040518082600781111561110557fe5b60ff16815260200191505060405180910390f35b611169600480803590602001908201803590602001908080601f016020809104026020016040519081016040528093929190818152602001838380828437820191505050505050919050506140e0565b005b341561117657600080fd5b61117e6142f3565b604051808060200180602001838103835285818151815260200191508051906020019080838360005b838110156111c25780820151818401526020810190506111a7565b50505050905090810190601f1680156111ef5780820380516001836020036101000a031916815260200191505b50838103825284818151815260200191508051906020019080838360005b8381101561122857808201518184015260208101905061120d565b50505050905090810190601f1680156112555780820380516001836020036101000a031916815260200191505b5094505050505060405180910390f35b6000809054906101000a900473ffffffffffffffffffffffffffffffffffffffff1673ffffffffffffffffffffffffffffffffffffffff163373ffffffffffffffffffffffffffffffffffffffff161415156112c057600080fd5b8160011515600a826040518082805190602001908083835b6020831015156112fd57805182526020820191506020810190506020830392506112d8565b6001836020036101000a038019825116818451168082178552505050505050905001915050908152602001604051809103902060000160009054906101000a900460ff16151514151561134f57600080fd5b60038381600381111561135e57fe5b600a826040518082805190602001908083835b6020831015156113965780518252602082019150602081019050602083039250611371565b6001836020036101000a038019825116818451168082178552505050505050905001915050908152602001604051809103902060040160009054906101000a900460ff1660038111156113e557fe5b1415156113f157600080fd5b60058581600781111561140057fe5b600c826040518082805190602001908083835b6020831015156114385780518252602082019150602081019050602083039250611413565b6001836020036101000a0380198251168184511680821785525050505050509050019150509081526020016040518091039020600b0160009054906101000a900460ff16600781111561148757fe5b14151561149357600080fd5b85600c886040518082805190602001908083835b6020831015156114cc57805182526020820191506020810190506020830392506114a7565b6001836020036101000a0380198251168184511680821785525050505050509050019150509081526020016040518091039020600a0190805190602001906115159291906144a7565b506006600c886040518082805190602001908083835b602083101515611550578051825260208201915060208101905060208303925061152b565b6001836020036101000a0380198251168184511680821785525050505050509050019150509081526020016040518091039020600b0160006101000a81548160ff021916908360078111156115a157fe5b021790555050505050505050565b6000809054906101000a900473ffffffffffffffffffffffffffffffffffffffff1673ffffffffffffffffffffffffffffffffffffffff163373ffffffffffffffffffffffffffffffffffffffff1614151561160a57600080fd5b600060149054906101000a900460ff1615151561162657600080fd5b8160011515600a826040518082805190602001908083835b602083101515611663578051825260208201915060208101905060208303925061163e565b6001836020036101000a038019825116818451168082178552505050505050905001915050908152602001604051809103902060000160009054906101000a900460ff1615151415156116b557600080fd5b6003838160038111156116c457fe5b600a826040518082805190602001908083835b6020831015156116fc57805182526020820191506020810190506020830392506116d7565b6001836020036101000a038019825116818451168082178552505050505050905001915050908152602001604051809103902060040160009054906101000a900460ff16600381111561174b57fe5b14151561175757600080fd5b60038581600781111561176657fe5b600c826040518082805190602001908083835b60208310151561179e5780518252602082019150602081019050602083039250611779565b6001836020036101000a0380198251168184511680821785525050505050509050019150509081526020016040518091039020600b0160009054906101000a900460ff1660078111156117ed57fe5b1415156117f957600080fd5b85600c886040518082805190602001908083835b602083101515611832578051825260208201915060208101905060208303925061180d565b6001836020036101000a0380198251168184511680821785525050505050509050019150509081526020016040518091039020600901908051906020019061187b9291906144a7565b506005600c886040518082805190602001908083835b6020831015156118b65780518252602082019150602081019050602083039250611891565b6001836020036101000a0380198251168184511680821785525050505050509050019150509081526020016040518091039020600b0160006101000a81548160ff0219169083600781111561190757fe5b02179055506001600060146101000a81548160ff02191690831515021790555050505050505050565b6000600160070160009054906101000a90047701000000000000000000000000000000000000000000000002905090565b60008060009054906101000a900473ffffffffffffffffffffffffffffffffffffffff1673ffffffffffffffffffffffffffffffffffffffff163373ffffffffffffffffffffffffffffffffffffffff161415156119be57600080fd5b8960011515600a826040518082805190602001908083835b6020831015156119fb57805182526020820191506020810190506020830392506119d6565b6001836020036101000a038019825116818451168082178552505050505050905001915050908152602001604051809103902060000160009054906101000a900460ff161515141515611a4d57600080fd5b60038b816003811115611a5c57fe5b600a826040518082805190602001908083835b602083101515611a945780518252602082019150602081019050602083039250611a6f565b6001836020036101000a038019825116818451168082178552505050505050905001915050908152602001604051809103902060040160009054906101000a900460ff166003811115611ae357fe5b141515611aef57600080fd5b8c60006007811115611afd57fe5b600c826040518082805190602001908083835b602083101515611b355780518252602082019150602081019050602083039250611b10565b6001836020036101000a0380198251168184511680821785525050505050509050019150509081526020016040518091039020600b0160009054906101000a900460ff166007811115611b8457fe5b1480611c21575060026007811115611b9857fe5b600c826040518082805190602001908083835b602083101515611bd05780518252602082019150602081019050602083039250611bab565b6001836020036101000a0380198251168184511680821785525050505050509050019150509081526020016040518091039020600b0160009054906101000a900460ff166007811115611c1f57fe5b145b80611cbd575060046007811115611c3457fe5b600c826040518082805190602001908083835b602083101515611c6c5780518252602082019150602081019050602083039250611c47565b6001836020036101000a0380198251168184511680821785525050505050509050019150509081526020016040518091039020600b0160009054906101000a900460ff166007811115611cbb57fe5b145b1515611cc857600080fd5b600a8e6040518082805190602001908083835b602083101515611d005780518252602082019150602081019050602083039250611cdb565b6001836020036101000a0380198251168184511680821785525050505050509050019150509081526020016040518091039020600101549450610180604051908101604052808e81526020018d81526020018c81526020018681526020018b81526020018a8152602001898152602001888152602001878152602001602060405190810160405280600081525081526020016020604051908101604052806000815250815260200160016007811115611db557fe5b815250600c8f6040518082805190602001908083835b602083101515611df05780518252602082019150602081019050602083039250611dcb565b6001836020036101000a03801982511681845116808217855250505050505090500191505090815260200160405180910390206000820151816000019080519060200190611e3f929190614527565b506020820151816001019080519060200190611e5c929190614527565b506040820151816002019080519060200190611e79929190614527565b50606082015181600301556080820151816004015560a0820151816005015560c0820151816006015560e0820151816007019080519060200190611ebe929190614527565b50610100820151816008019080519060200190611edc929190614527565b50610120820151816009019080519060200190611efa929190614527565b5061014082015181600a019080519060200190611f18929190614527565b5061016082015181600b0160006101000a81548160ff02191690836007811115611f3e57fe5b02179055509050505050505050505050505050505050565b600080600080611f646145a7565b60008060009054906101000a900473ffffffffffffffffffffffffffffffffffffffff1673ffffffffffffffffffffffffffffffffffffffff163373ffffffffffffffffffffffffffffffffffffffff16141515611fc157600080fd5b600c876040518082805190602001908083835b602083101515611ff95780518252602082019150602081019050602083039250611fd4565b6001836020036101000a03801982511681845116808217855250505050505090500191505090815260200160405180910390209050806003015481600401548260050154836006015484600701808054600181600116156101000203166002900480601f0160208091040260200160405190810160405280929190818152602001828054600181600116156101000203166002900480156120db5780601f106120b0576101008083540402835291602001916120db565b820191906000526020600020905b8154815290600101906020018083116120be57829003601f168201915b50505050509050955095509550955095505091939590929450565b6000809054906101000a900473ffffffffffffffffffffffffffffffffffffffff1673ffffffffffffffffffffffffffffffffffffffff163373ffffffffffffffffffffffffffffffffffffffff1614151561215157600080fd5b8060011515600a826040518082805190602001908083835b60208310151561218e5780518252602082019150602081019050602083039250612169565b6001836020036101000a038019825116818451168082178552505050505050905001915050908152602001604051809103902060000160009054906101000a900460ff1615151415156121e057600080fd5b81600080600a836040518082805190602001908083835b60208310151561221c57805182526020820191506020810190506020830392506121f7565b6001836020036101000a038019825116818451168082178552505050505050905001915050908152602001604051809103902060040160009054906101000a900460ff1691506000600381111561226f57fe5b82600381111561227b57fe5b148061229c575060038081111561228e57fe5b82600381111561229a57fe5b145b15156122a757600080fd5b600c836040518082805190602001908083835b6020831015156122df57805182526020820191506020810190506020830392506122ba565b6001836020036101000a0380198251168184511680821785525050505050509050019150509081526020016040518091039020600b0160009054906101000a900460ff1690506004600781111561233257fe5b81600781111561233e57fe5b148061236057506006600781111561235257fe5b81600781111561235e57fe5b145b80612380575060078081111561237257fe5b81600781111561237e57fe5b145b15151561238c57600080fd5b6002600a866040518082805190602001908083835b6020831015156123c657805182526020820191506020810190506020830392506123a1565b6001836020036101000a038019825116818451168082178552505050505050905001915050908152602001604051809103902060040160006101000a81548160ff0219169083600381111561241757fe5b02179055506000600781111561242957fe5b600c866040518082805190602001908083835b602083101515612461578051825260208201915060208101905060208303925061243c565b6001836020036101000a0380198251168184511680821785525050505050509050019150509081526020016040518091039020600b0160009054906101000a900460ff1660078111156124b057fe5b141515612548576004600c866040518082805190602001908083835b6020831015156124f157805182526020820191506020810190506020830392506124cc565b6001836020036101000a0380198251168184511680821785525050505050509050019150509081526020016040518091039020600b0160006101000a81548160ff0219169083600781111561254257fe5b02179055505b60008060146101000a81548160ff0219169083151502179055505050505050565b6000809054906101000a900473ffffffffffffffffffffffffffffffffffffffff1673ffffffffffffffffffffffffffffffffffffffff163373ffffffffffffffffffffffffffffffffffffffff161415156125c457600080fd5b8060011515600a826040518082805190602001908083835b60208310151561260157805182526020820191506020810190506020830392506125dc565b6001836020036101000a038019825116818451168082178552505050505050905001915050908152602001604051809103902060000160009054906101000a900460ff16151514151561265357600080fd5b60008281600381111561266257fe5b600a826040518082805190602001908083835b60208310151561269a5780518252602082019150602081019050602083039250612675565b6001836020036101000a038019825116818451168082178552505050505050905001915050908152602001604051809103902060040160009054906101000a900460ff1660038111156126e957fe5b1415156126f557600080fd5b84612701576001612704565b60035b600a856040518082805190602001908083835b60208310151561273c5780518252602082019150602081019050602083039250612717565b6001836020036101000a038019825116818451168082178552505050505050905001915050908152602001604051809103902060040160006101000a81548160ff0219169083600381111561278d57fe5b02179055505050505050565b6127a16145a7565b6127a96145a7565b6127b16145a7565b60008060008060006127c16145a7565b6000809054906101000a900473ffffffffffffffffffffffffffffffffffffffff1673ffffffffffffffffffffffffffffffffffffffff163373ffffffffffffffffffffffffffffffffffffffff1614151561281c57600080fd5b6001600001600180016001600201600160030154600160040154600160050154600160060154600160070160009054906101000a900477010000000000000000000000000000000000000000000000026001600801888054600181600116156101000203166002900480601f0160208091040260200160405190810160405280929190818152602001828054600181600116156101000203166002900480156129065780601f106128db57610100808354040283529160200191612906565b820191906000526020600020905b8154815290600101906020018083116128e957829003601f168201915b50505050509850878054600181600116156101000203166002900480601f0160208091040260200160405190810160405280929190818152602001828054600181600116156101000203166002900480156129a25780601f10612977576101008083540402835291602001916129a2565b820191906000526020600020905b81548152906001019060200180831161298557829003601f168201915b50505050509750868054600181600116156101000203166002900480601f016020809104026020016040519081016040528092919081815260200182805460018160011615610100020316600290048015612a3e5780601f10612a1357610100808354040283529160200191612a3e565b820191906000526020600020905b815481529060010190602001808311612a2157829003601f168201915b50505050509650808054600181600116156101000203166002900480601f016020809104026020016040519081016040528092919081815260200182805460018160011615610100020316600290048015612ada5780601f10612aaf57610100808354040283529160200191612ada565b820191906000526020600020905b815481529060010190602001808311612abd57829003601f168201915b50505050509050985098509850985098509850985098509850909192939495969798565b6000809054906101000a900473ffffffffffffffffffffffffffffffffffffffff1673ffffffffffffffffffffffffffffffffffffffff163373ffffffffffffffffffffffffffffffffffffffff16141515612b5957600080fd5b8060011515600a826040518082805190602001908083835b602083101515612b965780518252602082019150602081019050602083039250612b71565b6001836020036101000a038019825116818451168082178552505050505050905001915050908152602001604051809103902060000160009054906101000a900460ff161515141515612be857600080fd5b600382816003811115612bf757fe5b600a826040518082805190602001908083835b602083101515612c2f5780518252602082019150602081019050602083039250612c0a565b6001836020036101000a038019825116818451168082178552505050505050905001915050908152602001604051809103902060040160009054906101000a900460ff166003811115612c7e57fe5b141515612c8a57600080fd5b600684816007811115612c9957fe5b600c826040518082805190602001908083835b602083101515612cd15780518252602082019150602081019050602083039250612cac565b6001836020036101000a0380198251168184511680821785525050505050509050019150509081526020016040518091039020600b0160009054906101000a900460ff166007811115612d2057fe5b141515612d2c57600080fd5b6007600c876040518082805190602001908083835b602083101515612d665780518252602082019150602081019050602083039250612d41565b6001836020036101000a0380198251168184511680821785525050505050509050019150509081526020016040518091039020600b0160006101000a81548160ff02191690836007811115612db757fe5b0217905550505050505050565b6000809054906101000a900473ffffffffffffffffffffffffffffffffffffffff1673ffffffffffffffffffffffffffffffffffffffff163373ffffffffffffffffffffffffffffffffffffffff16141515612e1f57600080fd5b8160011515600a826040518082805190602001908083835b602083101515612e5c5780518252602082019150602081019050602083039250612e37565b6001836020036101000a038019825116818451168082178552505050505050905001915050908152602001604051809103902060000160009054906101000a900460ff161515141515612eae57600080fd5b600383816003811115612ebd57fe5b600a826040518082805190602001908083835b602083101515612ef55780518252602082019150602081019050602083039250612ed0565b6001836020036101000a038019825116818451168082178552505050505050905001915050908152602001604051809103902060040160009054906101000a900460ff166003811115612f4457fe5b141515612f5057600080fd5b600185816007811115612f5f57fe5b600c826040518082805190602001908083835b602083101515612f975780518252602082019150602081019050602083039250612f72565b6001836020036101000a0380198251168184511680821785525050505050509050019150509081526020016040518091039020600b0160009054906101000a900460ff166007811115612fe657fe5b141515612ff257600080fd5b85612ffe576002613001565b60035b600c886040518082805190602001908083835b6020831015156130395780518252602082019150602081019050602083039250613014565b6001836020036101000a0380198251168184511680821785525050505050509050019150509081526020016040518091039020600b0160006101000a81548160ff0219169083600781111561308a57fe5b021790555050505050505050565b6130a06145a7565b6130a86145a7565b6130b06145a7565b60008060009054906101000a900473ffffffffffffffffffffffffffffffffffffffff1673ffffffffffffffffffffffffffffffffffffffff163373ffffffffffffffffffffffffffffffffffffffff1614151561310d57600080fd5b600c856040518082805190602001908083835b6020831015156131455780518252602082019150602081019050602083039250613120565b6001836020036101000a03801982511681845116808217855250505050505090500191505090815260200160405180910390209050806000018160010182600201828054600181600116156101000203166002900480601f01602080910402602001604051908101604052809291908181526020018280546001816001161561010002031660029004801561321b5780601f106131f05761010080835404028352916020019161321b565b820191906000526020600020905b8154815290600101906020018083116131fe57829003601f168201915b50505050509250818054600181600116156101000203166002900480601f0160208091040260200160405190810160405280929190818152602001828054600181600116156101000203166002900480156132b75780601f1061328c576101008083540402835291602001916132b7565b820191906000526020600020905b81548152906001019060200180831161329a57829003601f168201915b50505050509150808054600181600116156101000203166002900480601f0160208091040260200160405190810160405280929190818152602001828054600181600116156101000203166002900480156133535780601f1061332857610100808354040283529160200191613353565b820191906000526020600020905b81548152906001019060200180831161333657829003601f168201915b50505050509050935093509350509193909250565b6000806133736145a7565b61337b6145a7565b6000806000809054906101000a900473ffffffffffffffffffffffffffffffffffffffff1673ffffffffffffffffffffffffffffffffffffffff163373ffffffffffffffffffffffffffffffffffffffff161415156133d957600080fd5b600a876040518082805190602001908083835b60208310151561341157805182526020820191506020810190506020830392506133ec565b6001836020036101000a038019825116818451168082178552505050505050905001915050908152602001604051809103902090508060000160009054906101000a900460ff16816001015482600201836003018460040160009054906101000a900460ff16828054600181600116156101000203166002900480601f01602080910402602001604051908101604052809291908181526020018280546001816001161561010002031660029004801561350c5780601f106134e15761010080835404028352916020019161350c565b820191906000526020600020905b8154815290600101906020018083116134ef57829003601f168201915b50505050509250818054600181600116156101000203166002900480601f0160208091040260200160405190810160405280929190818152602001828054600181600116156101000203166002900480156135a85780601f1061357d576101008083540402835291602001916135a8565b820191906000526020600020905b81548152906001019060200180831161358b57829003601f168201915b50505050509150955095509550955095505091939590929450565b60008060009054906101000a900473ffffffffffffffffffffffffffffffffffffffff1673ffffffffffffffffffffffffffffffffffffffff163373ffffffffffffffffffffffffffffffffffffffff1614151561362057600080fd5b6000809054906101000a900473ffffffffffffffffffffffffffffffffffffffff16905090565b6000600b80549050905090565b61365c6145bb565b6000809054906101000a900473ffffffffffffffffffffffffffffffffffffffff1673ffffffffffffffffffffffffffffffffffffffff163373ffffffffffffffffffffffffffffffffffffffff161415156136b757600080fd5b8160001515600a826040518082805190602001908083835b6020831015156136f457805182526020820191506020810190506020830392506136cf565b6001836020036101000a038019825116818451168082178552505050505050905001915050908152602001604051809103902060000160009054906101000a900460ff16151514806137d757506001600381111561374e57fe5b600a826040518082805190602001908083835b6020831015156137865780518252602082019150602081019050602083039250613761565b6001836020036101000a038019825116818451168082178552505050505050905001915050908152602001604051809103902060040160009054906101000a900460ff1660038111156137d557fe5b145b806138735750600260038111156137ea57fe5b600a826040518082805190602001908083835b60208310151561382257805182526020820191506020810190506020830392506137fd565b6001836020036101000a038019825116818451168082178552505050505050905001915050908152602001604051809103902060040160009054906101000a900460ff16600381111561387157fe5b145b151561387e57600080fd5b600060149054906101000a900460ff1615151561389a57600080fd5b60a060405190810160405280600115158152602001868152602001858152602001848152602001600060038111156138ce57fe5b815250915081600a846040518082805190602001908083835b60208310151561390c57805182526020820191506020810190506020830392506138e7565b6001836020036101000a038019825116818451168082178552505050505050905001915050908152602001604051809103902060008201518160000160006101000a81548160ff021916908315150217905550602082015181600101556040820151816002019080519060200190613985929190614527565b5060608201518160030190805190602001906139a2929190614527565b5060808201518160040160006101000a81548160ff021916908360038111156139c757fe5b0217905550905050600b80548060010182816139e39190614604565b916000526020600020900160008590919091509080519060200190613a099291906144a7565b50505050505050565b600060011515600a836040518082805190602001908083835b602083101515613a505780518252602082019150602081019050602083039250613a2b565b6001836020036101000a038019825116818451168082178552505050505050905001915050908152602001604051809103902060000160009054906101000a900460ff161515149050919050565b600060149054906101000a900460ff1681565b613ab96145a7565b613ac16145a7565b613ac96145a7565b60008060009054906101000a900473ffffffffffffffffffffffffffffffffffffffff1673ffffffffffffffffffffffffffffffffffffffff163373ffffffffffffffffffffffffffffffffffffffff16141515613b2657600080fd5b600c856040518082805190602001908083835b602083101515613b5e5780518252602082019150602081019050602083039250613b39565b6001836020036101000a03801982511681845116808217855250505050505090500191505090815260200160405180910390209050806008018160090182600a01828054600181600116156101000203166002900480601f016020809104026020016040519081016040528092919081815260200182805460018160011615610100020316600290048015613c345780601f10613c0957610100808354040283529160200191613c34565b820191906000526020600020905b815481529060010190602001808311613c1757829003601f168201915b50505050509250818054600181600116156101000203166002900480601f016020809104026020016040519081016040528092919081815260200182805460018160011615610100020316600290048015613cd05780601f10613ca557610100808354040283529160200191613cd0565b820191906000526020600020905b815481529060010190602001808311613cb357829003601f168201915b50505050509150808054600181600116156101000203166002900480601f016020809104026020016040519081016040528092919081815260200182805460018160011615610100020316600290048015613d6c5780601f10613d4157610100808354040283529160200191613d6c565b820191906000526020600020905b815481529060010190602001808311613d4f57829003601f168201915b50505050509050935093509350509193909250565b600080613d8c6145a7565b613d946145a7565b6000806000809054906101000a900473ffffffffffffffffffffffffffffffffffffffff1673ffffffffffffffffffffffffffffffffffffffff163373ffffffffffffffffffffffffffffffffffffffff16141515613df257600080fd5b600a600b88815481101515613e0357fe5b90600052602060002090016040518082805460018160011615610100020316600290048015613e695780601f10613e47576101008083540402835291820191613e69565b820191906000526020600020905b815481529060010190602001808311613e55575b5050915050908152602001604051809103902090508060000160009054906101000a900460ff16816001015482600201836003018460040160009054906101000a900460ff16828054600181600116156101000203166002900480601f016020809104026020016040519081016040528092919081815260200182805460018160011615610100020316600290048015613f445780601f10613f1957610100808354040283529160200191613f44565b820191906000526020600020905b815481529060010190602001808311613f2757829003601f168201915b50505050509250818054600181600116156101000203166002900480601f016020809104026020016040519081016040528092919081815260200182805460018160011615610100020316600290048015613fe05780601f10613fb557610100808354040283529160200191613fe0565b820191906000526020600020905b815481529060010190602001808311613fc357829003601f168201915b50505050509150955095509550955095505091939590929450565b6000806000809054906101000a900473ffffffffffffffffffffffffffffffffffffffff1673ffffffffffffffffffffffffffffffffffffffff163373ffffffffffffffffffffffffffffffffffffffff1614151561405957600080fd5b600c836040518082805190602001908083835b602083101515614091578051825260208201915060208101905060208303925061406c565b6001836020036101000a0380198251168184511680821785525050505050509050019150509081526020016040518091039020905080600b0160009054906101000a900460ff16915050919050565b6000809054906101000a900473ffffffffffffffffffffffffffffffffffffffff1673ffffffffffffffffffffffffffffffffffffffff163373ffffffffffffffffffffffffffffffffffffffff1614151561413b57600080fd5b806000600c826040518082805190602001908083835b6020831015156141765780518252602082019150602081019050602083039250614151565b6001836020036101000a0380198251168184511680821785525050505050509050019150509081526020016040518091039020600b0160009054906101000a900460ff169050600460078111156141c957fe5b8160078111156141d557fe5b14806141f75750600660078111156141e957fe5b8160078111156141f557fe5b145b80614217575060078081111561420957fe5b81600781111561421557fe5b145b8061423857506002600781111561422a57fe5b81600781111561423657fe5b145b15151561424457600080fd5b6004600c846040518082805190602001908083835b60208310151561427e5780518252602082019150602081019050602083039250614259565b6001836020036101000a0380198251168184511680821785525050505050509050019150509081526020016040518091039020600b0160006101000a81548160ff021916908360078111156142cf57fe5b021790555060008060146101000a81548160ff021916908315150217905550505050565b6142fb6145a7565b6143036145a7565b6000809054906101000a900473ffffffffffffffffffffffffffffffffffffffff1673ffffffffffffffffffffffffffffffffffffffff163373ffffffffffffffffffffffffffffffffffffffff1614151561435e57600080fd5b600160000160018001818054600181600116156101000203166002900480601f0160208091040260200160405190810160405280929190818152602001828054600181600116156101000203166002900480156143fc5780601f106143d1576101008083540402835291602001916143fc565b820191906000526020600020905b8154815290600101906020018083116143df57829003601f168201915b50505050509150808054600181600116156101000203166002900480601f0160208091040260200160405190810160405280929190818152602001828054600181600116156101000203166002900480156144985780601f1061446d57610100808354040283529160200191614498565b820191906000526020600020905b81548152906001019060200180831161447b57829003601f168201915b50505050509050915091509091565b828054600181600116156101000203166002900490600052602060002090601f016020900481019282601f106144e857805160ff1916838001178555614516565b82800160010185558215614516579182015b828111156145155782518255916020019190600101906144fa565b5b5090506145239190614630565b5090565b828054600181600116156101000203166002900490600052602060002090601f016020900481019282601f1061456857805160ff1916838001178555614596565b82800160010185558215614596579182015b8281111561459557825182559160200191906001019061457a565b5b5090506145a39190614630565b5090565b602060405190810160405280600081525090565b60a060405190810160405280600015158152602001600081526020016145df614655565b81526020016145ec614655565b8152602001600060038111156145fe57fe5b81525090565b81548183558181151161462b5781836000526020600020918201910161462a9190614669565b5b505050565b61465291905b8082111561464e576000816000905550600101614636565b5090565b90565b602060405190810160405280600081525090565b61469291905b8082111561468e57600081816146859190614695565b5060010161466f565b5090565b90565b50805460018160011615610100020316600290046000825580601f106146bb57506146da565b601f0160209004906000526020600020908101906146d99190614630565b5b505600a165627a7a72305820c83fe3a71f03c4d2f01229cd2dfe5077bb5f6a99a7e34b4a956c933ea79867190029",
  "source": "pragma solidity ^0.4.18;\ncontract EnlistmentToContract {\n\n    address owner;\n    bool public locked = false;\n    Enlistment enlistment;\n    mapping(string => Offer) tenantOfferMap;\n    string[] offerAuthors;\n    mapping(string => AgreementDraft) tenantAgreementMap;\n\n    function EnlistmentToContract(string landlordEmail, string landlordName, string streetName, uint floorNr, uint apartmentNr, uint houseNr, uint postalCode, bytes9 geohash, string detailsJson) public\n    {\n        enlistment = Enlistment(landlordEmail, landlordName, streetName, floorNr, apartmentNr, houseNr, postalCode, geohash, detailsJson);\n        owner = msg.sender;\n    }\n\n    function getOwner() view public ownerOnly() returns (address) {\n        return owner;\n    }\n\n    function getLandlord() view public ownerOnly() returns (string, string) {\n        return (enlistment.landlordEmail, enlistment.landlordName);\n    }\n\n    function getEnlistment() view public ownerOnly() returns (string, string, string, uint, uint, uint, uint, bytes9, string) {\n        return (enlistment.landlordEmail, enlistment.landlordName, enlistment.streetName, enlistment.floorNr, enlistment.apartmentNr, enlistment.houseNr, enlistment.postalCode, enlistment.geohash, enlistment.detailsJson);\n    }\n\n    function getGeohash() view public returns(bytes9) {\n        return enlistment.geohash;\n    }\n\n    function hasBid(string tenantEmail) view public returns(bool) {\n        return tenantOfferMap[tenantEmail].initialized == true;\n    }\n\n    function getOfferAuthorsLength() view public returns(uint) {\n        return offerAuthors.length;\n    }\n\n    enum OfferStatus {\n        PENDING,\n        REJECTED,\n        CANCELLED,\n        ACCEPTED\n    }\n\n    enum AgreementStatus {\n        UNINITIALIZED, // internal\n        PENDING,\n        REJECTED,\n        CONFIRMED,\n        CANCELLED,\n        LANDLORD_SIGNED,\n        TENANT_SIGNED,\n        COMPLETED\n    }\n\n    struct Enlistment {\n        string landlordEmail;\n        string landlordName;\n        string streetName;\n        uint floorNr;\n        uint apartmentNr;\n        uint houseNr;\n        uint postalCode;\n        bytes9 geohash;\n        string detailsJson;\n    }\n\n    struct Offer {\n        bool initialized;\n        uint amount;\n        string tenantName;\n        string tenantEmail;\n        OfferStatus status;\n    }\n\n    struct AgreementDraft {\n        string landlordName; // for simplicity, there is only one landlord\n        string tenantName; // for simplicity, there is only one tenant and occupants are omitted\n        string tenantEmail;\n        uint amount;\n        uint leaseStart;\n        uint handoverDate;\n        uint leasePeriod;\n        string otherTerms;\n        string hash;\n        string landlordSignedHash;\n        string tenantSignedHash;\n        AgreementStatus status;\n    }\n\n    modifier noActiveOffer(string tenantEmail) {\n        require(tenantOfferMap[tenantEmail].initialized == false || tenantOfferMap[tenantEmail].status == OfferStatus.REJECTED || tenantOfferMap[tenantEmail].status == OfferStatus.CANCELLED);\n        _;\n    }\n\n    modifier offerExists(string tenantEmail) {\n        require(tenantOfferMap[tenantEmail].initialized == true);\n        _;\n    }\n\n    modifier offerInStatus(OfferStatus status, string tenantEmail) {\n        require(tenantOfferMap[tenantEmail].status == status);\n        _;\n    }\n\n    modifier offerCancellable(string tenantEmail) {\n        var offerStatus = tenantOfferMap[tenantEmail].status;\n        require(offerStatus == OfferStatus.PENDING || offerStatus == OfferStatus.ACCEPTED);\n        var agreementStatus = tenantAgreementMap[tenantEmail].status;\n        require(!(agreementStatus == AgreementStatus.CANCELLED || agreementStatus == AgreementStatus.TENANT_SIGNED || agreementStatus == AgreementStatus.COMPLETED));\n        _;\n    }\n\n    modifier agreementCanBeSubmitted(string tenantEmail) {\n        require(tenantAgreementMap[tenantEmail].status == AgreementStatus.UNINITIALIZED ||\n        tenantAgreementMap[tenantEmail].status == AgreementStatus.REJECTED || tenantAgreementMap[tenantEmail].status == AgreementStatus.CANCELLED);\n        _;\n    }\n\n    modifier agreementInStatus(AgreementStatus status, string tenantEmail) {\n        require(tenantAgreementMap[tenantEmail].status == status);\n        _;\n    }\n\n    modifier agreementCancellable(string tenantEmail) {\n        var agreementStatus = tenantAgreementMap[tenantEmail].status;\n        require(!(agreementStatus == AgreementStatus.CANCELLED || agreementStatus == AgreementStatus.TENANT_SIGNED || agreementStatus == AgreementStatus.COMPLETED || agreementStatus == AgreementStatus.REJECTED));\n        _;\n    }\n\n    modifier notLocked() {\n        require(!locked);\n        _;\n    }\n\n    modifier ownerOnly() {\n        require(msg.sender == owner);\n        _;\n    }\n\n    // what if the offer is in status PENDING and the tenant wants to send a new one?\n    function sendOffer(uint amount, string tenantName, string tenantEmail) payable public\n        ownerOnly()\n        noActiveOffer(tenantEmail)\n        notLocked()\n    {\n        var offer = Offer({\n            initialized: true,\n            amount: amount,\n            tenantName: tenantName,\n            tenantEmail: tenantEmail,\n            status: OfferStatus.PENDING\n        });\n        tenantOfferMap[tenantEmail] = offer;\n        offerAuthors.push(tenantEmail); \n    }\n\n    function cancelOffer(string tenantEmail) payable public\n        ownerOnly()\n        offerExists(tenantEmail)\n        offerCancellable(tenantEmail)\n    {\n        tenantOfferMap[tenantEmail].status = OfferStatus.CANCELLED;\n        if (tenantAgreementMap[tenantEmail].status != AgreementStatus.UNINITIALIZED) {\n            tenantAgreementMap[tenantEmail].status = AgreementStatus.CANCELLED;\n        }\n        locked = false; \n    }\n\n    function getOffer(string tenantEmail) view public ownerOnly() returns (bool, uint, string, string, OfferStatus) {\n        var o = tenantOfferMap[tenantEmail];\n        return (o.initialized, o.amount, o.tenantName, o.tenantEmail, o.status);\n    }\n\n    function getOfferByIndex(uint idx) view public ownerOnly() returns (bool, uint, string, string, OfferStatus) {\n        var o = tenantOfferMap[offerAuthors[idx]];\n        return (o.initialized, o.amount, o.tenantName, o.tenantEmail, o.status);\n    }\n\n    function reviewOffer(bool result, string tenantEmail) payable public\n        ownerOnly()\n        offerExists(tenantEmail)\n        offerInStatus(OfferStatus.PENDING, tenantEmail)\n    {\n        tenantOfferMap[tenantEmail].status = result ? OfferStatus.ACCEPTED : OfferStatus.REJECTED;\n    }\n\n    function submitDraft(string tenantEmail, string landlordName, string agreementTenantName, string agreementTenantEmail,\n        uint leaseStart, uint handoverDate, uint leasePeriod, string otherTerms, string hash) payable public\n        ownerOnly()\n        offerExists(tenantEmail)\n        offerInStatus(OfferStatus.ACCEPTED, tenantEmail)\n        agreementCanBeSubmitted(tenantEmail)\n    {\n        var amount = tenantOfferMap[tenantEmail].amount;\n        tenantAgreementMap[tenantEmail] = AgreementDraft(landlordName,\n            agreementTenantName, agreementTenantEmail,\n            amount, leaseStart,\n            handoverDate, leasePeriod,\n            otherTerms, hash, \"\", \"\", AgreementStatus.PENDING);\n    }\n\n    // getAgreement functions:\n    // can only return tuple of max 7 elements, otherwise throws \"Stack too geep\"\n    // solution: splitted into multiple functions\n\n    function getAgreementParticipants(string tenantEmail) view public ownerOnly() returns (string, string, string) {\n        var a = tenantAgreementMap[tenantEmail];\n        return (a.landlordName, a.tenantName, a.tenantEmail);\n    }\n\n    function getAgreementDetails(string tenantEmail) view public ownerOnly() returns (uint, uint, uint, uint, string) {\n        var a = tenantAgreementMap[tenantEmail];\n        return (a.amount, a.leaseStart, a.handoverDate, a.leasePeriod, a.otherTerms);\n    }\n\n    function getAgreementHashes(string tenantEmail) view public ownerOnly() returns (string, string, string) {\n        var a = tenantAgreementMap[tenantEmail];\n        return (a.hash, a.landlordSignedHash, a.tenantSignedHash);\n    }\n\n    function getAgreementStatus(string tenantEmail) view public ownerOnly() returns (AgreementStatus) {\n        var a = tenantAgreementMap[tenantEmail];\n        return (a.status);\n    }\n\n    function reviewAgreement(string tenantEmail, bool result) payable public\n        ownerOnly()\n        offerExists(tenantEmail)\n        offerInStatus(OfferStatus.ACCEPTED, tenantEmail)\n        agreementInStatus(AgreementStatus.PENDING, tenantEmail)\n    {\n        tenantAgreementMap[tenantEmail].status = result ? AgreementStatus.CONFIRMED : AgreementStatus.REJECTED;\n    }\n\n    function landlordSignAgreement(string tenantEmail, string landlordSignedHash) payable public\n        ownerOnly()\n        notLocked()\n        offerExists(tenantEmail)\n        offerInStatus(OfferStatus.ACCEPTED, tenantEmail)\n        agreementInStatus(AgreementStatus.CONFIRMED, tenantEmail)\n    {\n        tenantAgreementMap[tenantEmail].landlordSignedHash = landlordSignedHash;\n        tenantAgreementMap[tenantEmail].status = AgreementStatus.LANDLORD_SIGNED;\n        locked = true;\n    }\n\n    function tenantSignAgreement(string tenantEmail, string tenantSignedHash) payable public\n        ownerOnly()\n        offerExists(tenantEmail)\n        offerInStatus(OfferStatus.ACCEPTED, tenantEmail)\n        agreementInStatus(AgreementStatus.LANDLORD_SIGNED, tenantEmail)\n    {\n        tenantAgreementMap[tenantEmail].tenantSignedHash = tenantSignedHash;\n        tenantAgreementMap[tenantEmail].status = AgreementStatus.TENANT_SIGNED;\n    }\n\n    function cancelAgreement(string tenantEmail) payable public\n        ownerOnly()\n        agreementCancellable(tenantEmail)\n    {\n        tenantAgreementMap[tenantEmail].status = AgreementStatus.CANCELLED;\n        locked = false;\n    }\n\n    function receiveFirstMonthRent(string tenantEmail) payable public\n        ownerOnly()\n        offerExists(tenantEmail)\n        offerInStatus(OfferStatus.ACCEPTED, tenantEmail)\n        agreementInStatus(AgreementStatus.TENANT_SIGNED, tenantEmail)\n    {\n        tenantAgreementMap[tenantEmail].status = AgreementStatus.COMPLETED;\n    }\n}\n",
  "sourcePath": "/Users/Indrek/Ulikool/Thesis/blockchain-real-estate-baseline/ethereum/contracts/EnlistmentToContract.sol",
  "compiler": {
    "name": "solc",
    "version": "0.4.19+commit.c4cbbb05.Emscripten.clang"
  },
  "schemaVersion": "1.0.1",
  "updatedAt": "2018-04-27T23:24:37.624Z"
}