{
  "contractName": "Enlistment",
  "abi": [
    {
      "constant": true,
      "inputs": [],
      "name": "locked",
      "outputs": [
        {
          "name": "",
          "type": "bool"
        }
      ],
      "payable": false,
      "stateMutability": "view",
      "type": "function"
    },
    {
      "inputs": [
        {
          "name": "landlordEmail",
          "type": "string"
        },
        {
          "name": "landlordName",
          "type": "string"
        },
        {
          "name": "streetName",
          "type": "string"
        },
        {
          "name": "floorNr",
          "type": "uint256"
        },
        {
          "name": "apartmentNr",
          "type": "uint256"
        },
        {
          "name": "houseNr",
          "type": "uint256"
        },
        {
          "name": "postalCode",
          "type": "uint256"
        }
      ],
      "payable": false,
      "stateMutability": "nonpayable",
      "type": "constructor"
    },
    {
      "constant": true,
      "inputs": [],
      "name": "getOwner",
      "outputs": [
        {
          "name": "",
          "type": "address"
        }
      ],
      "payable": false,
      "stateMutability": "view",
      "type": "function"
    },
    {
      "constant": true,
      "inputs": [],
      "name": "getLandlord",
      "outputs": [
        {
          "name": "",
          "type": "string"
        },
        {
          "name": "",
          "type": "string"
        }
      ],
      "payable": false,
      "stateMutability": "view",
      "type": "function"
    },
    {
      "constant": true,
      "inputs": [],
      "name": "getEnlistment",
      "outputs": [
        {
          "name": "",
          "type": "string"
        },
        {
          "name": "",
          "type": "string"
        },
        {
          "name": "",
          "type": "string"
        },
        {
          "name": "",
          "type": "uint256"
        },
        {
          "name": "",
          "type": "uint256"
        },
        {
          "name": "",
          "type": "uint256"
        },
        {
          "name": "",
          "type": "uint256"
        }
      ],
      "payable": false,
      "stateMutability": "view",
      "type": "function"
    },
    {
      "constant": false,
      "inputs": [
        {
          "name": "amount",
          "type": "uint256"
        },
        {
          "name": "tenantName",
          "type": "string"
        },
        {
          "name": "tenantEmail",
          "type": "string"
        }
      ],
      "name": "sendOffer",
      "outputs": [],
      "payable": true,
      "stateMutability": "payable",
      "type": "function"
    },
    {
      "constant": false,
      "inputs": [
        {
          "name": "tenantEmail",
          "type": "string"
        }
      ],
      "name": "cancelOffer",
      "outputs": [],
      "payable": true,
      "stateMutability": "payable",
      "type": "function"
    },
    {
      "constant": true,
      "inputs": [
        {
          "name": "tenantEmail",
          "type": "string"
        }
      ],
      "name": "getOffer",
      "outputs": [
        {
          "name": "",
          "type": "bool"
        },
        {
          "name": "",
          "type": "uint256"
        },
        {
          "name": "",
          "type": "string"
        },
        {
          "name": "",
          "type": "string"
        },
        {
          "name": "",
          "type": "uint8"
        }
      ],
      "payable": false,
      "stateMutability": "view",
      "type": "function"
    },
    {
      "constant": false,
      "inputs": [
        {
          "name": "result",
          "type": "bool"
        },
        {
          "name": "tenantEmail",
          "type": "string"
        }
      ],
      "name": "reviewOffer",
      "outputs": [],
      "payable": true,
      "stateMutability": "payable",
      "type": "function"
    },
    {
      "constant": false,
      "inputs": [
        {
          "name": "tenantEmail",
          "type": "string"
        },
        {
          "name": "landlordName",
          "type": "string"
        },
        {
          "name": "agreementTenantName",
          "type": "string"
        },
        {
          "name": "agreementTenantEmail",
          "type": "string"
        },
        {
          "name": "leaseStart",
          "type": "uint256"
        },
        {
          "name": "handoverDate",
          "type": "uint256"
        },
        {
          "name": "leasePeriod",
          "type": "uint256"
        },
        {
          "name": "otherTerms",
          "type": "string"
        },
        {
          "name": "hash",
          "type": "string"
        }
      ],
      "name": "submitDraft",
      "outputs": [],
      "payable": true,
      "stateMutability": "payable",
      "type": "function"
    },
    {
      "constant": true,
      "inputs": [
        {
          "name": "tenantEmail",
          "type": "string"
        }
      ],
      "name": "getAgreementParticipants",
      "outputs": [
        {
          "name": "",
          "type": "string"
        },
        {
          "name": "",
          "type": "string"
        },
        {
          "name": "",
          "type": "string"
        }
      ],
      "payable": false,
      "stateMutability": "view",
      "type": "function"
    },
    {
      "constant": true,
      "inputs": [
        {
          "name": "tenantEmail",
          "type": "string"
        }
      ],
      "name": "getAgreementDetails",
      "outputs": [
        {
          "name": "",
          "type": "uint256"
        },
        {
          "name": "",
          "type": "uint256"
        },
        {
          "name": "",
          "type": "uint256"
        },
        {
          "name": "",
          "type": "uint256"
        },
        {
          "name": "",
          "type": "string"
        }
      ],
      "payable": false,
      "stateMutability": "view",
      "type": "function"
    },
    {
      "constant": true,
      "inputs": [
        {
          "name": "tenantEmail",
          "type": "string"
        }
      ],
      "name": "getAgreementHashes",
      "outputs": [
        {
          "name": "",
          "type": "string"
        },
        {
          "name": "",
          "type": "string"
        },
        {
          "name": "",
          "type": "string"
        }
      ],
      "payable": false,
      "stateMutability": "view",
      "type": "function"
    },
    {
      "constant": true,
      "inputs": [
        {
          "name": "tenantEmail",
          "type": "string"
        }
      ],
      "name": "getAgreementStatus",
      "outputs": [
        {
          "name": "",
          "type": "uint8"
        }
      ],
      "payable": false,
      "stateMutability": "view",
      "type": "function"
    },
    {
      "constant": false,
      "inputs": [
        {
          "name": "tenantEmail",
          "type": "string"
        },
        {
          "name": "result",
          "type": "bool"
        }
      ],
      "name": "reviewAgreement",
      "outputs": [],
      "payable": true,
      "stateMutability": "payable",
      "type": "function"
    },
    {
      "constant": false,
      "inputs": [
        {
          "name": "tenantEmail",
          "type": "string"
        },
        {
          "name": "landlordSignedHash",
          "type": "string"
        }
      ],
      "name": "landlordSignAgreement",
      "outputs": [],
      "payable": true,
      "stateMutability": "payable",
      "type": "function"
    },
    {
      "constant": false,
      "inputs": [
        {
          "name": "tenantEmail",
          "type": "string"
        },
        {
          "name": "tenantSignedHash",
          "type": "string"
        }
      ],
      "name": "tenantSignAgreement",
      "outputs": [],
      "payable": true,
      "stateMutability": "payable",
      "type": "function"
    },
    {
      "constant": false,
      "inputs": [
        {
          "name": "tenantEmail",
          "type": "string"
        }
      ],
      "name": "cancelAgreement",
      "outputs": [],
      "payable": true,
      "stateMutability": "payable",
      "type": "function"
    },
    {
      "constant": false,
      "inputs": [
        {
          "name": "tenantEmail",
          "type": "string"
        }
      ],
      "name": "receiveFirstMonthRent",
      "outputs": [],
      "payable": true,
      "stateMutability": "payable",
      "type": "function"
    }
  ],
  "bytecode": "0x606060405260008060146101000a81548160ff02191690831515021790555034156200002a57600080fd5b6040516200415c3803806200415c8339810160405280805182019190602001805182019190602001805182019190602001805190602001909190805190602001909190805190602001909190805190602001909190505060e0604051908101604052808881526020018781526020018681526020018581526020018481526020018381526020018281525060016000820151816000019080519060200190620000d59291906200018c565b506020820151816001019080519060200190620000f49291906200018c565b506040820151816002019080519060200190620001139291906200018c565b50606082015181600301556080820151816004015560a0820151816005015560c08201518160060155905050336000806101000a81548173ffffffffffffffffffffffffffffffffffffffff021916908373ffffffffffffffffffffffffffffffffffffffff160217905550505050505050506200023b565b828054600181600116156101000203166002900490600052602060002090601f016020900481019282601f10620001cf57805160ff191683800117855562000200565b8280016001018555821562000200579182015b82811115620001ff578251825591602001919060010190620001e2565b5b5090506200020f919062000213565b5090565b6200023891905b80821115620002345760008160009055506001016200021a565b5090565b90565b613f11806200024b6000396000f3006060604052600436106100fb576000357c0100000000000000000000000000000000000000000000000000000000900463ffffffff168062ff22c61461010057806303746e0614610195578063222a7af91461022a578063265adc33146103e65780632d63ce27146104d85780632fcc176d1461052a57806331ae8ed0146105875780634d45780e14610709578063673a95ef1461075b57806371ca1587146107b85780637a51011614610966578063893d20e814610acf578063a578945c14610b24578063cf30901214610bc2578063d441a15214610bef578063ec2b2a1214610d9d578063f278f78414610e1c578063f502236d14610e6e575b600080fd5b610193600480803590602001908201803590602001908080601f0160208091040260200160405190810160405280939291908181526020018383808284378201915050505050509190803590602001908201803590602001908080601f01602080910402602001604051908101604052809392919081815260200183838082843782019150505050505091905050610f68565b005b610228600480803590602001908201803590602001908080601f0160208091040260200160405190810160405280939291908181526020018383808284378201915050505050509190803590602001908201803590602001908080601f016020809104026020016040519081016040528093929190818152602001838380828437820191505050505050919050506112b2565b005b6103e4600480803590602001908201803590602001908080601f0160208091040260200160405190810160405280939291908181526020018383808284378201915050505050509190803590602001908201803590602001908080601f0160208091040260200160405190810160405280939291908181526020018383808284378201915050505050509190803590602001908201803590602001908080601f0160208091040260200160405190810160405280939291908181526020018383808284378201915050505050509190803590602001908201803590602001908080601f0160208091040260200160405190810160405280939291908181526020018383808284378201915050505050509190803590602001909190803590602001909190803590602001909190803590602001908201803590602001908080601f0160208091040260200160405190810160405280939291908181526020018383808284378201915050505050509190803590602001908201803590602001908080601f01602080910402602001604051908101604052809392919081815260200183838082843782019150505050505091905050611633565b005b34156103f157600080fd5b610441600480803590602001908201803590602001908080601f01602080910402602001604051908101604052809392919081815260200183838082843782019150505050505091905050611c28565b6040518086815260200185815260200184815260200183815260200180602001828103825283818151815260200191508051906020019080838360005b8381101561049957808201518184015260208101905061047e565b50505050905090810190601f1680156104c65780820380516001836020036101000a031916815260200191505b50965050505050505060405180910390f35b610528600480803590602001908201803590602001908080601f01602080910402602001604051908101604052809392919081815260200183838082843782019150505050505091905050611dc8565b005b6105856004808035151590602001909190803590602001908201803590602001908080601f0160208091040260200160405190810160405280939291908181526020018383808284378201915050505050509190505061223b565b005b341561059257600080fd5b61059a61246b565b6040518080602001806020018060200188815260200187815260200186815260200185815260200184810384528b818151815260200191508051906020019080838360005b838110156105fa5780820151818401526020810190506105df565b50505050905090810190601f1680156106275780820380516001836020036101000a031916815260200191505b5084810383528a818151815260200191508051906020019080838360005b83811015610660578082015181840152602081019050610645565b50505050905090810190601f16801561068d5780820380516001836020036101000a031916815260200191505b50848103825289818151815260200191508051906020019080838360005b838110156106c65780820151818401526020810190506106ab565b50505050905090810190601f1680156106f35780820380516001836020036101000a031916815260200191505b509a505050505050505050505060405180910390f35b610759600480803590602001908201803590602001908080601f016020809104026020016040519081016040528093929190818152602001838380828437820191505050505050919050506126f5565b005b6107b6600480803590602001908201803590602001908080601f0160208091040260200160405190810160405280939291908181526020018383808284378201915050505050509190803515159060200190919050506129bb565b005b34156107c357600080fd5b610813600480803590602001908201803590602001908080601f01602080910402602001604051908101604052809392919081815260200183838082843782019150505050505091905050612c8f565b60405180806020018060200180602001848103845287818151815260200191508051906020019080838360005b8381101561085b578082015181840152602081019050610840565b50505050905090810190601f1680156108885780820380516001836020036101000a031916815260200191505b50848103835286818151815260200191508051906020019080838360005b838110156108c15780820151818401526020810190506108a6565b50505050905090810190601f1680156108ee5780820380516001836020036101000a031916815260200191505b50848103825285818151815260200191508051906020019080838360005b8381101561092757808201518184015260208101905061090c565b50505050905090810190601f1680156109545780820380516001836020036101000a031916815260200191505b50965050505050505060405180910390f35b341561097157600080fd5b6109c1600480803590602001908201803590602001908080601f01602080910402602001604051908101604052809392919081815260200183838082843782019150505050505091905050612f5f565b604051808615151515815260200185815260200180602001806020018460038111156109e957fe5b60ff168152602001838103835286818151815260200191508051906020019080838360005b83811015610a29578082015181840152602081019050610a0e565b50505050905090810190601f168015610a565780820380516001836020036101000a031916815260200191505b50838103825285818151815260200191508051906020019080838360005b83811015610a8f578082015181840152602081019050610a74565b50505050905090810190601f168015610abc5780820380516001836020036101000a031916815260200191505b5097505050505050505060405180910390f35b3415610ada57600080fd5b610ae26131ba565b604051808273ffffffffffffffffffffffffffffffffffffffff1673ffffffffffffffffffffffffffffffffffffffff16815260200191505060405180910390f35b610bc0600480803590602001909190803590602001908201803590602001908080601f0160208091040260200160405190810160405280939291908181526020018383808284378201915050505050509190803590602001908201803590602001908080601f0160208091040260200160405190810160405280939291908181526020018383808284378201915050505050509190505061323e565b005b3415610bcd57600080fd5b610bd56135c0565b604051808215151515815260200191505060405180910390f35b3415610bfa57600080fd5b610c4a600480803590602001908201803590602001908080601f016020809104026020016040519081016040528093929190818152602001838380828437820191505050505050919050506135d3565b60405180806020018060200180602001848103845287818151815260200191508051906020019080838360005b83811015610c92578082015181840152602081019050610c77565b50505050905090810190601f168015610cbf5780820380516001836020036101000a031916815260200191505b50848103835286818151815260200191508051906020019080838360005b83811015610cf8578082015181840152602081019050610cdd565b50505050905090810190601f168015610d255780820380516001836020036101000a031916815260200191505b50848103825285818151815260200191508051906020019080838360005b83811015610d5e578082015181840152602081019050610d43565b50505050905090810190601f168015610d8b5780820380516001836020036101000a031916815260200191505b50965050505050505060405180910390f35b3415610da857600080fd5b610df8600480803590602001908201803590602001908080601f016020809104026020016040519081016040528093929190818152602001838380828437820191505050505050919050506138a3565b60405180826007811115610e0857fe5b60ff16815260200191505060405180910390f35b610e6c600480803590602001908201803590602001908080601f01602080910402602001604051908101604052809392919081815260200183838082843782019150505050505091905050613988565b005b3415610e7957600080fd5b610e81613b9b565b604051808060200180602001838103835285818151815260200191508051906020019080838360005b83811015610ec5578082015181840152602081019050610eaa565b50505050905090810190601f168015610ef25780820380516001836020036101000a031916815260200191505b50838103825284818151815260200191508051906020019080838360005b83811015610f2b578082015181840152602081019050610f10565b50505050905090810190601f168015610f585780820380516001836020036101000a031916815260200191505b5094505050505060405180910390f35b6000809054906101000a900473ffffffffffffffffffffffffffffffffffffffff1673ffffffffffffffffffffffffffffffffffffffff163373ffffffffffffffffffffffffffffffffffffffff16141515610fc357600080fd5b81600115156008826040518082805190602001908083835b6020831015156110005780518252602082019150602081019050602083039250610fdb565b6001836020036101000a038019825116818451168082178552505050505050905001915050908152602001604051809103902060000160009054906101000a900460ff16151514151561105257600080fd5b60038381600381111561106157fe5b6008826040518082805190602001908083835b6020831015156110995780518252602082019150602081019050602083039250611074565b6001836020036101000a038019825116818451168082178552505050505050905001915050908152602001604051809103902060040160009054906101000a900460ff1660038111156110e857fe5b1415156110f457600080fd5b60058581600781111561110357fe5b6009826040518082805190602001908083835b60208310151561113b5780518252602082019150602081019050602083039250611116565b6001836020036101000a0380198251168184511680821785525050505050509050019150509081526020016040518091039020600b0160009054906101000a900460ff16600781111561118a57fe5b14151561119657600080fd5b856009886040518082805190602001908083835b6020831015156111cf57805182526020820191506020810190506020830392506111aa565b6001836020036101000a0380198251168184511680821785525050505050509050019150509081526020016040518091039020600a019080519060200190611218929190613d4f565b5060066009886040518082805190602001908083835b602083101515611253578051825260208201915060208101905060208303925061122e565b6001836020036101000a0380198251168184511680821785525050505050509050019150509081526020016040518091039020600b0160006101000a81548160ff021916908360078111156112a457fe5b021790555050505050505050565b6000809054906101000a900473ffffffffffffffffffffffffffffffffffffffff1673ffffffffffffffffffffffffffffffffffffffff163373ffffffffffffffffffffffffffffffffffffffff1614151561130d57600080fd5b600060149054906101000a900460ff1615151561132957600080fd5b81600115156008826040518082805190602001908083835b6020831015156113665780518252602082019150602081019050602083039250611341565b6001836020036101000a038019825116818451168082178552505050505050905001915050908152602001604051809103902060000160009054906101000a900460ff1615151415156113b857600080fd5b6003838160038111156113c757fe5b6008826040518082805190602001908083835b6020831015156113ff57805182526020820191506020810190506020830392506113da565b6001836020036101000a038019825116818451168082178552505050505050905001915050908152602001604051809103902060040160009054906101000a900460ff16600381111561144e57fe5b14151561145a57600080fd5b60038581600781111561146957fe5b6009826040518082805190602001908083835b6020831015156114a1578051825260208201915060208101905060208303925061147c565b6001836020036101000a0380198251168184511680821785525050505050509050019150509081526020016040518091039020600b0160009054906101000a900460ff1660078111156114f057fe5b1415156114fc57600080fd5b856009886040518082805190602001908083835b6020831015156115355780518252602082019150602081019050602083039250611510565b6001836020036101000a0380198251168184511680821785525050505050509050019150509081526020016040518091039020600901908051906020019061157e929190613d4f565b5060056009886040518082805190602001908083835b6020831015156115b95780518252602082019150602081019050602083039250611594565b6001836020036101000a0380198251168184511680821785525050505050509050019150509081526020016040518091039020600b0160006101000a81548160ff0219169083600781111561160a57fe5b02179055506001600060146101000a81548160ff02191690831515021790555050505050505050565b60008060009054906101000a900473ffffffffffffffffffffffffffffffffffffffff1673ffffffffffffffffffffffffffffffffffffffff163373ffffffffffffffffffffffffffffffffffffffff1614151561169057600080fd5b89600115156008826040518082805190602001908083835b6020831015156116cd57805182526020820191506020810190506020830392506116a8565b6001836020036101000a038019825116818451168082178552505050505050905001915050908152602001604051809103902060000160009054906101000a900460ff16151514151561171f57600080fd5b60038b81600381111561172e57fe5b6008826040518082805190602001908083835b6020831015156117665780518252602082019150602081019050602083039250611741565b6001836020036101000a038019825116818451168082178552505050505050905001915050908152602001604051809103902060040160009054906101000a900460ff1660038111156117b557fe5b1415156117c157600080fd5b8c600060078111156117cf57fe5b6009826040518082805190602001908083835b60208310151561180757805182526020820191506020810190506020830392506117e2565b6001836020036101000a0380198251168184511680821785525050505050509050019150509081526020016040518091039020600b0160009054906101000a900460ff16600781111561185657fe5b14806118f357506002600781111561186a57fe5b6009826040518082805190602001908083835b6020831015156118a2578051825260208201915060208101905060208303925061187d565b6001836020036101000a0380198251168184511680821785525050505050509050019150509081526020016040518091039020600b0160009054906101000a900460ff1660078111156118f157fe5b145b8061198f57506004600781111561190657fe5b6009826040518082805190602001908083835b60208310151561193e5780518252602082019150602081019050602083039250611919565b6001836020036101000a0380198251168184511680821785525050505050509050019150509081526020016040518091039020600b0160009054906101000a900460ff16600781111561198d57fe5b145b151561199a57600080fd5b60088e6040518082805190602001908083835b6020831015156119d257805182526020820191506020810190506020830392506119ad565b6001836020036101000a0380198251168184511680821785525050505050509050019150509081526020016040518091039020600101549450610180604051908101604052808e81526020018d81526020018c81526020018681526020018b81526020018a8152602001898152602001888152602001878152602001602060405190810160405280600081525081526020016020604051908101604052806000815250815260200160016007811115611a8757fe5b81525060098f6040518082805190602001908083835b602083101515611ac25780518252602082019150602081019050602083039250611a9d565b6001836020036101000a03801982511681845116808217855250505050505090500191505090815260200160405180910390206000820151816000019080519060200190611b11929190613dcf565b506020820151816001019080519060200190611b2e929190613dcf565b506040820151816002019080519060200190611b4b929190613dcf565b50606082015181600301556080820151816004015560a0820151816005015560c0820151816006015560e0820151816007019080519060200190611b90929190613dcf565b50610100820151816008019080519060200190611bae929190613dcf565b50610120820151816009019080519060200190611bcc929190613dcf565b5061014082015181600a019080519060200190611bea929190613dcf565b5061016082015181600b0160006101000a81548160ff02191690836007811115611c1057fe5b02179055509050505050505050505050505050505050565b600080600080611c36613e4f565b60008060009054906101000a900473ffffffffffffffffffffffffffffffffffffffff1673ffffffffffffffffffffffffffffffffffffffff163373ffffffffffffffffffffffffffffffffffffffff16141515611c9357600080fd5b6009876040518082805190602001908083835b602083101515611ccb5780518252602082019150602081019050602083039250611ca6565b6001836020036101000a03801982511681845116808217855250505050505090500191505090815260200160405180910390209050806003015481600401548260050154836006015484600701808054600181600116156101000203166002900480601f016020809104026020016040519081016040528092919081815260200182805460018160011615610100020316600290048015611dad5780601f10611d8257610100808354040283529160200191611dad565b820191906000526020600020905b815481529060010190602001808311611d9057829003601f168201915b50505050509050955095509550955095505091939590929450565b6000809054906101000a900473ffffffffffffffffffffffffffffffffffffffff1673ffffffffffffffffffffffffffffffffffffffff163373ffffffffffffffffffffffffffffffffffffffff16141515611e2357600080fd5b80600115156008826040518082805190602001908083835b602083101515611e605780518252602082019150602081019050602083039250611e3b565b6001836020036101000a038019825116818451168082178552505050505050905001915050908152602001604051809103902060000160009054906101000a900460ff161515141515611eb257600080fd5b816000806008836040518082805190602001908083835b602083101515611eee5780518252602082019150602081019050602083039250611ec9565b6001836020036101000a038019825116818451168082178552505050505050905001915050908152602001604051809103902060040160009054906101000a900460ff16915060006003811115611f4157fe5b826003811115611f4d57fe5b1480611f6e5750600380811115611f6057fe5b826003811115611f6c57fe5b145b1515611f7957600080fd5b6009836040518082805190602001908083835b602083101515611fb15780518252602082019150602081019050602083039250611f8c565b6001836020036101000a0380198251168184511680821785525050505050509050019150509081526020016040518091039020600b0160009054906101000a900460ff1690506004600781111561200457fe5b81600781111561201057fe5b148061203257506006600781111561202457fe5b81600781111561203057fe5b145b80612052575060078081111561204457fe5b81600781111561205057fe5b145b15151561205e57600080fd5b60026008866040518082805190602001908083835b6020831015156120985780518252602082019150602081019050602083039250612073565b6001836020036101000a038019825116818451168082178552505050505050905001915050908152602001604051809103902060040160006101000a81548160ff021916908360038111156120e957fe5b0217905550600060078111156120fb57fe5b6009866040518082805190602001908083835b602083101515612133578051825260208201915060208101905060208303925061210e565b6001836020036101000a0380198251168184511680821785525050505050509050019150509081526020016040518091039020600b0160009054906101000a900460ff16600781111561218257fe5b14151561221a5760046009866040518082805190602001908083835b6020831015156121c3578051825260208201915060208101905060208303925061219e565b6001836020036101000a0380198251168184511680821785525050505050509050019150509081526020016040518091039020600b0160006101000a81548160ff0219169083600781111561221457fe5b02179055505b60008060146101000a81548160ff0219169083151502179055505050505050565b6000809054906101000a900473ffffffffffffffffffffffffffffffffffffffff1673ffffffffffffffffffffffffffffffffffffffff163373ffffffffffffffffffffffffffffffffffffffff1614151561229657600080fd5b80600115156008826040518082805190602001908083835b6020831015156122d357805182526020820191506020810190506020830392506122ae565b6001836020036101000a038019825116818451168082178552505050505050905001915050908152602001604051809103902060000160009054906101000a900460ff16151514151561232557600080fd5b60008281600381111561233457fe5b6008826040518082805190602001908083835b60208310151561236c5780518252602082019150602081019050602083039250612347565b6001836020036101000a038019825116818451168082178552505050505050905001915050908152602001604051809103902060040160009054906101000a900460ff1660038111156123bb57fe5b1415156123c757600080fd5b846123d35760016123d6565b60035b6008856040518082805190602001908083835b60208310151561240e57805182526020820191506020810190506020830392506123e9565b6001836020036101000a038019825116818451168082178552505050505050905001915050908152602001604051809103902060040160006101000a81548160ff0219169083600381111561245f57fe5b02179055505050505050565b612473613e4f565b61247b613e4f565b612483613e4f565b6000806000806000809054906101000a900473ffffffffffffffffffffffffffffffffffffffff1673ffffffffffffffffffffffffffffffffffffffff163373ffffffffffffffffffffffffffffffffffffffff161415156124e457600080fd5b6001600001600180016001600201600160030154600160040154600160050154600160060154868054600181600116156101000203166002900480601f01602080910402602001604051908101604052809291908181526020018280546001816001161561010002031660029004801561259f5780601f106125745761010080835404028352916020019161259f565b820191906000526020600020905b81548152906001019060200180831161258257829003601f168201915b50505050509650858054600181600116156101000203166002900480601f01602080910402602001604051908101604052809291908181526020018280546001816001161561010002031660029004801561263b5780601f106126105761010080835404028352916020019161263b565b820191906000526020600020905b81548152906001019060200180831161261e57829003601f168201915b50505050509550848054600181600116156101000203166002900480601f0160208091040260200160405190810160405280929190818152602001828054600181600116156101000203166002900480156126d75780601f106126ac576101008083540402835291602001916126d7565b820191906000526020600020905b8154815290600101906020018083116126ba57829003601f168201915b50505050509450965096509650965096509650965090919293949596565b6000809054906101000a900473ffffffffffffffffffffffffffffffffffffffff1673ffffffffffffffffffffffffffffffffffffffff163373ffffffffffffffffffffffffffffffffffffffff1614151561275057600080fd5b80600115156008826040518082805190602001908083835b60208310151561278d5780518252602082019150602081019050602083039250612768565b6001836020036101000a038019825116818451168082178552505050505050905001915050908152602001604051809103902060000160009054906101000a900460ff1615151415156127df57600080fd5b6003828160038111156127ee57fe5b6008826040518082805190602001908083835b6020831015156128265780518252602082019150602081019050602083039250612801565b6001836020036101000a038019825116818451168082178552505050505050905001915050908152602001604051809103902060040160009054906101000a900460ff16600381111561287557fe5b14151561288157600080fd5b60068481600781111561289057fe5b6009826040518082805190602001908083835b6020831015156128c857805182526020820191506020810190506020830392506128a3565b6001836020036101000a0380198251168184511680821785525050505050509050019150509081526020016040518091039020600b0160009054906101000a900460ff16600781111561291757fe5b14151561292357600080fd5b60076009876040518082805190602001908083835b60208310151561295d5780518252602082019150602081019050602083039250612938565b6001836020036101000a0380198251168184511680821785525050505050509050019150509081526020016040518091039020600b0160006101000a81548160ff021916908360078111156129ae57fe5b0217905550505050505050565b6000809054906101000a900473ffffffffffffffffffffffffffffffffffffffff1673ffffffffffffffffffffffffffffffffffffffff163373ffffffffffffffffffffffffffffffffffffffff16141515612a1657600080fd5b81600115156008826040518082805190602001908083835b602083101515612a535780518252602082019150602081019050602083039250612a2e565b6001836020036101000a038019825116818451168082178552505050505050905001915050908152602001604051809103902060000160009054906101000a900460ff161515141515612aa557600080fd5b600383816003811115612ab457fe5b6008826040518082805190602001908083835b602083101515612aec5780518252602082019150602081019050602083039250612ac7565b6001836020036101000a038019825116818451168082178552505050505050905001915050908152602001604051809103902060040160009054906101000a900460ff166003811115612b3b57fe5b141515612b4757600080fd5b600185816007811115612b5657fe5b6009826040518082805190602001908083835b602083101515612b8e5780518252602082019150602081019050602083039250612b69565b6001836020036101000a0380198251168184511680821785525050505050509050019150509081526020016040518091039020600b0160009054906101000a900460ff166007811115612bdd57fe5b141515612be957600080fd5b85612bf5576002612bf8565b60035b6009886040518082805190602001908083835b602083101515612c305780518252602082019150602081019050602083039250612c0b565b6001836020036101000a0380198251168184511680821785525050505050509050019150509081526020016040518091039020600b0160006101000a81548160ff02191690836007811115612c8157fe5b021790555050505050505050565b612c97613e4f565b612c9f613e4f565b612ca7613e4f565b60008060009054906101000a900473ffffffffffffffffffffffffffffffffffffffff1673ffffffffffffffffffffffffffffffffffffffff163373ffffffffffffffffffffffffffffffffffffffff16141515612d0457600080fd5b6009856040518082805190602001908083835b602083101515612d3c5780518252602082019150602081019050602083039250612d17565b6001836020036101000a03801982511681845116808217855250505050505090500191505090815260200160405180910390209050806000018160010182600201828054600181600116156101000203166002900480601f016020809104026020016040519081016040528092919081815260200182805460018160011615610100020316600290048015612e125780601f10612de757610100808354040283529160200191612e12565b820191906000526020600020905b815481529060010190602001808311612df557829003601f168201915b50505050509250818054600181600116156101000203166002900480601f016020809104026020016040519081016040528092919081815260200182805460018160011615610100020316600290048015612eae5780601f10612e8357610100808354040283529160200191612eae565b820191906000526020600020905b815481529060010190602001808311612e9157829003601f168201915b50505050509150808054600181600116156101000203166002900480601f016020809104026020016040519081016040528092919081815260200182805460018160011615610100020316600290048015612f4a5780601f10612f1f57610100808354040283529160200191612f4a565b820191906000526020600020905b815481529060010190602001808311612f2d57829003601f168201915b50505050509050935093509350509193909250565b600080612f6a613e4f565b612f72613e4f565b6000806000809054906101000a900473ffffffffffffffffffffffffffffffffffffffff1673ffffffffffffffffffffffffffffffffffffffff163373ffffffffffffffffffffffffffffffffffffffff16141515612fd057600080fd5b6008876040518082805190602001908083835b6020831015156130085780518252602082019150602081019050602083039250612fe3565b6001836020036101000a038019825116818451168082178552505050505050905001915050908152602001604051809103902090508060000160009054906101000a900460ff16816001015482600201836003018460040160009054906101000a900460ff16828054600181600116156101000203166002900480601f0160208091040260200160405190810160405280929190818152602001828054600181600116156101000203166002900480156131035780601f106130d857610100808354040283529160200191613103565b820191906000526020600020905b8154815290600101906020018083116130e657829003601f168201915b50505050509250818054600181600116156101000203166002900480601f01602080910402602001604051908101604052809291908181526020018280546001816001161561010002031660029004801561319f5780601f106131745761010080835404028352916020019161319f565b820191906000526020600020905b81548152906001019060200180831161318257829003601f168201915b50505050509150955095509550955095505091939590929450565b60008060009054906101000a900473ffffffffffffffffffffffffffffffffffffffff1673ffffffffffffffffffffffffffffffffffffffff163373ffffffffffffffffffffffffffffffffffffffff1614151561321757600080fd5b6000809054906101000a900473ffffffffffffffffffffffffffffffffffffffff16905090565b613246613e63565b6000809054906101000a900473ffffffffffffffffffffffffffffffffffffffff1673ffffffffffffffffffffffffffffffffffffffff163373ffffffffffffffffffffffffffffffffffffffff161415156132a157600080fd5b81600015156008826040518082805190602001908083835b6020831015156132de57805182526020820191506020810190506020830392506132b9565b6001836020036101000a038019825116818451168082178552505050505050905001915050908152602001604051809103902060000160009054906101000a900460ff16151514806133c157506001600381111561333857fe5b6008826040518082805190602001908083835b602083101515613370578051825260208201915060208101905060208303925061334b565b6001836020036101000a038019825116818451168082178552505050505050905001915050908152602001604051809103902060040160009054906101000a900460ff1660038111156133bf57fe5b145b8061345d5750600260038111156133d457fe5b6008826040518082805190602001908083835b60208310151561340c57805182526020820191506020810190506020830392506133e7565b6001836020036101000a038019825116818451168082178552505050505050905001915050908152602001604051809103902060040160009054906101000a900460ff16600381111561345b57fe5b145b151561346857600080fd5b600060149054906101000a900460ff1615151561348457600080fd5b60a060405190810160405280600115158152602001868152602001858152602001848152602001600060038111156134b857fe5b8152509150816008846040518082805190602001908083835b6020831015156134f657805182526020820191506020810190506020830392506134d1565b6001836020036101000a038019825116818451168082178552505050505050905001915050908152602001604051809103902060008201518160000160006101000a81548160ff02191690831515021790555060208201518160010155604082015181600201908051906020019061356f929190613dcf565b50606082015181600301908051906020019061358c929190613dcf565b5060808201518160040160006101000a81548160ff021916908360038111156135b157fe5b02179055509050505050505050565b600060149054906101000a900460ff1681565b6135db613e4f565b6135e3613e4f565b6135eb613e4f565b60008060009054906101000a900473ffffffffffffffffffffffffffffffffffffffff1673ffffffffffffffffffffffffffffffffffffffff163373ffffffffffffffffffffffffffffffffffffffff1614151561364857600080fd5b6009856040518082805190602001908083835b602083101515613680578051825260208201915060208101905060208303925061365b565b6001836020036101000a03801982511681845116808217855250505050505090500191505090815260200160405180910390209050806008018160090182600a01828054600181600116156101000203166002900480601f0160208091040260200160405190810160405280929190818152602001828054600181600116156101000203166002900480156137565780601f1061372b57610100808354040283529160200191613756565b820191906000526020600020905b81548152906001019060200180831161373957829003601f168201915b50505050509250818054600181600116156101000203166002900480601f0160208091040260200160405190810160405280929190818152602001828054600181600116156101000203166002900480156137f25780601f106137c7576101008083540402835291602001916137f2565b820191906000526020600020905b8154815290600101906020018083116137d557829003601f168201915b50505050509150808054600181600116156101000203166002900480601f01602080910402602001604051908101604052809291908181526020018280546001816001161561010002031660029004801561388e5780601f106138635761010080835404028352916020019161388e565b820191906000526020600020905b81548152906001019060200180831161387157829003601f168201915b50505050509050935093509350509193909250565b6000806000809054906101000a900473ffffffffffffffffffffffffffffffffffffffff1673ffffffffffffffffffffffffffffffffffffffff163373ffffffffffffffffffffffffffffffffffffffff1614151561390157600080fd5b6009836040518082805190602001908083835b6020831015156139395780518252602082019150602081019050602083039250613914565b6001836020036101000a0380198251168184511680821785525050505050509050019150509081526020016040518091039020905080600b0160009054906101000a900460ff16915050919050565b6000809054906101000a900473ffffffffffffffffffffffffffffffffffffffff1673ffffffffffffffffffffffffffffffffffffffff163373ffffffffffffffffffffffffffffffffffffffff161415156139e357600080fd5b8060006009826040518082805190602001908083835b602083101515613a1e57805182526020820191506020810190506020830392506139f9565b6001836020036101000a0380198251168184511680821785525050505050509050019150509081526020016040518091039020600b0160009054906101000a900460ff16905060046007811115613a7157fe5b816007811115613a7d57fe5b1480613a9f575060066007811115613a9157fe5b816007811115613a9d57fe5b145b80613abf5750600780811115613ab157fe5b816007811115613abd57fe5b145b80613ae0575060026007811115613ad257fe5b816007811115613ade57fe5b145b151515613aec57600080fd5b60046009846040518082805190602001908083835b602083101515613b265780518252602082019150602081019050602083039250613b01565b6001836020036101000a0380198251168184511680821785525050505050509050019150509081526020016040518091039020600b0160006101000a81548160ff02191690836007811115613b7757fe5b021790555060008060146101000a81548160ff021916908315150217905550505050565b613ba3613e4f565b613bab613e4f565b6000809054906101000a900473ffffffffffffffffffffffffffffffffffffffff1673ffffffffffffffffffffffffffffffffffffffff163373ffffffffffffffffffffffffffffffffffffffff16141515613c0657600080fd5b600160000160018001818054600181600116156101000203166002900480601f016020809104026020016040519081016040528092919081815260200182805460018160011615610100020316600290048015613ca45780601f10613c7957610100808354040283529160200191613ca4565b820191906000526020600020905b815481529060010190602001808311613c8757829003601f168201915b50505050509150808054600181600116156101000203166002900480601f016020809104026020016040519081016040528092919081815260200182805460018160011615610100020316600290048015613d405780601f10613d1557610100808354040283529160200191613d40565b820191906000526020600020905b815481529060010190602001808311613d2357829003601f168201915b50505050509050915091509091565b828054600181600116156101000203166002900490600052602060002090601f016020900481019282601f10613d9057805160ff1916838001178555613dbe565b82800160010185558215613dbe579182015b82811115613dbd578251825591602001919060010190613da2565b5b509050613dcb9190613eac565b5090565b828054600181600116156101000203166002900490600052602060002090601f016020900481019282601f10613e1057805160ff1916838001178555613e3e565b82800160010185558215613e3e579182015b82811115613e3d578251825591602001919060010190613e22565b5b509050613e4b9190613eac565b5090565b602060405190810160405280600081525090565b60a06040519081016040528060001515815260200160008152602001613e87613ed1565b8152602001613e94613ed1565b815260200160006003811115613ea657fe5b81525090565b613ece91905b80821115613eca576000816000905550600101613eb2565b5090565b90565b6020604051908101604052806000815250905600a165627a7a7230582074e0ee28832b8f42b6d7c96f243edd75413569f016230bfffc94d4aa66daa8560029",
  "source": "pragma solidity ^0.4.18;\ncontract Enlistment {\n\n    address owner;\n    bool public locked = false;\n    EnlistmentStruct enlistment;\n    mapping(string => Offer) tenantOfferMap;\n    mapping(string => AgreementDraft) tenantAgreementMap;\n\n    function Enlistment(string landlordEmail, string landlordName, string streetName, uint floorNr, uint apartmentNr, uint houseNr, uint postalCode) public\n    {\n        enlistment = EnlistmentStruct(landlordEmail, landlordName, streetName, floorNr, apartmentNr, houseNr, postalCode);\n        owner = msg.sender;\n    }\n\n    function getOwner() view public ownerOnly() returns (address) {\n        return owner;\n    }\n\n    function getLandlord() view public ownerOnly() returns (string, string) {\n        return (enlistment.landlordEmail, enlistment.landlordName);\n    }\n\n    function getEnlistment() view public ownerOnly() returns (string, string, string, uint, uint, uint, uint) {\n        return (enlistment.landlordEmail, enlistment.landlordName, enlistment.streetName, enlistment.floorNr, enlistment.apartmentNr, enlistment.houseNr, enlistment.postalCode);\n    }\n\n    enum OfferStatus {\n        PENDING,\n        REJECTED,\n        CANCELLED,\n        ACCEPTED\n    }\n\n    enum AgreementStatus {\n        UNINITIALIZED, // internal\n        PENDING,\n        REJECTED,\n        CONFIRMED,\n        CANCELLED,\n        LANDLORD_SIGNED,\n        TENANT_SIGNED,\n        COMPLETED\n    }\n\n    struct EnlistmentStruct {\n        string landlordEmail;\n        string landlordName;\n        string streetName;\n        uint floorNr;\n        uint apartmentNr;\n        uint houseNr;\n        uint postalCode;\n    }\n\n    struct Offer {\n        bool initialized;\n        uint amount;\n        string tenantName;\n        string tenantEmail;\n        OfferStatus status;\n    }\n\n    struct AgreementDraft {\n        string landlordName; // for simplicity, there is only one landlord\n        string tenantName; // for simplicity, there is only one tenant and occupants are omitted\n        string tenantEmail;\n        uint amount;\n        uint leaseStart;\n        uint handoverDate;\n        uint leasePeriod;\n        string otherTerms;\n        string hash;\n        string landlordSignedHash;\n        string tenantSignedHash;\n        AgreementStatus status;\n    }\n\n    modifier noActiveOffer(string tenantEmail) {\n        require(tenantOfferMap[tenantEmail].initialized == false || tenantOfferMap[tenantEmail].status == OfferStatus.REJECTED || tenantOfferMap[tenantEmail].status == OfferStatus.CANCELLED);\n        _;\n    }\n\n    modifier offerExists(string tenantEmail) {\n        require(tenantOfferMap[tenantEmail].initialized == true);\n        _;\n    }\n\n    modifier offerInStatus(OfferStatus status, string tenantEmail) {\n        require(tenantOfferMap[tenantEmail].status == status);\n        _;\n    }\n\n    modifier offerCancellable(string tenantEmail) {\n        var offerStatus = tenantOfferMap[tenantEmail].status;\n        require(offerStatus == OfferStatus.PENDING || offerStatus == OfferStatus.ACCEPTED);\n        var agreementStatus = tenantAgreementMap[tenantEmail].status;\n        require(!(agreementStatus == AgreementStatus.CANCELLED || agreementStatus == AgreementStatus.TENANT_SIGNED || agreementStatus == AgreementStatus.COMPLETED));\n        _;\n    }\n\n    modifier agreementCanBeSubmitted(string tenantEmail) {\n        require(tenantAgreementMap[tenantEmail].status == AgreementStatus.UNINITIALIZED ||\n        tenantAgreementMap[tenantEmail].status == AgreementStatus.REJECTED || tenantAgreementMap[tenantEmail].status == AgreementStatus.CANCELLED);\n        _;\n    }\n\n    modifier agreementInStatus(AgreementStatus status, string tenantEmail) {\n        require(tenantAgreementMap[tenantEmail].status == status);\n        _;\n    }\n\n    modifier agreementCancellable(string tenantEmail) {\n        var agreementStatus = tenantAgreementMap[tenantEmail].status;\n        require(!(agreementStatus == AgreementStatus.CANCELLED || agreementStatus == AgreementStatus.TENANT_SIGNED || agreementStatus == AgreementStatus.COMPLETED || agreementStatus == AgreementStatus.REJECTED));\n        _;\n    }\n\n    modifier notLocked() {\n        require(!locked);\n        _;\n    }\n\n    modifier ownerOnly() {\n        require(msg.sender == owner);\n        _;\n    }\n\n    // what if the offer is in status PENDING and the tenant wants to send a new one?\n    function sendOffer(uint amount, string tenantName, string tenantEmail) payable public\n        ownerOnly()\n        noActiveOffer(tenantEmail)\n        notLocked()\n    {\n        var offer = Offer({\n            initialized: true,\n            amount: amount,\n            tenantName: tenantName,\n            tenantEmail: tenantEmail,\n            status: OfferStatus.PENDING\n        });\n        tenantOfferMap[tenantEmail] = offer;\n    }\n\n    function cancelOffer(string tenantEmail) payable public\n        ownerOnly()\n        offerExists(tenantEmail)\n        offerCancellable(tenantEmail)\n    {\n        tenantOfferMap[tenantEmail].status = OfferStatus.CANCELLED;\n        if (tenantAgreementMap[tenantEmail].status != AgreementStatus.UNINITIALIZED) {\n            tenantAgreementMap[tenantEmail].status = AgreementStatus.CANCELLED;\n        }\n        locked = false;\n    }\n\n    function getOffer(string tenantEmail) view public ownerOnly() returns (bool, uint, string, string, OfferStatus) {\n        var o = tenantOfferMap[tenantEmail];\n        return (o.initialized, o.amount, o.tenantName, o.tenantEmail, o.status);\n    }\n\n    function reviewOffer(bool result, string tenantEmail) payable public\n        ownerOnly()\n        offerExists(tenantEmail)\n        offerInStatus(OfferStatus.PENDING, tenantEmail)\n    {\n        tenantOfferMap[tenantEmail].status = result ? OfferStatus.ACCEPTED : OfferStatus.REJECTED;\n    }\n\n    function submitDraft(string tenantEmail, string landlordName, string agreementTenantName, string agreementTenantEmail,\n        uint leaseStart, uint handoverDate, uint leasePeriod, string otherTerms, string hash) payable public\n        ownerOnly()\n        offerExists(tenantEmail)\n        offerInStatus(OfferStatus.ACCEPTED, tenantEmail)\n        agreementCanBeSubmitted(tenantEmail)\n    {\n        var amount = tenantOfferMap[tenantEmail].amount;\n        tenantAgreementMap[tenantEmail] = AgreementDraft(landlordName,\n            agreementTenantName, agreementTenantEmail,\n            amount, leaseStart,\n            handoverDate, leasePeriod,\n            otherTerms, hash, \"\", \"\", AgreementStatus.PENDING);\n    }\n\n    // getAgreement functions:\n    // can only return tuple of max 7 elements, otherwise throws \"Stack too geep\"\n    // solution: splitted into multiple functions\n\n    function getAgreementParticipants(string tenantEmail) view public ownerOnly() returns (string, string, string) {\n        var a = tenantAgreementMap[tenantEmail];\n        return (a.landlordName, a.tenantName, a.tenantEmail);\n    }\n\n    function getAgreementDetails(string tenantEmail) view public ownerOnly() returns (uint, uint, uint, uint, string) {\n        var a = tenantAgreementMap[tenantEmail];\n        return (a.amount, a.leaseStart, a.handoverDate, a.leasePeriod, a.otherTerms);\n    }\n\n    function getAgreementHashes(string tenantEmail) view public ownerOnly() returns (string, string, string) {\n        var a = tenantAgreementMap[tenantEmail];\n        return (a.hash, a.landlordSignedHash, a.tenantSignedHash);\n    }\n\n    function getAgreementStatus(string tenantEmail) view public ownerOnly() returns (AgreementStatus) {\n        var a = tenantAgreementMap[tenantEmail];\n        return (a.status);\n    }\n\n    function reviewAgreement(string tenantEmail, bool result) payable public\n        ownerOnly()\n        offerExists(tenantEmail)\n        offerInStatus(OfferStatus.ACCEPTED, tenantEmail)\n        agreementInStatus(AgreementStatus.PENDING, tenantEmail)\n    {\n        tenantAgreementMap[tenantEmail].status = result ? AgreementStatus.CONFIRMED : AgreementStatus.REJECTED;\n    }\n\n    function landlordSignAgreement(string tenantEmail, string landlordSignedHash) payable public\n        ownerOnly()\n        notLocked()\n        offerExists(tenantEmail)\n        offerInStatus(OfferStatus.ACCEPTED, tenantEmail)\n        agreementInStatus(AgreementStatus.CONFIRMED, tenantEmail)\n    {\n        tenantAgreementMap[tenantEmail].landlordSignedHash = landlordSignedHash;\n        tenantAgreementMap[tenantEmail].status = AgreementStatus.LANDLORD_SIGNED;\n        locked = true;\n    }\n\n    function tenantSignAgreement(string tenantEmail, string tenantSignedHash) payable public\n        ownerOnly()\n        offerExists(tenantEmail)\n        offerInStatus(OfferStatus.ACCEPTED, tenantEmail)\n        agreementInStatus(AgreementStatus.LANDLORD_SIGNED, tenantEmail)\n    {\n        tenantAgreementMap[tenantEmail].tenantSignedHash = tenantSignedHash;\n        tenantAgreementMap[tenantEmail].status = AgreementStatus.TENANT_SIGNED;\n    }\n\n    function cancelAgreement(string tenantEmail) payable public\n        ownerOnly()\n        agreementCancellable(tenantEmail)\n    {\n        tenantAgreementMap[tenantEmail].status = AgreementStatus.CANCELLED;\n        locked = false;\n    }\n\n    function receiveFirstMonthRent(string tenantEmail) payable public\n        ownerOnly()\n        offerExists(tenantEmail)\n        offerInStatus(OfferStatus.ACCEPTED, tenantEmail)\n        agreementInStatus(AgreementStatus.TENANT_SIGNED, tenantEmail)\n    {\n        tenantAgreementMap[tenantEmail].status = AgreementStatus.COMPLETED;\n    }\n}\n",
  "sourcePath": "/Users/Indrek/Ulikool/Thesis/blockchain-real-estate-baseline/ethereum/contracts/EnlistmentToContract.sol",
  "compiler": {
    "name": "solc",
    "version": "0.4.19+commit.c4cbbb05.Emscripten.clang"
  },
  "schemaVersion": "1.0.1",
  "updatedAt": "2018-04-28T00:20:08.380Z"
}