{
  "contractName": "EnlistmentRegistry",
  "abi": [
    {
      "inputs": [],
      "payable": false,
      "stateMutability": "nonpayable",
      "type": "constructor"
    },
    {
      "constant": false,
      "inputs": [
        {
          "name": "geohash",
          "type": "string"
        },
        {
          "name": "enlistmentAddress",
          "type": "address"
        }
      ],
      "name": "addEnlistment",
      "outputs": [],
      "payable": true,
      "stateMutability": "payable",
      "type": "function"
    }
  ],
  "bytecode": "0x6060604052341561000f57600080fd5b33600160006101000a81548173ffffffffffffffffffffffffffffffffffffffff021916908373ffffffffffffffffffffffffffffffffffffffff1602179055506103738061005f6000396000f300606060405260043610610041576000357c0100000000000000000000000000000000000000000000000000000000900463ffffffff1680637f9bfbe514610046575b600080fd5b6100b5600480803590602001908201803590602001908080601f0160208091040260200160405190810160405280939291908181526020018383808284378201915050505050509190803573ffffffffffffffffffffffffffffffffffffffff169060200190919050506100b7565b005b600160009054906101000a900473ffffffffffffffffffffffffffffffffffffffff1673ffffffffffffffffffffffffffffffffffffffff163373ffffffffffffffffffffffffffffffffffffffff1614151561011357600080fd5b6000805480600101828161012791906101d2565b9160005260206000209060020201600060408051908101604052808681526020018573ffffffffffffffffffffffffffffffffffffffff1681525090919091506000820151816000019080519060200190610183929190610204565b5060208201518160010160006101000a81548173ffffffffffffffffffffffffffffffffffffffff021916908373ffffffffffffffffffffffffffffffffffffffff1602179055505050505050565b8154818355818115116101ff576002028160020283600052602060002091820191016101fe9190610284565b5b505050565b828054600181600116156101000203166002900490600052602060002090601f016020900481019282601f1061024557805160ff1916838001178555610273565b82800160010185558215610273579182015b82811115610272578251825591602001919060010190610257565b5b50905061028091906102da565b5090565b6102d791905b808211156102d357600080820160006102a391906102ff565b6001820160006101000a81549073ffffffffffffffffffffffffffffffffffffffff02191690555060020161028a565b5090565b90565b6102fc91905b808211156102f85760008160009055506001016102e0565b5090565b90565b50805460018160011615610100020316600290046000825580601f106103255750610344565b601f01602090049060005260206000209081019061034391906102da565b5b505600a165627a7a72305820be91aae68596328c16caa53b036af184d5b38f4e3f02b3d8dc24cd56d1b194910029",
  "source": "pragma solidity ^0.4.18;\ncontract EnlistmentRegistry {\n\n    Enlistment[] enlistments;\n    address owner;\n\n    function EnlistmentRegistry() public {\n        owner = msg.sender;\n    }\n\n    function addEnlistment(string geohash, address enlistmentAddress) payable public ownerOnly() {\n        enlistments.push(Enlistment(geohash, enlistmentAddress));\n    }\n\n    struct Enlistment {\n        string geohash;\n        address locationAddress;\n    }\n\n    modifier ownerOnly() {\n        require(msg.sender == owner);\n        _;\n    }\n\n}\n",
  "sourcePath": "/Users/Indrek/Ulikool/Thesis/blockchain-real-estate-baseline/ethereum/contracts/EnlistmentRegistry.sol",
  "compiler": {
    "name": "solc",
    "version": "0.4.19+commit.c4cbbb05.Emscripten.clang"
  },
  "schemaVersion": "1.0.1",
  "updatedAt": "2018-04-23T13:27:37.372Z"
}