{
  "contractName": "EnlistmentToContract",
  "abi": [
    {
      "constant": true,
      "inputs": [],
      "name": "locked",
      "outputs": [
        {
          "name": "",
          "type": "bool"
        }
      ],
      "payable": false,
      "stateMutability": "view",
      "type": "function"
    },
    {
      "inputs": [
        {
          "name": "landlordEmail",
          "type": "string"
        },
        {
          "name": "landlordName",
          "type": "string"
        },
        {
          "name": "streetName",
          "type": "string"
        },
        {
          "name": "floorNr",
          "type": "int256"
        },
        {
          "name": "apartmentNr",
          "type": "int256"
        },
        {
          "name": "houseNr",
          "type": "int256"
        },
        {
          "name": "postalCode",
          "type": "int256"
        }
      ],
      "payable": false,
      "stateMutability": "nonpayable",
      "type": "constructor"
    },
    {
      "constant": true,
      "inputs": [],
      "name": "getOwner",
      "outputs": [
        {
          "name": "",
          "type": "address"
        }
      ],
      "payable": false,
      "stateMutability": "view",
      "type": "function"
    },
    {
      "constant": true,
      "inputs": [],
      "name": "getLandlord",
      "outputs": [
        {
          "name": "",
          "type": "string"
        },
        {
          "name": "",
          "type": "string"
        }
      ],
      "payable": false,
      "stateMutability": "view",
      "type": "function"
    },
    {
      "constant": true,
      "inputs": [],
      "name": "getEnlistment",
      "outputs": [
        {
          "name": "",
          "type": "string"
        },
        {
          "name": "",
          "type": "string"
        },
        {
          "name": "",
          "type": "string"
        },
        {
          "name": "",
          "type": "int256"
        },
        {
          "name": "",
          "type": "int256"
        },
        {
          "name": "",
          "type": "int256"
        },
        {
          "name": "",
          "type": "int256"
        }
      ],
      "payable": false,
      "stateMutability": "view",
      "type": "function"
    },
    {
      "constant": false,
      "inputs": [
        {
          "name": "amount",
          "type": "int256"
        },
        {
          "name": "tenantName",
          "type": "string"
        },
        {
          "name": "tenantEmail",
          "type": "string"
        }
      ],
      "name": "sendOffer",
      "outputs": [],
      "payable": true,
      "stateMutability": "payable",
      "type": "function"
    },
    {
      "constant": false,
      "inputs": [
        {
          "name": "tenantEmail",
          "type": "string"
        }
      ],
      "name": "cancelOffer",
      "outputs": [],
      "payable": true,
      "stateMutability": "payable",
      "type": "function"
    },
    {
      "constant": true,
      "inputs": [
        {
          "name": "tenantEmail",
          "type": "string"
        }
      ],
      "name": "getOffer",
      "outputs": [
        {
          "name": "",
          "type": "bool"
        },
        {
          "name": "",
          "type": "int256"
        },
        {
          "name": "",
          "type": "string"
        },
        {
          "name": "",
          "type": "string"
        },
        {
          "name": "",
          "type": "uint8"
        }
      ],
      "payable": false,
      "stateMutability": "view",
      "type": "function"
    },
    {
      "constant": false,
      "inputs": [
        {
          "name": "result",
          "type": "bool"
        },
        {
          "name": "tenantEmail",
          "type": "string"
        }
      ],
      "name": "reviewOffer",
      "outputs": [],
      "payable": true,
      "stateMutability": "payable",
      "type": "function"
    },
    {
      "constant": false,
      "inputs": [
        {
          "name": "tenantEmail",
          "type": "string"
        },
        {
          "name": "landlordName",
          "type": "string"
        },
        {
          "name": "agreementTenantName",
          "type": "string"
        },
        {
          "name": "agreementTenantEmail",
          "type": "string"
        },
        {
          "name": "leaseStart",
          "type": "uint256"
        },
        {
          "name": "handoverDate",
          "type": "uint256"
        },
        {
          "name": "leasePeriod",
          "type": "uint256"
        },
        {
          "name": "otherTerms",
          "type": "string"
        },
        {
          "name": "hash",
          "type": "string"
        }
      ],
      "name": "submitDraft",
      "outputs": [],
      "payable": true,
      "stateMutability": "payable",
      "type": "function"
    },
    {
      "constant": true,
      "inputs": [
        {
          "name": "tenantEmail",
          "type": "string"
        }
      ],
      "name": "getAgreementParticipants",
      "outputs": [
        {
          "name": "",
          "type": "string"
        },
        {
          "name": "",
          "type": "string"
        },
        {
          "name": "",
          "type": "string"
        }
      ],
      "payable": false,
      "stateMutability": "view",
      "type": "function"
    },
    {
      "constant": true,
      "inputs": [
        {
          "name": "tenantEmail",
          "type": "string"
        }
      ],
      "name": "getAgreementDetails",
      "outputs": [
        {
          "name": "",
          "type": "int256"
        },
        {
          "name": "",
          "type": "uint256"
        },
        {
          "name": "",
          "type": "uint256"
        },
        {
          "name": "",
          "type": "uint256"
        },
        {
          "name": "",
          "type": "string"
        }
      ],
      "payable": false,
      "stateMutability": "view",
      "type": "function"
    },
    {
      "constant": true,
      "inputs": [
        {
          "name": "tenantEmail",
          "type": "string"
        }
      ],
      "name": "getAgreementHashes",
      "outputs": [
        {
          "name": "",
          "type": "string"
        },
        {
          "name": "",
          "type": "string"
        },
        {
          "name": "",
          "type": "string"
        }
      ],
      "payable": false,
      "stateMutability": "view",
      "type": "function"
    },
    {
      "constant": true,
      "inputs": [
        {
          "name": "tenantEmail",
          "type": "string"
        }
      ],
      "name": "getAgreementStatus",
      "outputs": [
        {
          "name": "",
          "type": "uint8"
        }
      ],
      "payable": false,
      "stateMutability": "view",
      "type": "function"
    },
    {
      "constant": false,
      "inputs": [
        {
          "name": "tenantEmail",
          "type": "string"
        },
        {
          "name": "result",
          "type": "bool"
        }
      ],
      "name": "reviewAgreement",
      "outputs": [],
      "payable": true,
      "stateMutability": "payable",
      "type": "function"
    },
    {
      "constant": false,
      "inputs": [
        {
          "name": "tenantEmail",
          "type": "string"
        },
        {
          "name": "landlordSignedHash",
          "type": "string"
        }
      ],
      "name": "landlordSignAgreement",
      "outputs": [],
      "payable": true,
      "stateMutability": "payable",
      "type": "function"
    },
    {
      "constant": false,
      "inputs": [
        {
          "name": "tenantEmail",
          "type": "string"
        },
        {
          "name": "tenantSignedHash",
          "type": "string"
        }
      ],
      "name": "tenantSignAgreement",
      "outputs": [],
      "payable": true,
      "stateMutability": "payable",
      "type": "function"
    },
    {
      "constant": false,
      "inputs": [
        {
          "name": "tenantEmail",
          "type": "string"
        }
      ],
      "name": "cancelAgreement",
      "outputs": [],
      "payable": true,
      "stateMutability": "payable",
      "type": "function"
    },
    {
      "constant": false,
      "inputs": [
        {
          "name": "tenantEmail",
          "type": "string"
        }
      ],
      "name": "receiveFirstMonthRent",
      "outputs": [],
      "payable": true,
      "stateMutability": "payable",
      "type": "function"
    }
  ],
  "bytecode": "0x606060405260008060146101000a81548160ff02191690831515021790555034156200002a57600080fd5b6040516200415c3803806200415c8339810160405280805182019190602001805182019190602001805182019190602001805190602001909190805190602001909190805190602001909190805190602001909190505060e0604051908101604052808881526020018781526020018681526020018581526020018481526020018381526020018281525060016000820151816000019080519060200190620000d59291906200018c565b506020820151816001019080519060200190620000f49291906200018c565b506040820151816002019080519060200190620001139291906200018c565b50606082015181600301556080820151816004015560a0820151816005015560c08201518160060155905050336000806101000a81548173ffffffffffffffffffffffffffffffffffffffff021916908373ffffffffffffffffffffffffffffffffffffffff160217905550505050505050506200023b565b828054600181600116156101000203166002900490600052602060002090601f016020900481019282601f10620001cf57805160ff191683800117855562000200565b8280016001018555821562000200579182015b82811115620001ff578251825591602001919060010190620001e2565b5b5090506200020f919062000213565b5090565b6200023891905b80821115620002345760008160009055506001016200021a565b5090565b90565b613f11806200024b6000396000f3006060604052600436106100fb576000357c0100000000000000000000000000000000000000000000000000000000900463ffffffff168062ff22c61461010057806303746e0614610195578063222a7af91461022a578063265adc33146103e65780632c863d84146104d85780632d63ce27146105765780632fcc176d146105c857806331ae8ed0146106255780634d45780e146107a7578063673a95ef146107f957806371ca1587146108565780637a51011614610a04578063893d20e814610b6d578063cf30901214610bc2578063d441a15214610bef578063ec2b2a1214610d9d578063f278f78414610e1c578063f502236d14610e6e575b600080fd5b610193600480803590602001908201803590602001908080601f0160208091040260200160405190810160405280939291908181526020018383808284378201915050505050509190803590602001908201803590602001908080601f01602080910402602001604051908101604052809392919081815260200183838082843782019150505050505091905050610f68565b005b610228600480803590602001908201803590602001908080601f0160208091040260200160405190810160405280939291908181526020018383808284378201915050505050509190803590602001908201803590602001908080601f016020809104026020016040519081016040528093929190818152602001838380828437820191505050505050919050506112b2565b005b6103e4600480803590602001908201803590602001908080601f0160208091040260200160405190810160405280939291908181526020018383808284378201915050505050509190803590602001908201803590602001908080601f0160208091040260200160405190810160405280939291908181526020018383808284378201915050505050509190803590602001908201803590602001908080601f0160208091040260200160405190810160405280939291908181526020018383808284378201915050505050509190803590602001908201803590602001908080601f0160208091040260200160405190810160405280939291908181526020018383808284378201915050505050509190803590602001909190803590602001909190803590602001909190803590602001908201803590602001908080601f0160208091040260200160405190810160405280939291908181526020018383808284378201915050505050509190803590602001908201803590602001908080601f01602080910402602001604051908101604052809392919081815260200183838082843782019150505050505091905050611633565b005b34156103f157600080fd5b610441600480803590602001908201803590602001908080601f01602080910402602001604051908101604052809392919081815260200183838082843782019150505050505091905050611c28565b6040518086815260200185815260200184815260200183815260200180602001828103825283818151815260200191508051906020019080838360005b8381101561049957808201518184015260208101905061047e565b50505050905090810190601f1680156104c65780820380516001836020036101000a031916815260200191505b50965050505050505060405180910390f35b610574600480803590602001909190803590602001908201803590602001908080601f0160208091040260200160405190810160405280939291908181526020018383808284378201915050505050509190803590602001908201803590602001908080601f01602080910402602001604051908101604052809392919081815260200183838082843782019150505050505091905050611dc8565b005b6105c6600480803590602001908201803590602001908080601f0160208091040260200160405190810160405280939291908181526020018383808284378201915050505050509190505061214a565b005b6106236004808035151590602001909190803590602001908201803590602001908080601f016020809104026020016040519081016040528093929190818152602001838380828437820191505050505050919050506125bd565b005b341561063057600080fd5b6106386127ed565b6040518080602001806020018060200188815260200187815260200186815260200185815260200184810384528b818151815260200191508051906020019080838360005b8381101561069857808201518184015260208101905061067d565b50505050905090810190601f1680156106c55780820380516001836020036101000a031916815260200191505b5084810383528a818151815260200191508051906020019080838360005b838110156106fe5780820151818401526020810190506106e3565b50505050905090810190601f16801561072b5780820380516001836020036101000a031916815260200191505b50848103825289818151815260200191508051906020019080838360005b83811015610764578082015181840152602081019050610749565b50505050905090810190601f1680156107915780820380516001836020036101000a031916815260200191505b509a505050505050505050505060405180910390f35b6107f7600480803590602001908201803590602001908080601f01602080910402602001604051908101604052809392919081815260200183838082843782019150505050505091905050612a77565b005b610854600480803590602001908201803590602001908080601f016020809104026020016040519081016040528093929190818152602001838380828437820191505050505050919080351515906020019091905050612d3d565b005b341561086157600080fd5b6108b1600480803590602001908201803590602001908080601f01602080910402602001604051908101604052809392919081815260200183838082843782019150505050505091905050613011565b60405180806020018060200180602001848103845287818151815260200191508051906020019080838360005b838110156108f95780820151818401526020810190506108de565b50505050905090810190601f1680156109265780820380516001836020036101000a031916815260200191505b50848103835286818151815260200191508051906020019080838360005b8381101561095f578082015181840152602081019050610944565b50505050905090810190601f16801561098c5780820380516001836020036101000a031916815260200191505b50848103825285818151815260200191508051906020019080838360005b838110156109c55780820151818401526020810190506109aa565b50505050905090810190601f1680156109f25780820380516001836020036101000a031916815260200191505b50965050505050505060405180910390f35b3415610a0f57600080fd5b610a5f600480803590602001908201803590602001908080601f016020809104026020016040519081016040528093929190818152602001838380828437820191505050505050919050506132e1565b60405180861515151581526020018581526020018060200180602001846003811115610a8757fe5b60ff168152602001838103835286818151815260200191508051906020019080838360005b83811015610ac7578082015181840152602081019050610aac565b50505050905090810190601f168015610af45780820380516001836020036101000a031916815260200191505b50838103825285818151815260200191508051906020019080838360005b83811015610b2d578082015181840152602081019050610b12565b50505050905090810190601f168015610b5a5780820380516001836020036101000a031916815260200191505b5097505050505050505060405180910390f35b3415610b7857600080fd5b610b8061353c565b604051808273ffffffffffffffffffffffffffffffffffffffff1673ffffffffffffffffffffffffffffffffffffffff16815260200191505060405180910390f35b3415610bcd57600080fd5b610bd56135c0565b604051808215151515815260200191505060405180910390f35b3415610bfa57600080fd5b610c4a600480803590602001908201803590602001908080601f016020809104026020016040519081016040528093929190818152602001838380828437820191505050505050919050506135d3565b60405180806020018060200180602001848103845287818151815260200191508051906020019080838360005b83811015610c92578082015181840152602081019050610c77565b50505050905090810190601f168015610cbf5780820380516001836020036101000a031916815260200191505b50848103835286818151815260200191508051906020019080838360005b83811015610cf8578082015181840152602081019050610cdd565b50505050905090810190601f168015610d255780820380516001836020036101000a031916815260200191505b50848103825285818151815260200191508051906020019080838360005b83811015610d5e578082015181840152602081019050610d43565b50505050905090810190601f168015610d8b5780820380516001836020036101000a031916815260200191505b50965050505050505060405180910390f35b3415610da857600080fd5b610df8600480803590602001908201803590602001908080601f016020809104026020016040519081016040528093929190818152602001838380828437820191505050505050919050506138a3565b60405180826007811115610e0857fe5b60ff16815260200191505060405180910390f35b610e6c600480803590602001908201803590602001908080601f01602080910402602001604051908101604052809392919081815260200183838082843782019150505050505091905050613988565b005b3415610e7957600080fd5b610e81613b9b565b604051808060200180602001838103835285818151815260200191508051906020019080838360005b83811015610ec5578082015181840152602081019050610eaa565b50505050905090810190601f168015610ef25780820380516001836020036101000a031916815260200191505b50838103825284818151815260200191508051906020019080838360005b83811015610f2b578082015181840152602081019050610f10565b50505050905090810190601f168015610f585780820380516001836020036101000a031916815260200191505b5094505050505060405180910390f35b6000809054906101000a900473ffffffffffffffffffffffffffffffffffffffff1673ffffffffffffffffffffffffffffffffffffffff163373ffffffffffffffffffffffffffffffffffffffff16141515610fc357600080fd5b81600115156008826040518082805190602001908083835b6020831015156110005780518252602082019150602081019050602083039250610fdb565b6001836020036101000a038019825116818451168082178552505050505050905001915050908152602001604051809103902060000160009054906101000a900460ff16151514151561105257600080fd5b60038381600381111561106157fe5b6008826040518082805190602001908083835b6020831015156110995780518252602082019150602081019050602083039250611074565b6001836020036101000a038019825116818451168082178552505050505050905001915050908152602001604051809103902060040160009054906101000a900460ff1660038111156110e857fe5b1415156110f457600080fd5b60058581600781111561110357fe5b6009826040518082805190602001908083835b60208310151561113b5780518252602082019150602081019050602083039250611116565b6001836020036101000a0380198251168184511680821785525050505050509050019150509081526020016040518091039020600b0160009054906101000a900460ff16600781111561118a57fe5b14151561119657600080fd5b856009886040518082805190602001908083835b6020831015156111cf57805182526020820191506020810190506020830392506111aa565b6001836020036101000a0380198251168184511680821785525050505050509050019150509081526020016040518091039020600a019080519060200190611218929190613d4f565b5060066009886040518082805190602001908083835b602083101515611253578051825260208201915060208101905060208303925061122e565b6001836020036101000a0380198251168184511680821785525050505050509050019150509081526020016040518091039020600b0160006101000a81548160ff021916908360078111156112a457fe5b021790555050505050505050565b6000809054906101000a900473ffffffffffffffffffffffffffffffffffffffff1673ffffffffffffffffffffffffffffffffffffffff163373ffffffffffffffffffffffffffffffffffffffff1614151561130d57600080fd5b600060149054906101000a900460ff1615151561132957600080fd5b81600115156008826040518082805190602001908083835b6020831015156113665780518252602082019150602081019050602083039250611341565b6001836020036101000a038019825116818451168082178552505050505050905001915050908152602001604051809103902060000160009054906101000a900460ff1615151415156113b857600080fd5b6003838160038111156113c757fe5b6008826040518082805190602001908083835b6020831015156113ff57805182526020820191506020810190506020830392506113da565b6001836020036101000a038019825116818451168082178552505050505050905001915050908152602001604051809103902060040160009054906101000a900460ff16600381111561144e57fe5b14151561145a57600080fd5b60038581600781111561146957fe5b6009826040518082805190602001908083835b6020831015156114a1578051825260208201915060208101905060208303925061147c565b6001836020036101000a0380198251168184511680821785525050505050509050019150509081526020016040518091039020600b0160009054906101000a900460ff1660078111156114f057fe5b1415156114fc57600080fd5b856009886040518082805190602001908083835b6020831015156115355780518252602082019150602081019050602083039250611510565b6001836020036101000a0380198251168184511680821785525050505050509050019150509081526020016040518091039020600901908051906020019061157e929190613d4f565b5060056009886040518082805190602001908083835b6020831015156115b95780518252602082019150602081019050602083039250611594565b6001836020036101000a0380198251168184511680821785525050505050509050019150509081526020016040518091039020600b0160006101000a81548160ff0219169083600781111561160a57fe5b02179055506001600060146101000a81548160ff02191690831515021790555050505050505050565b60008060009054906101000a900473ffffffffffffffffffffffffffffffffffffffff1673ffffffffffffffffffffffffffffffffffffffff163373ffffffffffffffffffffffffffffffffffffffff1614151561169057600080fd5b89600115156008826040518082805190602001908083835b6020831015156116cd57805182526020820191506020810190506020830392506116a8565b6001836020036101000a038019825116818451168082178552505050505050905001915050908152602001604051809103902060000160009054906101000a900460ff16151514151561171f57600080fd5b60038b81600381111561172e57fe5b6008826040518082805190602001908083835b6020831015156117665780518252602082019150602081019050602083039250611741565b6001836020036101000a038019825116818451168082178552505050505050905001915050908152602001604051809103902060040160009054906101000a900460ff1660038111156117b557fe5b1415156117c157600080fd5b8c600060078111156117cf57fe5b6009826040518082805190602001908083835b60208310151561180757805182526020820191506020810190506020830392506117e2565b6001836020036101000a0380198251168184511680821785525050505050509050019150509081526020016040518091039020600b0160009054906101000a900460ff16600781111561185657fe5b14806118f357506002600781111561186a57fe5b6009826040518082805190602001908083835b6020831015156118a2578051825260208201915060208101905060208303925061187d565b6001836020036101000a0380198251168184511680821785525050505050509050019150509081526020016040518091039020600b0160009054906101000a900460ff1660078111156118f157fe5b145b8061198f57506004600781111561190657fe5b6009826040518082805190602001908083835b60208310151561193e5780518252602082019150602081019050602083039250611919565b6001836020036101000a0380198251168184511680821785525050505050509050019150509081526020016040518091039020600b0160009054906101000a900460ff16600781111561198d57fe5b145b151561199a57600080fd5b60088e6040518082805190602001908083835b6020831015156119d257805182526020820191506020810190506020830392506119ad565b6001836020036101000a0380198251168184511680821785525050505050509050019150509081526020016040518091039020600101549450610180604051908101604052808e81526020018d81526020018c81526020018681526020018b81526020018a8152602001898152602001888152602001878152602001602060405190810160405280600081525081526020016020604051908101604052806000815250815260200160016007811115611a8757fe5b81525060098f6040518082805190602001908083835b602083101515611ac25780518252602082019150602081019050602083039250611a9d565b6001836020036101000a03801982511681845116808217855250505050505090500191505090815260200160405180910390206000820151816000019080519060200190611b11929190613dcf565b506020820151816001019080519060200190611b2e929190613dcf565b506040820151816002019080519060200190611b4b929190613dcf565b50606082015181600301556080820151816004015560a0820151816005015560c0820151816006015560e0820151816007019080519060200190611b90929190613dcf565b50610100820151816008019080519060200190611bae929190613dcf565b50610120820151816009019080519060200190611bcc929190613dcf565b5061014082015181600a019080519060200190611bea929190613dcf565b5061016082015181600b0160006101000a81548160ff02191690836007811115611c1057fe5b02179055509050505050505050505050505050505050565b600080600080611c36613e4f565b60008060009054906101000a900473ffffffffffffffffffffffffffffffffffffffff1673ffffffffffffffffffffffffffffffffffffffff163373ffffffffffffffffffffffffffffffffffffffff16141515611c9357600080fd5b6009876040518082805190602001908083835b602083101515611ccb5780518252602082019150602081019050602083039250611ca6565b6001836020036101000a03801982511681845116808217855250505050505090500191505090815260200160405180910390209050806003015481600401548260050154836006015484600701808054600181600116156101000203166002900480601f016020809104026020016040519081016040528092919081815260200182805460018160011615610100020316600290048015611dad5780601f10611d8257610100808354040283529160200191611dad565b820191906000526020600020905b815481529060010190602001808311611d9057829003601f168201915b50505050509050955095509550955095505091939590929450565b611dd0613e63565b6000809054906101000a900473ffffffffffffffffffffffffffffffffffffffff1673ffffffffffffffffffffffffffffffffffffffff163373ffffffffffffffffffffffffffffffffffffffff16141515611e2b57600080fd5b81600015156008826040518082805190602001908083835b602083101515611e685780518252602082019150602081019050602083039250611e43565b6001836020036101000a038019825116818451168082178552505050505050905001915050908152602001604051809103902060000160009054906101000a900460ff1615151480611f4b575060016003811115611ec257fe5b6008826040518082805190602001908083835b602083101515611efa5780518252602082019150602081019050602083039250611ed5565b6001836020036101000a038019825116818451168082178552505050505050905001915050908152602001604051809103902060040160009054906101000a900460ff166003811115611f4957fe5b145b80611fe7575060026003811115611f5e57fe5b6008826040518082805190602001908083835b602083101515611f965780518252602082019150602081019050602083039250611f71565b6001836020036101000a038019825116818451168082178552505050505050905001915050908152602001604051809103902060040160009054906101000a900460ff166003811115611fe557fe5b145b1515611ff257600080fd5b600060149054906101000a900460ff1615151561200e57600080fd5b60a0604051908101604052806001151581526020018681526020018581526020018481526020016000600381111561204257fe5b8152509150816008846040518082805190602001908083835b602083101515612080578051825260208201915060208101905060208303925061205b565b6001836020036101000a038019825116818451168082178552505050505050905001915050908152602001604051809103902060008201518160000160006101000a81548160ff0219169083151502179055506020820151816001015560408201518160020190805190602001906120f9929190613dcf565b506060820151816003019080519060200190612116929190613dcf565b5060808201518160040160006101000a81548160ff0219169083600381111561213b57fe5b02179055509050505050505050565b6000809054906101000a900473ffffffffffffffffffffffffffffffffffffffff1673ffffffffffffffffffffffffffffffffffffffff163373ffffffffffffffffffffffffffffffffffffffff161415156121a557600080fd5b80600115156008826040518082805190602001908083835b6020831015156121e257805182526020820191506020810190506020830392506121bd565b6001836020036101000a038019825116818451168082178552505050505050905001915050908152602001604051809103902060000160009054906101000a900460ff16151514151561223457600080fd5b816000806008836040518082805190602001908083835b602083101515612270578051825260208201915060208101905060208303925061224b565b6001836020036101000a038019825116818451168082178552505050505050905001915050908152602001604051809103902060040160009054906101000a900460ff169150600060038111156122c357fe5b8260038111156122cf57fe5b14806122f057506003808111156122e257fe5b8260038111156122ee57fe5b145b15156122fb57600080fd5b6009836040518082805190602001908083835b602083101515612333578051825260208201915060208101905060208303925061230e565b6001836020036101000a0380198251168184511680821785525050505050509050019150509081526020016040518091039020600b0160009054906101000a900460ff1690506004600781111561238657fe5b81600781111561239257fe5b14806123b45750600660078111156123a657fe5b8160078111156123b257fe5b145b806123d457506007808111156123c657fe5b8160078111156123d257fe5b145b1515156123e057600080fd5b60026008866040518082805190602001908083835b60208310151561241a57805182526020820191506020810190506020830392506123f5565b6001836020036101000a038019825116818451168082178552505050505050905001915050908152602001604051809103902060040160006101000a81548160ff0219169083600381111561246b57fe5b02179055506000600781111561247d57fe5b6009866040518082805190602001908083835b6020831015156124b55780518252602082019150602081019050602083039250612490565b6001836020036101000a0380198251168184511680821785525050505050509050019150509081526020016040518091039020600b0160009054906101000a900460ff16600781111561250457fe5b14151561259c5760046009866040518082805190602001908083835b6020831015156125455780518252602082019150602081019050602083039250612520565b6001836020036101000a0380198251168184511680821785525050505050509050019150509081526020016040518091039020600b0160006101000a81548160ff0219169083600781111561259657fe5b02179055505b60008060146101000a81548160ff0219169083151502179055505050505050565b6000809054906101000a900473ffffffffffffffffffffffffffffffffffffffff1673ffffffffffffffffffffffffffffffffffffffff163373ffffffffffffffffffffffffffffffffffffffff1614151561261857600080fd5b80600115156008826040518082805190602001908083835b6020831015156126555780518252602082019150602081019050602083039250612630565b6001836020036101000a038019825116818451168082178552505050505050905001915050908152602001604051809103902060000160009054906101000a900460ff1615151415156126a757600080fd5b6000828160038111156126b657fe5b6008826040518082805190602001908083835b6020831015156126ee57805182526020820191506020810190506020830392506126c9565b6001836020036101000a038019825116818451168082178552505050505050905001915050908152602001604051809103902060040160009054906101000a900460ff16600381111561273d57fe5b14151561274957600080fd5b84612755576001612758565b60035b6008856040518082805190602001908083835b602083101515612790578051825260208201915060208101905060208303925061276b565b6001836020036101000a038019825116818451168082178552505050505050905001915050908152602001604051809103902060040160006101000a81548160ff021916908360038111156127e157fe5b02179055505050505050565b6127f5613e4f565b6127fd613e4f565b612805613e4f565b6000806000806000809054906101000a900473ffffffffffffffffffffffffffffffffffffffff1673ffffffffffffffffffffffffffffffffffffffff163373ffffffffffffffffffffffffffffffffffffffff1614151561286657600080fd5b6001600001600180016001600201600160030154600160040154600160050154600160060154868054600181600116156101000203166002900480601f0160208091040260200160405190810160405280929190818152602001828054600181600116156101000203166002900480156129215780601f106128f657610100808354040283529160200191612921565b820191906000526020600020905b81548152906001019060200180831161290457829003601f168201915b50505050509650858054600181600116156101000203166002900480601f0160208091040260200160405190810160405280929190818152602001828054600181600116156101000203166002900480156129bd5780601f10612992576101008083540402835291602001916129bd565b820191906000526020600020905b8154815290600101906020018083116129a057829003601f168201915b50505050509550848054600181600116156101000203166002900480601f016020809104026020016040519081016040528092919081815260200182805460018160011615610100020316600290048015612a595780601f10612a2e57610100808354040283529160200191612a59565b820191906000526020600020905b815481529060010190602001808311612a3c57829003601f168201915b50505050509450965096509650965096509650965090919293949596565b6000809054906101000a900473ffffffffffffffffffffffffffffffffffffffff1673ffffffffffffffffffffffffffffffffffffffff163373ffffffffffffffffffffffffffffffffffffffff16141515612ad257600080fd5b80600115156008826040518082805190602001908083835b602083101515612b0f5780518252602082019150602081019050602083039250612aea565b6001836020036101000a038019825116818451168082178552505050505050905001915050908152602001604051809103902060000160009054906101000a900460ff161515141515612b6157600080fd5b600382816003811115612b7057fe5b6008826040518082805190602001908083835b602083101515612ba85780518252602082019150602081019050602083039250612b83565b6001836020036101000a038019825116818451168082178552505050505050905001915050908152602001604051809103902060040160009054906101000a900460ff166003811115612bf757fe5b141515612c0357600080fd5b600684816007811115612c1257fe5b6009826040518082805190602001908083835b602083101515612c4a5780518252602082019150602081019050602083039250612c25565b6001836020036101000a0380198251168184511680821785525050505050509050019150509081526020016040518091039020600b0160009054906101000a900460ff166007811115612c9957fe5b141515612ca557600080fd5b60076009876040518082805190602001908083835b602083101515612cdf5780518252602082019150602081019050602083039250612cba565b6001836020036101000a0380198251168184511680821785525050505050509050019150509081526020016040518091039020600b0160006101000a81548160ff02191690836007811115612d3057fe5b0217905550505050505050565b6000809054906101000a900473ffffffffffffffffffffffffffffffffffffffff1673ffffffffffffffffffffffffffffffffffffffff163373ffffffffffffffffffffffffffffffffffffffff16141515612d9857600080fd5b81600115156008826040518082805190602001908083835b602083101515612dd55780518252602082019150602081019050602083039250612db0565b6001836020036101000a038019825116818451168082178552505050505050905001915050908152602001604051809103902060000160009054906101000a900460ff161515141515612e2757600080fd5b600383816003811115612e3657fe5b6008826040518082805190602001908083835b602083101515612e6e5780518252602082019150602081019050602083039250612e49565b6001836020036101000a038019825116818451168082178552505050505050905001915050908152602001604051809103902060040160009054906101000a900460ff166003811115612ebd57fe5b141515612ec957600080fd5b600185816007811115612ed857fe5b6009826040518082805190602001908083835b602083101515612f105780518252602082019150602081019050602083039250612eeb565b6001836020036101000a0380198251168184511680821785525050505050509050019150509081526020016040518091039020600b0160009054906101000a900460ff166007811115612f5f57fe5b141515612f6b57600080fd5b85612f77576002612f7a565b60035b6009886040518082805190602001908083835b602083101515612fb25780518252602082019150602081019050602083039250612f8d565b6001836020036101000a0380198251168184511680821785525050505050509050019150509081526020016040518091039020600b0160006101000a81548160ff0219169083600781111561300357fe5b021790555050505050505050565b613019613e4f565b613021613e4f565b613029613e4f565b60008060009054906101000a900473ffffffffffffffffffffffffffffffffffffffff1673ffffffffffffffffffffffffffffffffffffffff163373ffffffffffffffffffffffffffffffffffffffff1614151561308657600080fd5b6009856040518082805190602001908083835b6020831015156130be5780518252602082019150602081019050602083039250613099565b6001836020036101000a03801982511681845116808217855250505050505090500191505090815260200160405180910390209050806000018160010182600201828054600181600116156101000203166002900480601f0160208091040260200160405190810160405280929190818152602001828054600181600116156101000203166002900480156131945780601f1061316957610100808354040283529160200191613194565b820191906000526020600020905b81548152906001019060200180831161317757829003601f168201915b50505050509250818054600181600116156101000203166002900480601f0160208091040260200160405190810160405280929190818152602001828054600181600116156101000203166002900480156132305780601f1061320557610100808354040283529160200191613230565b820191906000526020600020905b81548152906001019060200180831161321357829003601f168201915b50505050509150808054600181600116156101000203166002900480601f0160208091040260200160405190810160405280929190818152602001828054600181600116156101000203166002900480156132cc5780601f106132a1576101008083540402835291602001916132cc565b820191906000526020600020905b8154815290600101906020018083116132af57829003601f168201915b50505050509050935093509350509193909250565b6000806132ec613e4f565b6132f4613e4f565b6000806000809054906101000a900473ffffffffffffffffffffffffffffffffffffffff1673ffffffffffffffffffffffffffffffffffffffff163373ffffffffffffffffffffffffffffffffffffffff1614151561335257600080fd5b6008876040518082805190602001908083835b60208310151561338a5780518252602082019150602081019050602083039250613365565b6001836020036101000a038019825116818451168082178552505050505050905001915050908152602001604051809103902090508060000160009054906101000a900460ff16816001015482600201836003018460040160009054906101000a900460ff16828054600181600116156101000203166002900480601f0160208091040260200160405190810160405280929190818152602001828054600181600116156101000203166002900480156134855780601f1061345a57610100808354040283529160200191613485565b820191906000526020600020905b81548152906001019060200180831161346857829003601f168201915b50505050509250818054600181600116156101000203166002900480601f0160208091040260200160405190810160405280929190818152602001828054600181600116156101000203166002900480156135215780601f106134f657610100808354040283529160200191613521565b820191906000526020600020905b81548152906001019060200180831161350457829003601f168201915b50505050509150955095509550955095505091939590929450565b60008060009054906101000a900473ffffffffffffffffffffffffffffffffffffffff1673ffffffffffffffffffffffffffffffffffffffff163373ffffffffffffffffffffffffffffffffffffffff1614151561359957600080fd5b6000809054906101000a900473ffffffffffffffffffffffffffffffffffffffff16905090565b600060149054906101000a900460ff1681565b6135db613e4f565b6135e3613e4f565b6135eb613e4f565b60008060009054906101000a900473ffffffffffffffffffffffffffffffffffffffff1673ffffffffffffffffffffffffffffffffffffffff163373ffffffffffffffffffffffffffffffffffffffff1614151561364857600080fd5b6009856040518082805190602001908083835b602083101515613680578051825260208201915060208101905060208303925061365b565b6001836020036101000a03801982511681845116808217855250505050505090500191505090815260200160405180910390209050806008018160090182600a01828054600181600116156101000203166002900480601f0160208091040260200160405190810160405280929190818152602001828054600181600116156101000203166002900480156137565780601f1061372b57610100808354040283529160200191613756565b820191906000526020600020905b81548152906001019060200180831161373957829003601f168201915b50505050509250818054600181600116156101000203166002900480601f0160208091040260200160405190810160405280929190818152602001828054600181600116156101000203166002900480156137f25780601f106137c7576101008083540402835291602001916137f2565b820191906000526020600020905b8154815290600101906020018083116137d557829003601f168201915b50505050509150808054600181600116156101000203166002900480601f01602080910402602001604051908101604052809291908181526020018280546001816001161561010002031660029004801561388e5780601f106138635761010080835404028352916020019161388e565b820191906000526020600020905b81548152906001019060200180831161387157829003601f168201915b50505050509050935093509350509193909250565b6000806000809054906101000a900473ffffffffffffffffffffffffffffffffffffffff1673ffffffffffffffffffffffffffffffffffffffff163373ffffffffffffffffffffffffffffffffffffffff1614151561390157600080fd5b6009836040518082805190602001908083835b6020831015156139395780518252602082019150602081019050602083039250613914565b6001836020036101000a0380198251168184511680821785525050505050509050019150509081526020016040518091039020905080600b0160009054906101000a900460ff16915050919050565b6000809054906101000a900473ffffffffffffffffffffffffffffffffffffffff1673ffffffffffffffffffffffffffffffffffffffff163373ffffffffffffffffffffffffffffffffffffffff161415156139e357600080fd5b8060006009826040518082805190602001908083835b602083101515613a1e57805182526020820191506020810190506020830392506139f9565b6001836020036101000a0380198251168184511680821785525050505050509050019150509081526020016040518091039020600b0160009054906101000a900460ff16905060046007811115613a7157fe5b816007811115613a7d57fe5b1480613a9f575060066007811115613a9157fe5b816007811115613a9d57fe5b145b80613abf5750600780811115613ab157fe5b816007811115613abd57fe5b145b80613ae0575060026007811115613ad257fe5b816007811115613ade57fe5b145b151515613aec57600080fd5b60046009846040518082805190602001908083835b602083101515613b265780518252602082019150602081019050602083039250613b01565b6001836020036101000a0380198251168184511680821785525050505050509050019150509081526020016040518091039020600b0160006101000a81548160ff02191690836007811115613b7757fe5b021790555060008060146101000a81548160ff021916908315150217905550505050565b613ba3613e4f565b613bab613e4f565b6000809054906101000a900473ffffffffffffffffffffffffffffffffffffffff1673ffffffffffffffffffffffffffffffffffffffff163373ffffffffffffffffffffffffffffffffffffffff16141515613c0657600080fd5b600160000160018001818054600181600116156101000203166002900480601f016020809104026020016040519081016040528092919081815260200182805460018160011615610100020316600290048015613ca45780601f10613c7957610100808354040283529160200191613ca4565b820191906000526020600020905b815481529060010190602001808311613c8757829003601f168201915b50505050509150808054600181600116156101000203166002900480601f016020809104026020016040519081016040528092919081815260200182805460018160011615610100020316600290048015613d405780601f10613d1557610100808354040283529160200191613d40565b820191906000526020600020905b815481529060010190602001808311613d2357829003601f168201915b50505050509050915091509091565b828054600181600116156101000203166002900490600052602060002090601f016020900481019282601f10613d9057805160ff1916838001178555613dbe565b82800160010185558215613dbe579182015b82811115613dbd578251825591602001919060010190613da2565b5b509050613dcb9190613eac565b5090565b828054600181600116156101000203166002900490600052602060002090601f016020900481019282601f10613e1057805160ff1916838001178555613e3e565b82800160010185558215613e3e579182015b82811115613e3d578251825591602001919060010190613e22565b5b509050613e4b9190613eac565b5090565b602060405190810160405280600081525090565b60a06040519081016040528060001515815260200160008152602001613e87613ed1565b8152602001613e94613ed1565b815260200160006003811115613ea657fe5b81525090565b613ece91905b80821115613eca576000816000905550600101613eb2565b5090565b90565b6020604051908101604052806000815250905600a165627a7a72305820443b35f53682aa190834b11cde39937247f2b6c3cd7b2082db072e590c282ee60029",
  "source": "pragma solidity ^0.4.18;\ncontract EnlistmentToContract {\n\n    address owner;\n    bool public locked = false;\n    Enlistment enlistment;\n    mapping(string => Offer) tenantOfferMap;\n    mapping(string => AgreementDraft) tenantAgreementMap;\n\n    function EnlistmentToContract(string landlordEmail, string landlordName, string streetName, int floorNr, int apartmentNr, int houseNr, int postalCode) public\n    {\n        enlistment = Enlistment(landlordEmail, landlordName, streetName, floorNr, apartmentNr, houseNr, postalCode);\n        owner = msg.sender;\n    }\n\n    function getOwner() view public ownerOnly() returns (address) {\n        return owner;\n    }\n\n    function getLandlord() view public ownerOnly() returns (string, string) {\n        return (enlistment.landlordEmail, enlistment.landlordName);\n    }\n\n    function getEnlistment() view public ownerOnly() returns (string, string, string, int, int, int, int) {\n        return (enlistment.landlordEmail, enlistment.landlordName, enlistment.streetName, enlistment.floorNr, enlistment.apartmentNr, enlistment.houseNr, enlistment.postalCode);\n    }\n\n    enum OfferStatus {\n        PENDING,\n        REJECTED,\n        CANCELLED,\n        ACCEPTED\n    }\n\n    enum AgreementStatus {\n        UNINITIALIZED, // internal\n        PENDING,\n        REJECTED,\n        CONFIRMED,\n        CANCELLED,\n        LANDLORD_SIGNED,\n        TENANT_SIGNED,\n        COMPLETED\n    }\n\n    struct Enlistment {\n        string landlordEmail;\n        string landlordName;\n        string streetName;\n        int floorNr;\n        int apartmentNr;\n        int houseNr;\n        int postalCode;\n    }\n\n    struct Offer {\n        bool initialized;\n        int amount;\n        string tenantName;\n        string tenantEmail;\n        OfferStatus status;\n    }\n\n    struct AgreementDraft {\n        string landlordName; // for simplicity, there is only one landlord\n        string tenantName; // for simplicity, there is only one tenant and occupants are omitted\n        string tenantEmail;\n        int amount;\n        uint leaseStart;\n        uint handoverDate;\n        uint leasePeriod;\n        string otherTerms;\n        string hash;\n        string landlordSignedHash;\n        string tenantSignedHash;\n        AgreementStatus status;\n    }\n\n    modifier noActiveOffer(string tenantEmail) {\n        require(tenantOfferMap[tenantEmail].initialized == false || tenantOfferMap[tenantEmail].status == OfferStatus.REJECTED || tenantOfferMap[tenantEmail].status == OfferStatus.CANCELLED);\n        _;\n    }\n\n    modifier offerExists(string tenantEmail) {\n        require(tenantOfferMap[tenantEmail].initialized == true);\n        _;\n    }\n\n    modifier offerInStatus(OfferStatus status, string tenantEmail) {\n        require(tenantOfferMap[tenantEmail].status == status);\n        _;\n    }\n\n    modifier offerCancellable(string tenantEmail) {\n        var offerStatus = tenantOfferMap[tenantEmail].status;\n        require(offerStatus == OfferStatus.PENDING || offerStatus == OfferStatus.ACCEPTED);\n        var agreementStatus = tenantAgreementMap[tenantEmail].status;\n        require(!(agreementStatus == AgreementStatus.CANCELLED || agreementStatus == AgreementStatus.TENANT_SIGNED || agreementStatus == AgreementStatus.COMPLETED));\n        _;\n    }\n\n    modifier agreementCanBeSubmitted(string tenantEmail) {\n        require(tenantAgreementMap[tenantEmail].status == AgreementStatus.UNINITIALIZED ||\n        tenantAgreementMap[tenantEmail].status == AgreementStatus.REJECTED || tenantAgreementMap[tenantEmail].status == AgreementStatus.CANCELLED);\n        _;\n    }\n\n    modifier agreementInStatus(AgreementStatus status, string tenantEmail) {\n        require(tenantAgreementMap[tenantEmail].status == status);\n        _;\n    }\n\n    modifier agreementCancellable(string tenantEmail) {\n        var agreementStatus = tenantAgreementMap[tenantEmail].status;\n        require(!(agreementStatus == AgreementStatus.CANCELLED || agreementStatus == AgreementStatus.TENANT_SIGNED || agreementStatus == AgreementStatus.COMPLETED || agreementStatus == AgreementStatus.REJECTED));\n        _;\n    }\n\n    modifier notLocked() {\n        require(!locked);\n        _;\n    }\n\n    modifier ownerOnly() {\n        require(msg.sender == owner);\n        _;\n    }\n\n    // what if the offer is in status PENDING and the tenant wants to send a new one?\n    function sendOffer(int amount, string tenantName, string tenantEmail) payable public\n        ownerOnly()\n        noActiveOffer(tenantEmail)\n        notLocked()\n    {\n        var offer = Offer({\n            initialized: true,\n            amount: amount,\n            tenantName: tenantName,\n            tenantEmail: tenantEmail,\n            status: OfferStatus.PENDING\n        });\n        tenantOfferMap[tenantEmail] = offer;\n    }\n\n    function cancelOffer(string tenantEmail) payable public\n        ownerOnly()\n        offerExists(tenantEmail)\n        offerCancellable(tenantEmail)\n    {\n        tenantOfferMap[tenantEmail].status = OfferStatus.CANCELLED;\n        if (tenantAgreementMap[tenantEmail].status != AgreementStatus.UNINITIALIZED) {\n            tenantAgreementMap[tenantEmail].status = AgreementStatus.CANCELLED;\n        }\n        locked = false;\n    }\n\n    function getOffer(string tenantEmail) view public ownerOnly() returns (bool, int, string, string, OfferStatus) {\n        var o = tenantOfferMap[tenantEmail];\n        return (o.initialized, o.amount, o.tenantName, o.tenantEmail, o.status);\n    }\n\n    function reviewOffer(bool result, string tenantEmail) payable public\n        ownerOnly()\n        offerExists(tenantEmail)\n        offerInStatus(OfferStatus.PENDING, tenantEmail)\n    {\n        tenantOfferMap[tenantEmail].status = result ? OfferStatus.ACCEPTED : OfferStatus.REJECTED;\n    }\n\n    function submitDraft(string tenantEmail, string landlordName, string agreementTenantName, string agreementTenantEmail,\n        uint leaseStart, uint handoverDate, uint leasePeriod, string otherTerms, string hash) payable public\n        ownerOnly()\n        offerExists(tenantEmail)\n        offerInStatus(OfferStatus.ACCEPTED, tenantEmail)\n        agreementCanBeSubmitted(tenantEmail)\n    {\n        var amount = tenantOfferMap[tenantEmail].amount;\n        tenantAgreementMap[tenantEmail] = AgreementDraft(landlordName,\n            agreementTenantName, agreementTenantEmail,\n            amount, leaseStart,\n            handoverDate, leasePeriod,\n            otherTerms, hash, \"\", \"\", AgreementStatus.PENDING);\n    }\n\n    // getAgreement functions:\n    // can only return tuple of max 7 elements, otherwise throws \"Stack too geep\"\n    // solution: splitted into multiple functions\n\n    function getAgreementParticipants(string tenantEmail) view public ownerOnly() returns (string, string, string) {\n        var a = tenantAgreementMap[tenantEmail];\n        return (a.landlordName, a.tenantName, a.tenantEmail);\n    }\n\n    function getAgreementDetails(string tenantEmail) view public ownerOnly() returns (int, uint, uint, uint, string) {\n        var a = tenantAgreementMap[tenantEmail];\n        return (a.amount, a.leaseStart, a.handoverDate, a.leasePeriod, a.otherTerms);\n    }\n\n    function getAgreementHashes(string tenantEmail) view public ownerOnly() returns (string, string, string) {\n        var a = tenantAgreementMap[tenantEmail];\n        return (a.hash, a.landlordSignedHash, a.tenantSignedHash);\n    }\n\n    function getAgreementStatus(string tenantEmail) view public ownerOnly() returns (AgreementStatus) {\n        var a = tenantAgreementMap[tenantEmail];\n        return (a.status);\n    }\n\n    function reviewAgreement(string tenantEmail, bool result) payable public\n        ownerOnly()\n        offerExists(tenantEmail)\n        offerInStatus(OfferStatus.ACCEPTED, tenantEmail)\n        agreementInStatus(AgreementStatus.PENDING, tenantEmail)\n    {\n        tenantAgreementMap[tenantEmail].status = result ? AgreementStatus.CONFIRMED : AgreementStatus.REJECTED;\n    }\n\n    function landlordSignAgreement(string tenantEmail, string landlordSignedHash) payable public\n        ownerOnly()\n        notLocked()\n        offerExists(tenantEmail)\n        offerInStatus(OfferStatus.ACCEPTED, tenantEmail)\n        agreementInStatus(AgreementStatus.CONFIRMED, tenantEmail)\n    {\n        tenantAgreementMap[tenantEmail].landlordSignedHash = landlordSignedHash;\n        tenantAgreementMap[tenantEmail].status = AgreementStatus.LANDLORD_SIGNED;\n        locked = true;\n    }\n\n    function tenantSignAgreement(string tenantEmail, string tenantSignedHash) payable public\n        ownerOnly()\n        offerExists(tenantEmail)\n        offerInStatus(OfferStatus.ACCEPTED, tenantEmail)\n        agreementInStatus(AgreementStatus.LANDLORD_SIGNED, tenantEmail)\n    {\n        tenantAgreementMap[tenantEmail].tenantSignedHash = tenantSignedHash;\n        tenantAgreementMap[tenantEmail].status = AgreementStatus.TENANT_SIGNED;\n    }\n\n    function cancelAgreement(string tenantEmail) payable public\n        ownerOnly()\n        agreementCancellable(tenantEmail)\n    {\n        tenantAgreementMap[tenantEmail].status = AgreementStatus.CANCELLED;\n        locked = false;\n    }\n\n    function receiveFirstMonthRent(string tenantEmail) payable public\n        ownerOnly()\n        offerExists(tenantEmail)\n        offerInStatus(OfferStatus.ACCEPTED, tenantEmail)\n        agreementInStatus(AgreementStatus.TENANT_SIGNED, tenantEmail)\n    {\n        tenantAgreementMap[tenantEmail].status = AgreementStatus.COMPLETED;\n    }\n}\n",
  "sourcePath": "/Users/Indrek/Ulikool/Thesis/blockchain-real-estate-baseline/ethereum/contracts/EnlistmentToContract.sol",
  "compiler": {
    "name": "solc",
    "version": "0.4.19+commit.c4cbbb05.Emscripten.clang"
  },
  "schemaVersion": "1.0.1",
  "updatedAt": "2018-04-23T13:23:55.727Z"
}