{
  "contractName": "EnlistmentRegistry",
  "abi": [
    {
      "constant": true,
      "inputs": [
        {
          "name": "tenantEmail",
          "type": "string"
        }
      ],
      "name": "getEnlistmentsByBidder",
      "outputs": [
        {
          "name": "",
          "type": "address[]"
        }
      ],
      "payable": false,
      "stateMutability": "view",
      "type": "function"
    },
    {
      "constant": true,
      "inputs": [
        {
          "name": "landlordEmail",
          "type": "string"
        }
      ],
      "name": "getEnlistmentsByLandlord",
      "outputs": [
        {
          "name": "",
          "type": "address[]"
        }
      ],
      "payable": false,
      "stateMutability": "view",
      "type": "function"
    },
    {
      "constant": true,
      "inputs": [
        {
          "name": "lat",
          "type": "int256"
        },
        {
          "name": "lng",
          "type": "int256"
        },
        {
          "name": "searchRadius",
          "type": "uint256"
        }
      ],
      "name": "geosearch",
      "outputs": [
        {
          "name": "",
          "type": "address[]"
        }
      ],
      "payable": false,
      "stateMutability": "view",
      "type": "function"
    },
    {
      "constant": true,
      "inputs": [],
      "name": "getOwner",
      "outputs": [
        {
          "name": "",
          "type": "address"
        }
      ],
      "payable": false,
      "stateMutability": "view",
      "type": "function"
    },
    {
      "constant": true,
      "inputs": [],
      "name": "getEnlistments",
      "outputs": [
        {
          "name": "",
          "type": "address[]"
        }
      ],
      "payable": false,
      "stateMutability": "view",
      "type": "function"
    },
    {
      "constant": false,
      "inputs": [
        {
          "name": "enlistmentAddress",
          "type": "address"
        }
      ],
      "name": "addEnlistment",
      "outputs": [],
      "payable": true,
      "stateMutability": "payable",
      "type": "function"
    },
    {
      "constant": true,
      "inputs": [
        {
          "name": "lat",
          "type": "int256"
        },
        {
          "name": "lng",
          "type": "int256"
        },
        {
          "name": "searchRadius",
          "type": "uint256"
        }
      ],
      "name": "geosearchBitSet",
      "outputs": [
        {
          "name": "result",
          "type": "uint256"
        }
      ],
      "payable": false,
      "stateMutability": "view",
      "type": "function"
    },
    {
      "inputs": [],
      "payable": false,
      "stateMutability": "nonpayable",
      "type": "constructor"
    }
  ],
  "bytecode": "0x6060604052341561000f57600080fd5b33600160006101000a81548173ffffffffffffffffffffffffffffffffffffffff021916908373ffffffffffffffffffffffffffffffffffffffff160217905550610db88061005f6000396000f300606060405260043610610082576000357c0100000000000000000000000000000000000000000000000000000000900463ffffffff168062225efd1461008757806362587e771461013957806382ab4e6e146101eb578063893d20e814610275578063a88d8c26146102ca578063bdb7f58114610334578063c8f223ae14610362575b600080fd5b341561009257600080fd5b6100e2600480803590602001908201803590602001908080601f016020809104026020016040519081016040528093929190818152602001838380828437820191505050505050919050506103ab565b6040518080602001828103825283818151815260200191508051906020019060200280838360005b8381101561012557808201518184015260208101905061010a565b505050509050019250505060405180910390f35b341561014457600080fd5b610194600480803590602001908201803590602001908080601f01602080910402602001604051908101604052809392919081815260200183838082843782019150505050505091905050610598565b6040518080602001828103825283818151815260200191508051906020019060200280838360005b838110156101d75780820151818401526020810190506101bc565b505050509050019250505060405180910390f35b34156101f657600080fd5b61021e6004808035906020019091908035906020019091908035906020019091905050610781565b6040518080602001828103825283818151815260200191508051906020019060200280838360005b83811015610261578082015181840152602081019050610246565b505050509050019250505060405180910390f35b341561028057600080fd5b6102886109eb565b604051808273ffffffffffffffffffffffffffffffffffffffff1673ffffffffffffffffffffffffffffffffffffffff16815260200191505060405180910390f35b34156102d557600080fd5b6102dd610a15565b6040518080602001828103825283818151815260200191508051906020019060200280838360005b83811015610320578082015181840152602081019050610305565b505050509050019250505060405180910390f35b610360600480803573ffffffffffffffffffffffffffffffffffffffff16906020019091905050610b05565b005b341561036d57600080fd5b6103956004808035906020019091908035906020019091908035906020019091905050610b6b565b6040518082815260200191505060405180910390f35b6103b3610d27565b6103bb610d27565b600080600080805490506040518059106103d25750595b90808252806020026020018201604052509350600092505b60008054905083101561058c5760008381548110151561040657fe5b906000526020600020900160009054906101000a900473ffffffffffffffffffffffffffffffffffffffff1691508190508073ffffffffffffffffffffffffffffffffffffffff1663cdb1ca6a876000604051602001526040518263ffffffff167c01000000000000000000000000000000000000000000000000000000000281526004018080602001828103825283818151815260200191508051906020019080838360005b838110156104c85780820151818401526020810190506104ad565b50505050905090810190601f1680156104f55780820380516001836020036101000a031916815260200191505b5092505050602060405180830381600087803b151561051357600080fd5b6102c65a03f1151561052457600080fd5b505050604051805190501561057f5781848481518110151561054257fe5b9060200190602002019073ffffffffffffffffffffffffffffffffffffffff16908173ffffffffffffffffffffffffffffffffffffffff16815250505b82806001019350506103ea565b83945050505050919050565b6105a0610d27565b6105a8610d27565b600080600080805490506040518059106105bf5750595b90808252806020026020018201604052509350600092505b600080549050831015610775576000838154811015156105f357fe5b906000526020600020900160009054906101000a900473ffffffffffffffffffffffffffffffffffffffff1691508190508073ffffffffffffffffffffffffffffffffffffffff166322e8e9eb6000604051602001526040518163ffffffff167c0100000000000000000000000000000000000000000000000000000000028152600401602060405180830381600087803b151561069057600080fd5b6102c65a03f115156106a157600080fd5b5050506040518051905060001916866040518082805190602001908083835b6020831015156106e557805182526020820191506020810190506020830392506106c0565b6001836020036101000a03801982511681845116808217855250505050505090500191505060405180910390206000191614156107685781848481518110151561072b57fe5b9060200190602002019073ffffffffffffffffffffffffffffffffffffffff16908173ffffffffffffffffffffffffffffffffffffffff16815250505b82806001019350506105d7565b83945050505050919050565b610789610d27565b610791610d27565b600080600080805490506040518059106107a85750595b90808252806020026020018201604052509350600092505b6000805490508310156109dd576000838154811015156107dc57fe5b906000526020600020900160009054906101000a900473ffffffffffffffffffffffffffffffffffffffff1673ffffffffffffffffffffffffffffffffffffffff166303a935986000604051604001526040518163ffffffff167c01000000000000000000000000000000000000000000000000000000000281526004016040805180830381600087803b151561087257600080fd5b6102c65a03f1151561088357600080fd5b50505060405180519060200180519050915091508573__GeoDistance___________________________63019898058a8a86866000604051602001526040518563ffffffff167c0100000000000000000000000000000000000000000000000000000000028152600401808581526020018481526020018360030b81526020018260030b815260200194505050505060206040518083038186803b151561092957600080fd5b6102c65a03f4151561093a57600080fd5b5050506040518051905010156109d05760008381548110151561095957fe5b906000526020600020900160009054906101000a900473ffffffffffffffffffffffffffffffffffffffff16848481518110151561099357fe5b9060200190602002019073ffffffffffffffffffffffffffffffffffffffff16908173ffffffffffffffffffffffffffffffffffffffff16815250505b82806001019350506107c0565b839450505050509392505050565b6000600160009054906101000a900473ffffffffffffffffffffffffffffffffffffffff16905090565b610a1d610d27565b600160009054906101000a900473ffffffffffffffffffffffffffffffffffffffff1673ffffffffffffffffffffffffffffffffffffffff163373ffffffffffffffffffffffffffffffffffffffff16141515610a7957600080fd5b6000805480602002602001604051908101604052809291908181526020018280548015610afb57602002820191906000526020600020905b8160009054906101000a900473ffffffffffffffffffffffffffffffffffffffff1673ffffffffffffffffffffffffffffffffffffffff1681526020019060010190808311610ab1575b5050505050905090565b60008054806001018281610b199190610d3b565b9160005260206000209001600083909190916101000a81548173ffffffffffffffffffffffffffffffffffffffff021916908373ffffffffffffffffffffffffffffffffffffffff1602179055505050565b60008060008060009350600092505b600080549050831015610d1a57600083815481101515610b9657fe5b906000526020600020900160009054906101000a900473ffffffffffffffffffffffffffffffffffffffff1673ffffffffffffffffffffffffffffffffffffffff166303a935986000604051604001526040518163ffffffff167c01000000000000000000000000000000000000000000000000000000000281526004016040805180830381600087803b1515610c2c57600080fd5b6102c65a03f11515610c3d57600080fd5b50505060405180519060200180519050915091508473__GeoDistance___________________________6301989805898986866000604051602001526040518563ffffffff167c0100000000000000000000000000000000000000000000000000000000028152600401808581526020018481526020018360030b81526020018260030b815260200194505050505060206040518083038186803b1515610ce357600080fd5b6102c65a03f41515610cf457600080fd5b505050604051805190501015610d0d578260020a841793505b8280600101935050610b7a565b8393505050509392505050565b602060405190810160405280600081525090565b815481835581811511610d6257818360005260206000209182019101610d619190610d67565b5b505050565b610d8991905b80821115610d85576000816000905550600101610d6d565b5090565b905600a165627a7a72305820bff2f4a0211368914b87608542ef855d2bf20a0eb3c1babd7e36d3021affe1e30029",
  "source": "pragma solidity ^0.4.18;\n\ninterface Enlistment {\n    function getCoords() view external returns(int32, int32);\n    function hasBid(string tenantEmail) view external returns (bool);\n    function getLandlordEmailKeccak256() view external returns(bytes32);\n}\n\nimport \"./GeoDistance.sol\";\n\n// TODO: should guard for duplicates\n\ncontract EnlistmentRegistry {\n\n    address[] enlistments;\n    address owner;\n\n    function EnlistmentRegistry() public {\n        owner = msg.sender;\n    }\n\n    function addEnlistment(address enlistmentAddress) payable public {\n        enlistments.push(enlistmentAddress);\n    }\n\n    function geosearchBitSet(int lat, int lng, uint searchRadius) view public returns (uint result) {\n        result = 0;\n        for (uint i = 0; i < enlistments.length; i++) {\n            var (enlistmentLat, enlistmentLng) = Enlistment(enlistments[i]).getCoords();\n            if (GeoDistance.distance(lat, lng, enlistmentLat, enlistmentLng) < searchRadius) {\n                result = result | 2 ** i;  // bignumber.tostring(2)\n            }\n        }\n        return result;\n    }\n\n    function geosearch(int lat, int lng, uint searchRadius) view public returns (address[]) {\n        address[] memory result = new address[](enlistments.length);\n        for (uint i = 0; i < enlistments.length; i++) {\n            var (enlistmentLat, enlistmentLng) = Enlistment(enlistments[i]).getCoords();\n            if (GeoDistance.distance(lat, lng, enlistmentLat, enlistmentLng) < searchRadius) {\n                result[i] = enlistments[i];\n            }\n        }\n        return result;\n    }\n\n    function getEnlistmentsByBidder(string tenantEmail) view public returns(address[]) {\n        address[] memory result = new address[](enlistments.length);\n        for (uint i = 0; i < enlistments.length; i++) {\n            var en = enlistments[i];\n            Enlistment enlistmentContractInstance = Enlistment(en);\n            if (enlistmentContractInstance.hasBid(tenantEmail)) {\n                result[i] = en;\n            }\n        }\n        return result;\n    }\n\n    function getEnlistmentsByLandlord(string landlordEmail) view public returns(address[]) {\n        address[] memory result = new address[](enlistments.length);\n        for (uint i = 0; i < enlistments.length; i++) {\n            var en = enlistments[i];\n            Enlistment enlistmentContractInstance = Enlistment(en);\n            if (keccak256(landlordEmail) == enlistmentContractInstance.getLandlordEmailKeccak256()) {\n                result[i] = en;\n            }\n        }\n\n        return result;\n\n    }\n\n    function getEnlistments() view public ownerOnly() returns(address[]) {\n        return enlistments;\n    }\n\n    function getOwner() view public returns (address) {\n        return owner;\n    }\n\n    modifier ownerOnly() {\n        require(msg.sender == owner);\n        _;\n    }\n\n}\n",
  "sourcePath": "/Users/Indrek/Ulikool/Thesis/blockchain-real-estate-baseline/ethereum/contracts/EnlistmentRegistry.sol",
  "compiler": {
    "name": "solc",
    "version": "0.4.19+commit.c4cbbb05.Emscripten.clang"
  },
  "schemaVersion": "1.0.1",
  "updatedAt": "2018-05-08T13:30:27.352Z"
}