{
  "contractName": "Enlistment",
  "abi": [
    {
      "constant": true,
      "inputs": [],
      "name": "locked",
      "outputs": [
        {
          "name": "",
          "type": "bool"
        }
      ],
      "payable": false,
      "stateMutability": "view",
      "type": "function"
    },
    {
      "inputs": [
        {
          "name": "landlordEmail",
          "type": "string"
        },
        {
          "name": "landlordName",
          "type": "string"
        },
        {
          "name": "streetName",
          "type": "string"
        },
        {
          "name": "floorNr",
          "type": "uint256"
        },
        {
          "name": "apartmentNr",
          "type": "uint256"
        },
        {
          "name": "houseNr",
          "type": "uint256"
        },
        {
          "name": "postalCode",
          "type": "uint256"
        },
        {
          "name": "geohash",
          "type": "bytes9"
        },
        {
          "name": "detailsJson",
          "type": "string"
        }
      ],
      "payable": false,
      "stateMutability": "nonpayable",
      "type": "constructor"
    },
    {
      "constant": true,
      "inputs": [],
      "name": "getOwner",
      "outputs": [
        {
          "name": "",
          "type": "address"
        }
      ],
      "payable": false,
      "stateMutability": "view",
      "type": "function"
    },
    {
      "constant": true,
      "inputs": [],
      "name": "getLandlord",
      "outputs": [
        {
          "name": "",
          "type": "string"
        },
        {
          "name": "",
          "type": "string"
        }
      ],
      "payable": false,
      "stateMutability": "view",
      "type": "function"
    },
    {
      "constant": true,
      "inputs": [],
      "name": "getEnlistment",
      "outputs": [
        {
          "name": "",
          "type": "string"
        },
        {
          "name": "",
          "type": "string"
        },
        {
          "name": "",
          "type": "string"
        },
        {
          "name": "",
          "type": "uint256"
        },
        {
          "name": "",
          "type": "uint256"
        },
        {
          "name": "",
          "type": "uint256"
        },
        {
          "name": "",
          "type": "uint256"
        },
        {
          "name": "",
          "type": "bytes9"
        },
        {
          "name": "",
          "type": "string"
        },
        {
          "name": "",
          "type": "bool"
        }
      ],
      "payable": false,
      "stateMutability": "view",
      "type": "function"
    },
    {
      "constant": true,
      "inputs": [],
      "name": "getGeohash",
      "outputs": [
        {
          "name": "",
          "type": "bytes9"
        }
      ],
      "payable": false,
      "stateMutability": "view",
      "type": "function"
    },
    {
      "constant": true,
      "inputs": [
        {
          "name": "tenantEmail",
          "type": "string"
        }
      ],
      "name": "hasBid",
      "outputs": [
        {
          "name": "",
          "type": "bool"
        }
      ],
      "payable": false,
      "stateMutability": "view",
      "type": "function"
    },
    {
      "constant": true,
      "inputs": [],
      "name": "getOfferAuthorsLength",
      "outputs": [
        {
          "name": "",
          "type": "uint256"
        }
      ],
      "payable": false,
      "stateMutability": "view",
      "type": "function"
    },
    {
      "constant": false,
      "inputs": [
        {
          "name": "amount",
          "type": "uint256"
        },
        {
          "name": "tenantName",
          "type": "string"
        },
        {
          "name": "tenantEmail",
          "type": "string"
        }
      ],
      "name": "sendOffer",
      "outputs": [],
      "payable": true,
      "stateMutability": "payable",
      "type": "function"
    },
    {
      "constant": false,
      "inputs": [
        {
          "name": "tenantEmail",
          "type": "string"
        }
      ],
      "name": "cancelOffer",
      "outputs": [],
      "payable": true,
      "stateMutability": "payable",
      "type": "function"
    },
    {
      "constant": true,
      "inputs": [
        {
          "name": "tenantEmail",
          "type": "string"
        }
      ],
      "name": "getOffer",
      "outputs": [
        {
          "name": "",
          "type": "bool"
        },
        {
          "name": "",
          "type": "uint256"
        },
        {
          "name": "",
          "type": "string"
        },
        {
          "name": "",
          "type": "string"
        },
        {
          "name": "",
          "type": "uint8"
        }
      ],
      "payable": false,
      "stateMutability": "view",
      "type": "function"
    },
    {
      "constant": true,
      "inputs": [
        {
          "name": "idx",
          "type": "uint256"
        }
      ],
      "name": "getOfferByIndex",
      "outputs": [
        {
          "name": "",
          "type": "bool"
        },
        {
          "name": "",
          "type": "uint256"
        },
        {
          "name": "",
          "type": "string"
        },
        {
          "name": "",
          "type": "string"
        },
        {
          "name": "",
          "type": "uint8"
        }
      ],
      "payable": false,
      "stateMutability": "view",
      "type": "function"
    },
    {
      "constant": false,
      "inputs": [
        {
          "name": "result",
          "type": "bool"
        },
        {
          "name": "tenantEmail",
          "type": "string"
        }
      ],
      "name": "reviewOffer",
      "outputs": [],
      "payable": true,
      "stateMutability": "payable",
      "type": "function"
    },
    {
      "constant": false,
      "inputs": [
        {
          "name": "tenantEmail",
          "type": "string"
        },
        {
          "name": "landlordName",
          "type": "string"
        },
        {
          "name": "agreementTenantName",
          "type": "string"
        },
        {
          "name": "agreementTenantEmail",
          "type": "string"
        },
        {
          "name": "leaseStart",
          "type": "uint256"
        },
        {
          "name": "handoverDate",
          "type": "uint256"
        },
        {
          "name": "leasePeriod",
          "type": "uint256"
        },
        {
          "name": "otherTerms",
          "type": "string"
        },
        {
          "name": "hash",
          "type": "string"
        }
      ],
      "name": "submitDraft",
      "outputs": [],
      "payable": true,
      "stateMutability": "payable",
      "type": "function"
    },
    {
      "constant": true,
      "inputs": [
        {
          "name": "tenantEmail",
          "type": "string"
        }
      ],
      "name": "getAgreementParticipants",
      "outputs": [
        {
          "name": "",
          "type": "string"
        },
        {
          "name": "",
          "type": "string"
        },
        {
          "name": "",
          "type": "string"
        }
      ],
      "payable": false,
      "stateMutability": "view",
      "type": "function"
    },
    {
      "constant": true,
      "inputs": [
        {
          "name": "tenantEmail",
          "type": "string"
        }
      ],
      "name": "getAgreementDetails",
      "outputs": [
        {
          "name": "",
          "type": "uint256"
        },
        {
          "name": "",
          "type": "uint256"
        },
        {
          "name": "",
          "type": "uint256"
        },
        {
          "name": "",
          "type": "uint256"
        },
        {
          "name": "",
          "type": "string"
        }
      ],
      "payable": false,
      "stateMutability": "view",
      "type": "function"
    },
    {
      "constant": true,
      "inputs": [
        {
          "name": "tenantEmail",
          "type": "string"
        }
      ],
      "name": "getAgreementHashes",
      "outputs": [
        {
          "name": "",
          "type": "string"
        },
        {
          "name": "",
          "type": "string"
        },
        {
          "name": "",
          "type": "string"
        }
      ],
      "payable": false,
      "stateMutability": "view",
      "type": "function"
    },
    {
      "constant": true,
      "inputs": [
        {
          "name": "tenantEmail",
          "type": "string"
        }
      ],
      "name": "getAgreementStatus",
      "outputs": [
        {
          "name": "",
          "type": "uint8"
        }
      ],
      "payable": false,
      "stateMutability": "view",
      "type": "function"
    },
    {
      "constant": false,
      "inputs": [
        {
          "name": "tenantEmail",
          "type": "string"
        },
        {
          "name": "result",
          "type": "bool"
        }
      ],
      "name": "reviewAgreement",
      "outputs": [],
      "payable": true,
      "stateMutability": "payable",
      "type": "function"
    },
    {
      "constant": false,
      "inputs": [
        {
          "name": "tenantEmail",
          "type": "string"
        },
        {
          "name": "landlordSignedHash",
          "type": "string"
        }
      ],
      "name": "landlordSignAgreement",
      "outputs": [],
      "payable": true,
      "stateMutability": "payable",
      "type": "function"
    },
    {
      "constant": false,
      "inputs": [
        {
          "name": "tenantEmail",
          "type": "string"
        },
        {
          "name": "tenantSignedHash",
          "type": "string"
        }
      ],
      "name": "tenantSignAgreement",
      "outputs": [],
      "payable": true,
      "stateMutability": "payable",
      "type": "function"
    },
    {
      "constant": false,
      "inputs": [
        {
          "name": "tenantEmail",
          "type": "string"
        }
      ],
      "name": "cancelAgreement",
      "outputs": [],
      "payable": true,
      "stateMutability": "payable",
      "type": "function"
    },
    {
      "constant": false,
      "inputs": [
        {
          "name": "tenantEmail",
          "type": "string"
        }
      ],
      "name": "receiveFirstMonthRent",
      "outputs": [],
      "payable": true,
      "stateMutability": "payable",
      "type": "function"
    }
  ],
  "bytecode": "0x606060405260008060146101000a81548160ff02191690831515021790555034156200002a57600080fd5b60405162004a0d38038062004a0d83398101604052808051820191906020018051820191906020018051820191906020018051906020019091908051906020019091908051906020019091908051906020019091908051906020019091908051820191905050610120604051908101604052808a81526020018981526020018881526020018781526020018681526020018581526020018481526020018376ffffffffffffffffffffffffffffffffffffffffffffff1916815260200182815250600160008201518160000190805190602001906200010b92919062000225565b5060208201518160010190805190602001906200012a92919062000225565b5060408201518160020190805190602001906200014992919062000225565b50606082015181600301556080820151816004015560a0820151816005015560c0820151816006015560e08201518160070160006101000a81548168ffffffffffffffffff02191690837701000000000000000000000000000000000000000000000090040217905550610100820151816008019080519060200190620001d292919062000225565b50905050336000806101000a81548173ffffffffffffffffffffffffffffffffffffffff021916908373ffffffffffffffffffffffffffffffffffffffff160217905550505050505050505050620002d4565b828054600181600116156101000203166002900490600052602060002090601f016020900481019282601f106200026857805160ff191683800117855562000299565b8280016001018555821562000299579182015b82811115620002985782518255916020019190600101906200027b565b5b509050620002a89190620002ac565b5090565b620002d191905b80821115620002cd576000816000905550600101620002b3565b5090565b90565b61472980620002e46000396000f300606060405260043610610127576000357c0100000000000000000000000000000000000000000000000000000000900463ffffffff168062ff22c61461012c57806303746e06146101c15780630b8df0ba14610256578063222a7af9146102b3578063265adc331461046f5780632d63ce27146105615780632fcc176d146105b357806331ae8ed0146106105780634d45780e14610844578063673a95ef1461089657806371ca1587146108f35780637a51011614610aa1578063893d20e814610c0a5780639450a7dc14610c5f578063a578945c14610c88578063cdb1ca6a14610d26578063cf30901214610d9b578063d441a15214610dc8578063e359a0a114610f76578063ec2b2a12146110a5578063f278f78414611124578063f502236d14611176575b600080fd5b6101bf600480803590602001908201803590602001908080601f0160208091040260200160405190810160405280939291908181526020018383808284378201915050505050509190803590602001908201803590602001908080601f01602080910402602001604051908101604052809392919081815260200183838082843782019150505050505091905050611270565b005b610254600480803590602001908201803590602001908080601f0160208091040260200160405190810160405280939291908181526020018383808284378201915050505050509190803590602001908201803590602001908080601f016020809104026020016040519081016040528093929190818152602001838380828437820191505050505050919050506115ba565b005b341561026157600080fd5b61026961193b565b604051808276ffffffffffffffffffffffffffffffffffffffffffffff191676ffffffffffffffffffffffffffffffffffffffffffffff1916815260200191505060405180910390f35b61046d600480803590602001908201803590602001908080601f0160208091040260200160405190810160405280939291908181526020018383808284378201915050505050509190803590602001908201803590602001908080601f0160208091040260200160405190810160405280939291908181526020018383808284378201915050505050509190803590602001908201803590602001908080601f0160208091040260200160405190810160405280939291908181526020018383808284378201915050505050509190803590602001908201803590602001908080601f0160208091040260200160405190810160405280939291908181526020018383808284378201915050505050509190803590602001909190803590602001909190803590602001909190803590602001908201803590602001908080601f0160208091040260200160405190810160405280939291908181526020018383808284378201915050505050509190803590602001908201803590602001908080601f0160208091040260200160405190810160405280939291908181526020018383808284378201915050505050509190505061196c565b005b341561047a57600080fd5b6104ca600480803590602001908201803590602001908080601f01602080910402602001604051908101604052809392919081815260200183838082843782019150505050505091905050611f61565b6040518086815260200185815260200184815260200183815260200180602001828103825283818151815260200191508051906020019080838360005b83811015610522578082015181840152602081019050610507565b50505050905090810190601f16801561054f5780820380516001836020036101000a031916815260200191505b50965050505050505060405180910390f35b6105b1600480803590602001908201803590602001908080601f01602080910402602001604051908101604052809392919081815260200183838082843782019150505050505091905050612101565b005b61060e6004808035151590602001909190803590602001908201803590602001908080601f01602080910402602001604051908101604052809392919081815260200183838082843782019150505050505091905050612574565b005b341561061b57600080fd5b6106236127a4565b604051808060200180602001806020018b81526020018a81526020018981526020018881526020018776ffffffffffffffffffffffffffffffffffffffffffffff191676ffffffffffffffffffffffffffffffffffffffffffffff19168152602001806020018615151515815260200185810385528f818151815260200191508051906020019080838360005b838110156106cb5780820151818401526020810190506106b0565b50505050905090810190601f1680156106f85780820380516001836020036101000a031916815260200191505b5085810384528e818151815260200191508051906020019080838360005b83811015610731578082015181840152602081019050610716565b50505050905090810190601f16801561075e5780820380516001836020036101000a031916815260200191505b5085810383528d818151815260200191508051906020019080838360005b8381101561079757808201518184015260208101905061077c565b50505050905090810190601f1680156107c45780820380516001836020036101000a031916815260200191505b50858103825287818151815260200191508051906020019080838360005b838110156107fd5780820151818401526020810190506107e2565b50505050905090810190601f16801561082a5780820380516001836020036101000a031916815260200191505b509e50505050505050505050505050505060405180910390f35b610894600480803590602001908201803590602001908080601f01602080910402602001604051908101604052809392919081815260200183838082843782019150505050505091905050612b1e565b005b6108f1600480803590602001908201803590602001908080601f016020809104026020016040519081016040528093929190818152602001838380828437820191505050505050919080351515906020019091905050612de4565b005b34156108fe57600080fd5b61094e600480803590602001908201803590602001908080601f016020809104026020016040519081016040528093929190818152602001838380828437820191505050505050919050506130b8565b60405180806020018060200180602001848103845287818151815260200191508051906020019080838360005b8381101561099657808201518184015260208101905061097b565b50505050905090810190601f1680156109c35780820380516001836020036101000a031916815260200191505b50848103835286818151815260200191508051906020019080838360005b838110156109fc5780820151818401526020810190506109e1565b50505050905090810190601f168015610a295780820380516001836020036101000a031916815260200191505b50848103825285818151815260200191508051906020019080838360005b83811015610a62578082015181840152602081019050610a47565b50505050905090810190601f168015610a8f5780820380516001836020036101000a031916815260200191505b50965050505050505060405180910390f35b3415610aac57600080fd5b610afc600480803590602001908201803590602001908080601f01602080910402602001604051908101604052809392919081815260200183838082843782019150505050505091905050613388565b60405180861515151581526020018581526020018060200180602001846003811115610b2457fe5b60ff168152602001838103835286818151815260200191508051906020019080838360005b83811015610b64578082015181840152602081019050610b49565b50505050905090810190601f168015610b915780820380516001836020036101000a031916815260200191505b50838103825285818151815260200191508051906020019080838360005b83811015610bca578082015181840152602081019050610baf565b50505050905090810190601f168015610bf75780820380516001836020036101000a031916815260200191505b5097505050505050505060405180910390f35b3415610c1557600080fd5b610c1d6135e3565b604051808273ffffffffffffffffffffffffffffffffffffffff1673ffffffffffffffffffffffffffffffffffffffff16815260200191505060405180910390f35b3415610c6a57600080fd5b610c72613667565b6040518082815260200191505060405180910390f35b610d24600480803590602001909190803590602001908201803590602001908080601f0160208091040260200160405190810160405280939291908181526020018383808284378201915050505050509190803590602001908201803590602001908080601f01602080910402602001604051908101604052809392919081815260200183838082843782019150505050505091905050613674565b005b3415610d3157600080fd5b610d81600480803590602001908201803590602001908080601f01602080910402602001604051908101604052809392919081815260200183838082843782019150505050505091905050613a32565b604051808215151515815260200191505060405180910390f35b3415610da657600080fd5b610dae613abe565b604051808215151515815260200191505060405180910390f35b3415610dd357600080fd5b610e23600480803590602001908201803590602001908080601f01602080910402602001604051908101604052809392919081815260200183838082843782019150505050505091905050613ad1565b60405180806020018060200180602001848103845287818151815260200191508051906020019080838360005b83811015610e6b578082015181840152602081019050610e50565b50505050905090810190601f168015610e985780820380516001836020036101000a031916815260200191505b50848103835286818151815260200191508051906020019080838360005b83811015610ed1578082015181840152602081019050610eb6565b50505050905090810190601f168015610efe5780820380516001836020036101000a031916815260200191505b50848103825285818151815260200191508051906020019080838360005b83811015610f37578082015181840152602081019050610f1c565b50505050905090810190601f168015610f645780820380516001836020036101000a031916815260200191505b50965050505050505060405180910390f35b3415610f8157600080fd5b610f976004808035906020019091905050613da1565b60405180861515151581526020018581526020018060200180602001846003811115610fbf57fe5b60ff168152602001838103835286818151815260200191508051906020019080838360005b83811015610fff578082015181840152602081019050610fe4565b50505050905090810190601f16801561102c5780820380516001836020036101000a031916815260200191505b50838103825285818151815260200191508051906020019080838360005b8381101561106557808201518184015260208101905061104a565b50505050905090810190601f1680156110925780820380516001836020036101000a031916815260200191505b5097505050505050505060405180910390f35b34156110b057600080fd5b611100600480803590602001908201803590602001908080601f0160208091040260200160405190810160405280939291908181526020018383808284378201915050505050509190505061401b565b6040518082600781111561111057fe5b60ff16815260200191505060405180910390f35b611174600480803590602001908201803590602001908080601f01602080910402602001604051908101604052809392919081815260200183838082843782019150505050505091905050614100565b005b341561118157600080fd5b611189614313565b604051808060200180602001838103835285818151815260200191508051906020019080838360005b838110156111cd5780820151818401526020810190506111b2565b50505050905090810190601f1680156111fa5780820380516001836020036101000a031916815260200191505b50838103825284818151815260200191508051906020019080838360005b83811015611233578082015181840152602081019050611218565b50505050905090810190601f1680156112605780820380516001836020036101000a031916815260200191505b5094505050505060405180910390f35b6000809054906101000a900473ffffffffffffffffffffffffffffffffffffffff1673ffffffffffffffffffffffffffffffffffffffff163373ffffffffffffffffffffffffffffffffffffffff161415156112cb57600080fd5b8160011515600a826040518082805190602001908083835b60208310151561130857805182526020820191506020810190506020830392506112e3565b6001836020036101000a038019825116818451168082178552505050505050905001915050908152602001604051809103902060000160009054906101000a900460ff16151514151561135a57600080fd5b60038381600381111561136957fe5b600a826040518082805190602001908083835b6020831015156113a1578051825260208201915060208101905060208303925061137c565b6001836020036101000a038019825116818451168082178552505050505050905001915050908152602001604051809103902060040160009054906101000a900460ff1660038111156113f057fe5b1415156113fc57600080fd5b60058581600781111561140b57fe5b600c826040518082805190602001908083835b602083101515611443578051825260208201915060208101905060208303925061141e565b6001836020036101000a0380198251168184511680821785525050505050509050019150509081526020016040518091039020600b0160009054906101000a900460ff16600781111561149257fe5b14151561149e57600080fd5b85600c886040518082805190602001908083835b6020831015156114d757805182526020820191506020810190506020830392506114b2565b6001836020036101000a0380198251168184511680821785525050505050509050019150509081526020016040518091039020600a0190805190602001906115209291906144c7565b506006600c886040518082805190602001908083835b60208310151561155b5780518252602082019150602081019050602083039250611536565b6001836020036101000a0380198251168184511680821785525050505050509050019150509081526020016040518091039020600b0160006101000a81548160ff021916908360078111156115ac57fe5b021790555050505050505050565b6000809054906101000a900473ffffffffffffffffffffffffffffffffffffffff1673ffffffffffffffffffffffffffffffffffffffff163373ffffffffffffffffffffffffffffffffffffffff1614151561161557600080fd5b600060149054906101000a900460ff1615151561163157600080fd5b8160011515600a826040518082805190602001908083835b60208310151561166e5780518252602082019150602081019050602083039250611649565b6001836020036101000a038019825116818451168082178552505050505050905001915050908152602001604051809103902060000160009054906101000a900460ff1615151415156116c057600080fd5b6003838160038111156116cf57fe5b600a826040518082805190602001908083835b60208310151561170757805182526020820191506020810190506020830392506116e2565b6001836020036101000a038019825116818451168082178552505050505050905001915050908152602001604051809103902060040160009054906101000a900460ff16600381111561175657fe5b14151561176257600080fd5b60038581600781111561177157fe5b600c826040518082805190602001908083835b6020831015156117a95780518252602082019150602081019050602083039250611784565b6001836020036101000a0380198251168184511680821785525050505050509050019150509081526020016040518091039020600b0160009054906101000a900460ff1660078111156117f857fe5b14151561180457600080fd5b85600c886040518082805190602001908083835b60208310151561183d5780518252602082019150602081019050602083039250611818565b6001836020036101000a038019825116818451168082178552505050505050905001915050908152602001604051809103902060090190805190602001906118869291906144c7565b506005600c886040518082805190602001908083835b6020831015156118c1578051825260208201915060208101905060208303925061189c565b6001836020036101000a0380198251168184511680821785525050505050509050019150509081526020016040518091039020600b0160006101000a81548160ff0219169083600781111561191257fe5b02179055506001600060146101000a81548160ff02191690831515021790555050505050505050565b6000600160070160009054906101000a90047701000000000000000000000000000000000000000000000002905090565b60008060009054906101000a900473ffffffffffffffffffffffffffffffffffffffff1673ffffffffffffffffffffffffffffffffffffffff163373ffffffffffffffffffffffffffffffffffffffff161415156119c957600080fd5b8960011515600a826040518082805190602001908083835b602083101515611a0657805182526020820191506020810190506020830392506119e1565b6001836020036101000a038019825116818451168082178552505050505050905001915050908152602001604051809103902060000160009054906101000a900460ff161515141515611a5857600080fd5b60038b816003811115611a6757fe5b600a826040518082805190602001908083835b602083101515611a9f5780518252602082019150602081019050602083039250611a7a565b6001836020036101000a038019825116818451168082178552505050505050905001915050908152602001604051809103902060040160009054906101000a900460ff166003811115611aee57fe5b141515611afa57600080fd5b8c60006007811115611b0857fe5b600c826040518082805190602001908083835b602083101515611b405780518252602082019150602081019050602083039250611b1b565b6001836020036101000a0380198251168184511680821785525050505050509050019150509081526020016040518091039020600b0160009054906101000a900460ff166007811115611b8f57fe5b1480611c2c575060026007811115611ba357fe5b600c826040518082805190602001908083835b602083101515611bdb5780518252602082019150602081019050602083039250611bb6565b6001836020036101000a0380198251168184511680821785525050505050509050019150509081526020016040518091039020600b0160009054906101000a900460ff166007811115611c2a57fe5b145b80611cc8575060046007811115611c3f57fe5b600c826040518082805190602001908083835b602083101515611c775780518252602082019150602081019050602083039250611c52565b6001836020036101000a0380198251168184511680821785525050505050509050019150509081526020016040518091039020600b0160009054906101000a900460ff166007811115611cc657fe5b145b1515611cd357600080fd5b600a8e6040518082805190602001908083835b602083101515611d0b5780518252602082019150602081019050602083039250611ce6565b6001836020036101000a0380198251168184511680821785525050505050509050019150509081526020016040518091039020600101549450610180604051908101604052808e81526020018d81526020018c81526020018681526020018b81526020018a8152602001898152602001888152602001878152602001602060405190810160405280600081525081526020016020604051908101604052806000815250815260200160016007811115611dc057fe5b815250600c8f6040518082805190602001908083835b602083101515611dfb5780518252602082019150602081019050602083039250611dd6565b6001836020036101000a03801982511681845116808217855250505050505090500191505090815260200160405180910390206000820151816000019080519060200190611e4a929190614547565b506020820151816001019080519060200190611e67929190614547565b506040820151816002019080519060200190611e84929190614547565b50606082015181600301556080820151816004015560a0820151816005015560c0820151816006015560e0820151816007019080519060200190611ec9929190614547565b50610100820151816008019080519060200190611ee7929190614547565b50610120820151816009019080519060200190611f05929190614547565b5061014082015181600a019080519060200190611f23929190614547565b5061016082015181600b0160006101000a81548160ff02191690836007811115611f4957fe5b02179055509050505050505050505050505050505050565b600080600080611f6f6145c7565b60008060009054906101000a900473ffffffffffffffffffffffffffffffffffffffff1673ffffffffffffffffffffffffffffffffffffffff163373ffffffffffffffffffffffffffffffffffffffff16141515611fcc57600080fd5b600c876040518082805190602001908083835b6020831015156120045780518252602082019150602081019050602083039250611fdf565b6001836020036101000a03801982511681845116808217855250505050505090500191505090815260200160405180910390209050806003015481600401548260050154836006015484600701808054600181600116156101000203166002900480601f0160208091040260200160405190810160405280929190818152602001828054600181600116156101000203166002900480156120e65780601f106120bb576101008083540402835291602001916120e6565b820191906000526020600020905b8154815290600101906020018083116120c957829003601f168201915b50505050509050955095509550955095505091939590929450565b6000809054906101000a900473ffffffffffffffffffffffffffffffffffffffff1673ffffffffffffffffffffffffffffffffffffffff163373ffffffffffffffffffffffffffffffffffffffff1614151561215c57600080fd5b8060011515600a826040518082805190602001908083835b6020831015156121995780518252602082019150602081019050602083039250612174565b6001836020036101000a038019825116818451168082178552505050505050905001915050908152602001604051809103902060000160009054906101000a900460ff1615151415156121eb57600080fd5b81600080600a836040518082805190602001908083835b6020831015156122275780518252602082019150602081019050602083039250612202565b6001836020036101000a038019825116818451168082178552505050505050905001915050908152602001604051809103902060040160009054906101000a900460ff1691506000600381111561227a57fe5b82600381111561228657fe5b14806122a7575060038081111561229957fe5b8260038111156122a557fe5b145b15156122b257600080fd5b600c836040518082805190602001908083835b6020831015156122ea57805182526020820191506020810190506020830392506122c5565b6001836020036101000a0380198251168184511680821785525050505050509050019150509081526020016040518091039020600b0160009054906101000a900460ff1690506004600781111561233d57fe5b81600781111561234957fe5b148061236b57506006600781111561235d57fe5b81600781111561236957fe5b145b8061238b575060078081111561237d57fe5b81600781111561238957fe5b145b15151561239757600080fd5b6002600a866040518082805190602001908083835b6020831015156123d157805182526020820191506020810190506020830392506123ac565b6001836020036101000a038019825116818451168082178552505050505050905001915050908152602001604051809103902060040160006101000a81548160ff0219169083600381111561242257fe5b02179055506000600781111561243457fe5b600c866040518082805190602001908083835b60208310151561246c5780518252602082019150602081019050602083039250612447565b6001836020036101000a0380198251168184511680821785525050505050509050019150509081526020016040518091039020600b0160009054906101000a900460ff1660078111156124bb57fe5b141515612553576004600c866040518082805190602001908083835b6020831015156124fc57805182526020820191506020810190506020830392506124d7565b6001836020036101000a0380198251168184511680821785525050505050509050019150509081526020016040518091039020600b0160006101000a81548160ff0219169083600781111561254d57fe5b02179055505b60008060146101000a81548160ff0219169083151502179055505050505050565b6000809054906101000a900473ffffffffffffffffffffffffffffffffffffffff1673ffffffffffffffffffffffffffffffffffffffff163373ffffffffffffffffffffffffffffffffffffffff161415156125cf57600080fd5b8060011515600a826040518082805190602001908083835b60208310151561260c57805182526020820191506020810190506020830392506125e7565b6001836020036101000a038019825116818451168082178552505050505050905001915050908152602001604051809103902060000160009054906101000a900460ff16151514151561265e57600080fd5b60008281600381111561266d57fe5b600a826040518082805190602001908083835b6020831015156126a55780518252602082019150602081019050602083039250612680565b6001836020036101000a038019825116818451168082178552505050505050905001915050908152602001604051809103902060040160009054906101000a900460ff1660038111156126f457fe5b14151561270057600080fd5b8461270c57600161270f565b60035b600a856040518082805190602001908083835b6020831015156127475780518252602082019150602081019050602083039250612722565b6001836020036101000a038019825116818451168082178552505050505050905001915050908152602001604051809103902060040160006101000a81548160ff0219169083600381111561279857fe5b02179055505050505050565b6127ac6145c7565b6127b46145c7565b6127bc6145c7565b60008060008060006127cc6145c7565b60008060009054906101000a900473ffffffffffffffffffffffffffffffffffffffff1673ffffffffffffffffffffffffffffffffffffffff163373ffffffffffffffffffffffffffffffffffffffff1614151561282957600080fd5b6001600001600180016001600201600160030154600160040154600160050154600160060154600160070160009054906101000a900477010000000000000000000000000000000000000000000000026001600801600060149054906101000a900460ff16898054600181600116156101000203166002900480601f0160208091040260200160405190810160405280929190818152602001828054600181600116156101000203166002900480156129235780601f106128f857610100808354040283529160200191612923565b820191906000526020600020905b81548152906001019060200180831161290657829003601f168201915b50505050509950888054600181600116156101000203166002900480601f0160208091040260200160405190810160405280929190818152602001828054600181600116156101000203166002900480156129bf5780601f10612994576101008083540402835291602001916129bf565b820191906000526020600020905b8154815290600101906020018083116129a257829003601f168201915b50505050509850878054600181600116156101000203166002900480601f016020809104026020016040519081016040528092919081815260200182805460018160011615610100020316600290048015612a5b5780601f10612a3057610100808354040283529160200191612a5b565b820191906000526020600020905b815481529060010190602001808311612a3e57829003601f168201915b50505050509750818054600181600116156101000203166002900480601f016020809104026020016040519081016040528092919081815260200182805460018160011615610100020316600290048015612af75780601f10612acc57610100808354040283529160200191612af7565b820191906000526020600020905b815481529060010190602001808311612ada57829003601f168201915b50505050509150995099509950995099509950995099509950995090919293949596979899565b6000809054906101000a900473ffffffffffffffffffffffffffffffffffffffff1673ffffffffffffffffffffffffffffffffffffffff163373ffffffffffffffffffffffffffffffffffffffff16141515612b7957600080fd5b8060011515600a826040518082805190602001908083835b602083101515612bb65780518252602082019150602081019050602083039250612b91565b6001836020036101000a038019825116818451168082178552505050505050905001915050908152602001604051809103902060000160009054906101000a900460ff161515141515612c0857600080fd5b600382816003811115612c1757fe5b600a826040518082805190602001908083835b602083101515612c4f5780518252602082019150602081019050602083039250612c2a565b6001836020036101000a038019825116818451168082178552505050505050905001915050908152602001604051809103902060040160009054906101000a900460ff166003811115612c9e57fe5b141515612caa57600080fd5b600684816007811115612cb957fe5b600c826040518082805190602001908083835b602083101515612cf15780518252602082019150602081019050602083039250612ccc565b6001836020036101000a0380198251168184511680821785525050505050509050019150509081526020016040518091039020600b0160009054906101000a900460ff166007811115612d4057fe5b141515612d4c57600080fd5b6007600c876040518082805190602001908083835b602083101515612d865780518252602082019150602081019050602083039250612d61565b6001836020036101000a0380198251168184511680821785525050505050509050019150509081526020016040518091039020600b0160006101000a81548160ff02191690836007811115612dd757fe5b0217905550505050505050565b6000809054906101000a900473ffffffffffffffffffffffffffffffffffffffff1673ffffffffffffffffffffffffffffffffffffffff163373ffffffffffffffffffffffffffffffffffffffff16141515612e3f57600080fd5b8160011515600a826040518082805190602001908083835b602083101515612e7c5780518252602082019150602081019050602083039250612e57565b6001836020036101000a038019825116818451168082178552505050505050905001915050908152602001604051809103902060000160009054906101000a900460ff161515141515612ece57600080fd5b600383816003811115612edd57fe5b600a826040518082805190602001908083835b602083101515612f155780518252602082019150602081019050602083039250612ef0565b6001836020036101000a038019825116818451168082178552505050505050905001915050908152602001604051809103902060040160009054906101000a900460ff166003811115612f6457fe5b141515612f7057600080fd5b600185816007811115612f7f57fe5b600c826040518082805190602001908083835b602083101515612fb75780518252602082019150602081019050602083039250612f92565b6001836020036101000a0380198251168184511680821785525050505050509050019150509081526020016040518091039020600b0160009054906101000a900460ff16600781111561300657fe5b14151561301257600080fd5b8561301e576002613021565b60035b600c886040518082805190602001908083835b6020831015156130595780518252602082019150602081019050602083039250613034565b6001836020036101000a0380198251168184511680821785525050505050509050019150509081526020016040518091039020600b0160006101000a81548160ff021916908360078111156130aa57fe5b021790555050505050505050565b6130c06145c7565b6130c86145c7565b6130d06145c7565b60008060009054906101000a900473ffffffffffffffffffffffffffffffffffffffff1673ffffffffffffffffffffffffffffffffffffffff163373ffffffffffffffffffffffffffffffffffffffff1614151561312d57600080fd5b600c856040518082805190602001908083835b6020831015156131655780518252602082019150602081019050602083039250613140565b6001836020036101000a03801982511681845116808217855250505050505090500191505090815260200160405180910390209050806000018160010182600201828054600181600116156101000203166002900480601f01602080910402602001604051908101604052809291908181526020018280546001816001161561010002031660029004801561323b5780601f106132105761010080835404028352916020019161323b565b820191906000526020600020905b81548152906001019060200180831161321e57829003601f168201915b50505050509250818054600181600116156101000203166002900480601f0160208091040260200160405190810160405280929190818152602001828054600181600116156101000203166002900480156132d75780601f106132ac576101008083540402835291602001916132d7565b820191906000526020600020905b8154815290600101906020018083116132ba57829003601f168201915b50505050509150808054600181600116156101000203166002900480601f0160208091040260200160405190810160405280929190818152602001828054600181600116156101000203166002900480156133735780601f1061334857610100808354040283529160200191613373565b820191906000526020600020905b81548152906001019060200180831161335657829003601f168201915b50505050509050935093509350509193909250565b6000806133936145c7565b61339b6145c7565b6000806000809054906101000a900473ffffffffffffffffffffffffffffffffffffffff1673ffffffffffffffffffffffffffffffffffffffff163373ffffffffffffffffffffffffffffffffffffffff161415156133f957600080fd5b600a876040518082805190602001908083835b602083101515613431578051825260208201915060208101905060208303925061340c565b6001836020036101000a038019825116818451168082178552505050505050905001915050908152602001604051809103902090508060000160009054906101000a900460ff16816001015482600201836003018460040160009054906101000a900460ff16828054600181600116156101000203166002900480601f01602080910402602001604051908101604052809291908181526020018280546001816001161561010002031660029004801561352c5780601f106135015761010080835404028352916020019161352c565b820191906000526020600020905b81548152906001019060200180831161350f57829003601f168201915b50505050509250818054600181600116156101000203166002900480601f0160208091040260200160405190810160405280929190818152602001828054600181600116156101000203166002900480156135c85780601f1061359d576101008083540402835291602001916135c8565b820191906000526020600020905b8154815290600101906020018083116135ab57829003601f168201915b50505050509150955095509550955095505091939590929450565b60008060009054906101000a900473ffffffffffffffffffffffffffffffffffffffff1673ffffffffffffffffffffffffffffffffffffffff163373ffffffffffffffffffffffffffffffffffffffff1614151561364057600080fd5b6000809054906101000a900473ffffffffffffffffffffffffffffffffffffffff16905090565b6000600b80549050905090565b61367c6145db565b6000809054906101000a900473ffffffffffffffffffffffffffffffffffffffff1673ffffffffffffffffffffffffffffffffffffffff163373ffffffffffffffffffffffffffffffffffffffff161415156136d757600080fd5b8160001515600a826040518082805190602001908083835b60208310151561371457805182526020820191506020810190506020830392506136ef565b6001836020036101000a038019825116818451168082178552505050505050905001915050908152602001604051809103902060000160009054906101000a900460ff16151514806137f757506001600381111561376e57fe5b600a826040518082805190602001908083835b6020831015156137a65780518252602082019150602081019050602083039250613781565b6001836020036101000a038019825116818451168082178552505050505050905001915050908152602001604051809103902060040160009054906101000a900460ff1660038111156137f557fe5b145b8061389357506002600381111561380a57fe5b600a826040518082805190602001908083835b602083101515613842578051825260208201915060208101905060208303925061381d565b6001836020036101000a038019825116818451168082178552505050505050905001915050908152602001604051809103902060040160009054906101000a900460ff16600381111561389157fe5b145b151561389e57600080fd5b600060149054906101000a900460ff161515156138ba57600080fd5b60a060405190810160405280600115158152602001868152602001858152602001848152602001600060038111156138ee57fe5b815250915081600a846040518082805190602001908083835b60208310151561392c5780518252602082019150602081019050602083039250613907565b6001836020036101000a038019825116818451168082178552505050505050905001915050908152602001604051809103902060008201518160000160006101000a81548160ff0219169083151502179055506020820151816001015560408201518160020190805190602001906139a5929190614547565b5060608201518160030190805190602001906139c2929190614547565b5060808201518160040160006101000a81548160ff021916908360038111156139e757fe5b0217905550905050600b8054806001018281613a039190614624565b916000526020600020900160008590919091509080519060200190613a299291906144c7565b50505050505050565b600060011515600a836040518082805190602001908083835b602083101515613a705780518252602082019150602081019050602083039250613a4b565b6001836020036101000a038019825116818451168082178552505050505050905001915050908152602001604051809103902060000160009054906101000a900460ff161515149050919050565b600060149054906101000a900460ff1681565b613ad96145c7565b613ae16145c7565b613ae96145c7565b60008060009054906101000a900473ffffffffffffffffffffffffffffffffffffffff1673ffffffffffffffffffffffffffffffffffffffff163373ffffffffffffffffffffffffffffffffffffffff16141515613b4657600080fd5b600c856040518082805190602001908083835b602083101515613b7e5780518252602082019150602081019050602083039250613b59565b6001836020036101000a03801982511681845116808217855250505050505090500191505090815260200160405180910390209050806008018160090182600a01828054600181600116156101000203166002900480601f016020809104026020016040519081016040528092919081815260200182805460018160011615610100020316600290048015613c545780601f10613c2957610100808354040283529160200191613c54565b820191906000526020600020905b815481529060010190602001808311613c3757829003601f168201915b50505050509250818054600181600116156101000203166002900480601f016020809104026020016040519081016040528092919081815260200182805460018160011615610100020316600290048015613cf05780601f10613cc557610100808354040283529160200191613cf0565b820191906000526020600020905b815481529060010190602001808311613cd357829003601f168201915b50505050509150808054600181600116156101000203166002900480601f016020809104026020016040519081016040528092919081815260200182805460018160011615610100020316600290048015613d8c5780601f10613d6157610100808354040283529160200191613d8c565b820191906000526020600020905b815481529060010190602001808311613d6f57829003601f168201915b50505050509050935093509350509193909250565b600080613dac6145c7565b613db46145c7565b6000806000809054906101000a900473ffffffffffffffffffffffffffffffffffffffff1673ffffffffffffffffffffffffffffffffffffffff163373ffffffffffffffffffffffffffffffffffffffff16141515613e1257600080fd5b600a600b88815481101515613e2357fe5b90600052602060002090016040518082805460018160011615610100020316600290048015613e895780601f10613e67576101008083540402835291820191613e89565b820191906000526020600020905b815481529060010190602001808311613e75575b5050915050908152602001604051809103902090508060000160009054906101000a900460ff16816001015482600201836003018460040160009054906101000a900460ff16828054600181600116156101000203166002900480601f016020809104026020016040519081016040528092919081815260200182805460018160011615610100020316600290048015613f645780601f10613f3957610100808354040283529160200191613f64565b820191906000526020600020905b815481529060010190602001808311613f4757829003601f168201915b50505050509250818054600181600116156101000203166002900480601f0160208091040260200160405190810160405280929190818152602001828054600181600116156101000203166002900480156140005780601f10613fd557610100808354040283529160200191614000565b820191906000526020600020905b815481529060010190602001808311613fe357829003601f168201915b50505050509150955095509550955095505091939590929450565b6000806000809054906101000a900473ffffffffffffffffffffffffffffffffffffffff1673ffffffffffffffffffffffffffffffffffffffff163373ffffffffffffffffffffffffffffffffffffffff1614151561407957600080fd5b600c836040518082805190602001908083835b6020831015156140b1578051825260208201915060208101905060208303925061408c565b6001836020036101000a0380198251168184511680821785525050505050509050019150509081526020016040518091039020905080600b0160009054906101000a900460ff16915050919050565b6000809054906101000a900473ffffffffffffffffffffffffffffffffffffffff1673ffffffffffffffffffffffffffffffffffffffff163373ffffffffffffffffffffffffffffffffffffffff1614151561415b57600080fd5b806000600c826040518082805190602001908083835b6020831015156141965780518252602082019150602081019050602083039250614171565b6001836020036101000a0380198251168184511680821785525050505050509050019150509081526020016040518091039020600b0160009054906101000a900460ff169050600460078111156141e957fe5b8160078111156141f557fe5b148061421757506006600781111561420957fe5b81600781111561421557fe5b145b80614237575060078081111561422957fe5b81600781111561423557fe5b145b8061425857506002600781111561424a57fe5b81600781111561425657fe5b145b15151561426457600080fd5b6004600c846040518082805190602001908083835b60208310151561429e5780518252602082019150602081019050602083039250614279565b6001836020036101000a0380198251168184511680821785525050505050509050019150509081526020016040518091039020600b0160006101000a81548160ff021916908360078111156142ef57fe5b021790555060008060146101000a81548160ff021916908315150217905550505050565b61431b6145c7565b6143236145c7565b6000809054906101000a900473ffffffffffffffffffffffffffffffffffffffff1673ffffffffffffffffffffffffffffffffffffffff163373ffffffffffffffffffffffffffffffffffffffff1614151561437e57600080fd5b600160000160018001818054600181600116156101000203166002900480601f01602080910402602001604051908101604052809291908181526020018280546001816001161561010002031660029004801561441c5780601f106143f15761010080835404028352916020019161441c565b820191906000526020600020905b8154815290600101906020018083116143ff57829003601f168201915b50505050509150808054600181600116156101000203166002900480601f0160208091040260200160405190810160405280929190818152602001828054600181600116156101000203166002900480156144b85780601f1061448d576101008083540402835291602001916144b8565b820191906000526020600020905b81548152906001019060200180831161449b57829003601f168201915b50505050509050915091509091565b828054600181600116156101000203166002900490600052602060002090601f016020900481019282601f1061450857805160ff1916838001178555614536565b82800160010185558215614536579182015b8281111561453557825182559160200191906001019061451a565b5b5090506145439190614650565b5090565b828054600181600116156101000203166002900490600052602060002090601f016020900481019282601f1061458857805160ff19168380011785556145b6565b828001600101855582156145b6579182015b828111156145b557825182559160200191906001019061459a565b5b5090506145c39190614650565b5090565b602060405190810160405280600081525090565b60a060405190810160405280600015158152602001600081526020016145ff614675565b815260200161460c614675565b81526020016000600381111561461e57fe5b81525090565b81548183558181151161464b5781836000526020600020918201910161464a9190614689565b5b505050565b61467291905b8082111561466e576000816000905550600101614656565b5090565b90565b602060405190810160405280600081525090565b6146b291905b808211156146ae57600081816146a591906146b5565b5060010161468f565b5090565b90565b50805460018160011615610100020316600290046000825580601f106146db57506146fa565b601f0160209004906000526020600020908101906146f99190614650565b5b505600a165627a7a72305820b785df87e2dbd36ffacd701a19cd430b671f50206cbc8ac6998cc242e95abbf30029",
  "source": "pragma solidity ^0.4.18;\ncontract Enlistment {\n\n    address owner;\n    bool public locked = false;\n    EnlistmentStruct enlistment;\n    mapping(string => Offer) tenantOfferMap;\n    string[] offerAuthors;\n    mapping(string => AgreementDraft) tenantAgreementMap;\n\n    function Enlistment(string landlordEmail, string landlordName, string streetName, uint floorNr, uint apartmentNr, uint houseNr, uint postalCode, bytes9 geohash, string detailsJson) public\n    {\n        enlistment = EnlistmentStruct(landlordEmail, landlordName, streetName, floorNr, apartmentNr, houseNr, postalCode, geohash, detailsJson);\n        owner = msg.sender;\n    }\n\n    function getOwner() view public ownerOnly() returns (address) {\n        return owner;\n    }\n\n    function getLandlord() view public ownerOnly() returns (string, string) {\n        return (enlistment.landlordEmail, enlistment.landlordName);\n    }\n\n    function getEnlistment() view public ownerOnly() returns (string, string, string, uint, uint, uint, uint, bytes9, string, bool) {\n        return (enlistment.landlordEmail, enlistment.landlordName, enlistment.streetName, enlistment.floorNr, enlistment.apartmentNr, enlistment.houseNr, enlistment.postalCode, enlistment.geohash, enlistment.detailsJson, locked);\n    }\n\n    function getGeohash() view public returns(bytes9) {\n        return enlistment.geohash;\n    }\n\n    function hasBid(string tenantEmail) view public returns(bool) {\n        return tenantOfferMap[tenantEmail].initialized == true;\n    }\n\n    function getOfferAuthorsLength() view public returns(uint) {\n        return offerAuthors.length;\n    }\n\n    enum OfferStatus {\n        PENDING,\n        REJECTED,\n        CANCELLED,\n        ACCEPTED\n    }\n\n    enum AgreementStatus {\n        UNINITIALIZED, // internal\n        PENDING,\n        REJECTED,\n        CONFIRMED,\n        CANCELLED,\n        LANDLORD_SIGNED,\n        TENANT_SIGNED,\n        STARTED\n    }\n\n    struct EnlistmentStruct {\n        string landlordEmail;\n        string landlordName;\n        string streetName;\n        uint floorNr;\n        uint apartmentNr;\n        uint houseNr;\n        uint postalCode;\n        bytes9 geohash;\n        string detailsJson;\n    }\n\n    struct Offer {\n        bool initialized;\n        uint amount;\n        string tenantName;\n        string tenantEmail;\n        OfferStatus status;\n    }\n\n    struct AgreementDraft {\n        string landlordName; // for simplicity, there is only one landlord\n        string tenantName; // for simplicity, there is only one tenant and occupants are omitted\n        string tenantEmail;\n        uint amount;\n        uint leaseStart;\n        uint handoverDate;\n        uint leasePeriod;\n        string otherTerms;\n        string hash;\n        string landlordSignedHash;\n        string tenantSignedHash;\n        AgreementStatus status;\n    }\n\n    modifier noActiveOffer(string tenantEmail) {\n        require(tenantOfferMap[tenantEmail].initialized == false || tenantOfferMap[tenantEmail].status == OfferStatus.REJECTED || tenantOfferMap[tenantEmail].status == OfferStatus.CANCELLED);\n        _;\n    }\n\n    modifier offerExists(string tenantEmail) {\n        require(tenantOfferMap[tenantEmail].initialized == true);\n        _;\n    }\n\n    modifier offerInStatus(OfferStatus status, string tenantEmail) {\n        require(tenantOfferMap[tenantEmail].status == status);\n        _;\n    }\n\n    modifier offerCancellable(string tenantEmail) {\n        var offerStatus = tenantOfferMap[tenantEmail].status;\n        require(offerStatus == OfferStatus.PENDING || offerStatus == OfferStatus.ACCEPTED);\n        var agreementStatus = tenantAgreementMap[tenantEmail].status;\n        require(!(agreementStatus == AgreementStatus.CANCELLED || agreementStatus == AgreementStatus.TENANT_SIGNED || agreementStatus == AgreementStatus.STARTED));\n        _;\n    }\n\n    modifier agreementCanBeSubmitted(string tenantEmail) {\n        require(tenantAgreementMap[tenantEmail].status == AgreementStatus.UNINITIALIZED ||\n        tenantAgreementMap[tenantEmail].status == AgreementStatus.REJECTED || tenantAgreementMap[tenantEmail].status == AgreementStatus.CANCELLED);\n        _;\n    }\n\n    modifier agreementInStatus(AgreementStatus status, string tenantEmail) {\n        require(tenantAgreementMap[tenantEmail].status == status);\n        _;\n    }\n\n    modifier agreementCancellable(string tenantEmail) {\n        var agreementStatus = tenantAgreementMap[tenantEmail].status;\n        require(!(agreementStatus == AgreementStatus.CANCELLED || agreementStatus == AgreementStatus.TENANT_SIGNED || agreementStatus == AgreementStatus.STARTED || agreementStatus == AgreementStatus.REJECTED));\n        _;\n    }\n\n    modifier notLocked() {\n        require(!locked);\n        _;\n    }\n\n    modifier ownerOnly() {\n        require(msg.sender == owner);\n        _;\n    }\n\n    // what if the offer is in status PENDING and the tenant wants to send a new one?\n    function sendOffer(uint amount, string tenantName, string tenantEmail) payable public\n        ownerOnly()\n        noActiveOffer(tenantEmail)\n        notLocked()\n    {\n        var offer = Offer({\n            initialized: true,\n            amount: amount,\n            tenantName: tenantName,\n            tenantEmail: tenantEmail,\n            status: OfferStatus.PENDING\n        });\n        tenantOfferMap[tenantEmail] = offer;\n        offerAuthors.push(tenantEmail); \n    }\n\n    function cancelOffer(string tenantEmail) payable public\n        ownerOnly()\n        offerExists(tenantEmail)\n        offerCancellable(tenantEmail)\n    {\n        tenantOfferMap[tenantEmail].status = OfferStatus.CANCELLED;\n        if (tenantAgreementMap[tenantEmail].status != AgreementStatus.UNINITIALIZED) {\n            tenantAgreementMap[tenantEmail].status = AgreementStatus.CANCELLED;\n        }\n        locked = false; \n    }\n\n    function getOffer(string tenantEmail) view public ownerOnly() returns (bool, uint, string, string, OfferStatus) {\n        var o = tenantOfferMap[tenantEmail];\n        return (o.initialized, o.amount, o.tenantName, o.tenantEmail, o.status);\n    }\n\n    function getOfferByIndex(uint idx) view public ownerOnly() returns (bool, uint, string, string, OfferStatus) {\n        var o = tenantOfferMap[offerAuthors[idx]];\n        return (o.initialized, o.amount, o.tenantName, o.tenantEmail, o.status);\n    }\n\n    function reviewOffer(bool result, string tenantEmail) payable public\n        ownerOnly()\n        offerExists(tenantEmail)\n        offerInStatus(OfferStatus.PENDING, tenantEmail)\n    {\n        tenantOfferMap[tenantEmail].status = result ? OfferStatus.ACCEPTED : OfferStatus.REJECTED;\n    }\n\n    function submitDraft(string tenantEmail, string landlordName, string agreementTenantName, string agreementTenantEmail,\n        uint leaseStart, uint handoverDate, uint leasePeriod, string otherTerms, string hash) payable public\n        ownerOnly()\n        offerExists(tenantEmail)\n        offerInStatus(OfferStatus.ACCEPTED, tenantEmail)\n        agreementCanBeSubmitted(tenantEmail)\n    {\n        var amount = tenantOfferMap[tenantEmail].amount;\n        tenantAgreementMap[tenantEmail] = AgreementDraft(landlordName,\n            agreementTenantName, agreementTenantEmail,\n            amount, leaseStart,\n            handoverDate, leasePeriod,\n            otherTerms, hash, \"\", \"\", AgreementStatus.PENDING);\n    }\n\n    // getAgreement functions:\n    // can only return tuple of max 7 elements, otherwise throws \"Stack too geep\"\n    // solution: splitted into multiple functions\n\n    function getAgreementParticipants(string tenantEmail) view public ownerOnly() returns (string, string, string) {\n        var a = tenantAgreementMap[tenantEmail];\n        return (a.landlordName, a.tenantName, a.tenantEmail);\n    }\n\n    function getAgreementDetails(string tenantEmail) view public ownerOnly() returns (uint, uint, uint, uint, string) {\n        var a = tenantAgreementMap[tenantEmail];\n        return (a.amount, a.leaseStart, a.handoverDate, a.leasePeriod, a.otherTerms);\n    }\n\n    function getAgreementHashes(string tenantEmail) view public ownerOnly() returns (string, string, string) {\n        var a = tenantAgreementMap[tenantEmail];\n        return (a.hash, a.landlordSignedHash, a.tenantSignedHash);\n    }\n\n    function getAgreementStatus(string tenantEmail) view public ownerOnly() returns (AgreementStatus) {\n        var a = tenantAgreementMap[tenantEmail];\n        return (a.status);\n    }\n\n    function reviewAgreement(string tenantEmail, bool result) payable public\n        ownerOnly()\n        offerExists(tenantEmail)\n        offerInStatus(OfferStatus.ACCEPTED, tenantEmail)\n        agreementInStatus(AgreementStatus.PENDING, tenantEmail)\n    {\n        tenantAgreementMap[tenantEmail].status = result ? AgreementStatus.CONFIRMED : AgreementStatus.REJECTED;\n    }\n\n    function landlordSignAgreement(string tenantEmail, string landlordSignedHash) payable public\n        ownerOnly()\n        notLocked()\n        offerExists(tenantEmail)\n        offerInStatus(OfferStatus.ACCEPTED, tenantEmail)\n        agreementInStatus(AgreementStatus.CONFIRMED, tenantEmail)\n    {\n        tenantAgreementMap[tenantEmail].landlordSignedHash = landlordSignedHash;\n        tenantAgreementMap[tenantEmail].status = AgreementStatus.LANDLORD_SIGNED;\n        locked = true;\n    }\n\n    function tenantSignAgreement(string tenantEmail, string tenantSignedHash) payable public\n        ownerOnly()\n        offerExists(tenantEmail)\n        offerInStatus(OfferStatus.ACCEPTED, tenantEmail)\n        agreementInStatus(AgreementStatus.LANDLORD_SIGNED, tenantEmail)\n    {\n        tenantAgreementMap[tenantEmail].tenantSignedHash = tenantSignedHash;\n        tenantAgreementMap[tenantEmail].status = AgreementStatus.TENANT_SIGNED;\n    }\n\n    function cancelAgreement(string tenantEmail) payable public\n        ownerOnly()\n        agreementCancellable(tenantEmail)\n    {\n        tenantAgreementMap[tenantEmail].status = AgreementStatus.CANCELLED;\n        locked = false;\n    }\n\n    function receiveFirstMonthRent(string tenantEmail) payable public\n        ownerOnly()\n        offerExists(tenantEmail)\n        offerInStatus(OfferStatus.ACCEPTED, tenantEmail)\n        agreementInStatus(AgreementStatus.TENANT_SIGNED, tenantEmail)\n    {\n        tenantAgreementMap[tenantEmail].status = AgreementStatus.STARTED;\n    }\n}\n",
  "sourcePath": "/Users/Indrek/Ulikool/Thesis/blockchain-real-estate-baseline/ethereum/contracts/Enlistment.sol",
  "compiler": {
    "name": "solc",
    "version": "0.4.19+commit.c4cbbb05.Emscripten.clang"
  },
  "schemaVersion": "1.0.1",
  "updatedAt": "2018-05-02T22:27:12.844Z"
}