{
  "contractName": "Enlistment",
  "abi": [
    {
      "constant": true,
      "inputs": [],
      "name": "locked",
      "outputs": [
        {
          "name": "",
          "type": "bool"
        }
      ],
      "payable": false,
      "stateMutability": "view",
      "type": "function"
    },
    {
      "inputs": [
        {
          "name": "landlordEmail",
          "type": "string"
        },
        {
          "name": "landlordName",
          "type": "string"
        },
        {
          "name": "streetName",
          "type": "string"
        },
        {
          "name": "floorNr",
          "type": "uint256"
        },
        {
          "name": "apartmentNr",
          "type": "uint256"
        },
        {
          "name": "houseNr",
          "type": "uint256"
        },
        {
          "name": "postalCode",
          "type": "uint256"
        },
        {
          "name": "lat",
          "type": "int32"
        },
        {
          "name": "lng",
          "type": "int32"
        },
        {
          "name": "detailsJson",
          "type": "string"
        }
      ],
      "payable": false,
      "stateMutability": "nonpayable",
      "type": "constructor"
    },
    {
      "constant": true,
      "inputs": [],
      "name": "getOwner",
      "outputs": [
        {
          "name": "",
          "type": "address"
        }
      ],
      "payable": false,
      "stateMutability": "view",
      "type": "function"
    },
    {
      "constant": true,
      "inputs": [],
      "name": "getLandlordEmailKeccak256",
      "outputs": [
        {
          "name": "",
          "type": "bytes32"
        }
      ],
      "payable": false,
      "stateMutability": "view",
      "type": "function"
    },
    {
      "constant": true,
      "inputs": [],
      "name": "getEnlistment",
      "outputs": [
        {
          "name": "",
          "type": "string"
        },
        {
          "name": "",
          "type": "string"
        },
        {
          "name": "",
          "type": "string"
        },
        {
          "name": "",
          "type": "uint256[4]"
        },
        {
          "name": "",
          "type": "int32[2]"
        },
        {
          "name": "",
          "type": "string"
        },
        {
          "name": "",
          "type": "bool"
        }
      ],
      "payable": false,
      "stateMutability": "view",
      "type": "function"
    },
    {
      "constant": true,
      "inputs": [],
      "name": "getCoords",
      "outputs": [
        {
          "name": "",
          "type": "int32"
        },
        {
          "name": "",
          "type": "int32"
        }
      ],
      "payable": false,
      "stateMutability": "view",
      "type": "function"
    },
    {
      "constant": true,
      "inputs": [
        {
          "name": "tenantEmail",
          "type": "string"
        }
      ],
      "name": "hasBid",
      "outputs": [
        {
          "name": "",
          "type": "bool"
        }
      ],
      "payable": false,
      "stateMutability": "view",
      "type": "function"
    },
    {
      "constant": false,
      "inputs": [
        {
          "name": "amount",
          "type": "uint256"
        },
        {
          "name": "tenantName",
          "type": "string"
        },
        {
          "name": "tenantEmail",
          "type": "string"
        }
      ],
      "name": "sendOffer",
      "outputs": [],
      "payable": true,
      "stateMutability": "payable",
      "type": "function"
    },
    {
      "constant": false,
      "inputs": [
        {
          "name": "tenantEmail",
          "type": "string"
        }
      ],
      "name": "cancelOffer",
      "outputs": [],
      "payable": true,
      "stateMutability": "payable",
      "type": "function"
    },
    {
      "constant": true,
      "inputs": [
        {
          "name": "tenantEmail",
          "type": "string"
        }
      ],
      "name": "getOffer",
      "outputs": [
        {
          "name": "",
          "type": "bool"
        },
        {
          "name": "",
          "type": "uint256"
        },
        {
          "name": "",
          "type": "string"
        },
        {
          "name": "",
          "type": "string"
        },
        {
          "name": "",
          "type": "uint8"
        }
      ],
      "payable": false,
      "stateMutability": "view",
      "type": "function"
    },
    {
      "constant": true,
      "inputs": [
        {
          "name": "idx",
          "type": "uint256"
        }
      ],
      "name": "getOfferByIndex",
      "outputs": [
        {
          "name": "",
          "type": "bool"
        },
        {
          "name": "",
          "type": "uint256"
        },
        {
          "name": "",
          "type": "string"
        },
        {
          "name": "",
          "type": "string"
        },
        {
          "name": "",
          "type": "uint8"
        }
      ],
      "payable": false,
      "stateMutability": "view",
      "type": "function"
    },
    {
      "constant": false,
      "inputs": [
        {
          "name": "result",
          "type": "bool"
        },
        {
          "name": "tenantEmail",
          "type": "string"
        }
      ],
      "name": "reviewOffer",
      "outputs": [],
      "payable": true,
      "stateMutability": "payable",
      "type": "function"
    },
    {
      "constant": false,
      "inputs": [
        {
          "name": "tenantEmail",
          "type": "string"
        },
        {
          "name": "landlordName",
          "type": "string"
        },
        {
          "name": "agreementTenantName",
          "type": "string"
        },
        {
          "name": "agreementTenantEmail",
          "type": "string"
        },
        {
          "name": "leaseStart",
          "type": "uint256"
        },
        {
          "name": "handoverDate",
          "type": "uint256"
        },
        {
          "name": "leasePeriod",
          "type": "uint256"
        },
        {
          "name": "otherTerms",
          "type": "string"
        },
        {
          "name": "hash",
          "type": "string"
        }
      ],
      "name": "submitDraft",
      "outputs": [],
      "payable": true,
      "stateMutability": "payable",
      "type": "function"
    },
    {
      "constant": true,
      "inputs": [
        {
          "name": "tenantEmail",
          "type": "string"
        }
      ],
      "name": "getAgreementParticipants",
      "outputs": [
        {
          "name": "",
          "type": "string"
        },
        {
          "name": "",
          "type": "string"
        },
        {
          "name": "",
          "type": "string"
        }
      ],
      "payable": false,
      "stateMutability": "view",
      "type": "function"
    },
    {
      "constant": true,
      "inputs": [
        {
          "name": "tenantEmail",
          "type": "string"
        }
      ],
      "name": "getAgreementDetails",
      "outputs": [
        {
          "name": "",
          "type": "uint256"
        },
        {
          "name": "",
          "type": "uint256"
        },
        {
          "name": "",
          "type": "uint256"
        },
        {
          "name": "",
          "type": "uint256"
        },
        {
          "name": "",
          "type": "string"
        }
      ],
      "payable": false,
      "stateMutability": "view",
      "type": "function"
    },
    {
      "constant": true,
      "inputs": [
        {
          "name": "tenantEmail",
          "type": "string"
        }
      ],
      "name": "getAgreementHashes",
      "outputs": [
        {
          "name": "",
          "type": "string"
        },
        {
          "name": "",
          "type": "string"
        },
        {
          "name": "",
          "type": "string"
        }
      ],
      "payable": false,
      "stateMutability": "view",
      "type": "function"
    },
    {
      "constant": true,
      "inputs": [
        {
          "name": "tenantEmail",
          "type": "string"
        }
      ],
      "name": "getAgreementStatus",
      "outputs": [
        {
          "name": "",
          "type": "uint8"
        }
      ],
      "payable": false,
      "stateMutability": "view",
      "type": "function"
    },
    {
      "constant": false,
      "inputs": [
        {
          "name": "tenantEmail",
          "type": "string"
        },
        {
          "name": "result",
          "type": "bool"
        }
      ],
      "name": "reviewAgreement",
      "outputs": [],
      "payable": true,
      "stateMutability": "payable",
      "type": "function"
    },
    {
      "constant": false,
      "inputs": [
        {
          "name": "tenantEmail",
          "type": "string"
        },
        {
          "name": "landlordSignature",
          "type": "string"
        }
      ],
      "name": "landlordSignAgreement",
      "outputs": [],
      "payable": true,
      "stateMutability": "payable",
      "type": "function"
    },
    {
      "constant": false,
      "inputs": [
        {
          "name": "tenantEmail",
          "type": "string"
        },
        {
          "name": "tenantSignature",
          "type": "string"
        }
      ],
      "name": "tenantSignAgreement",
      "outputs": [],
      "payable": true,
      "stateMutability": "payable",
      "type": "function"
    },
    {
      "constant": false,
      "inputs": [
        {
          "name": "tenantEmail",
          "type": "string"
        }
      ],
      "name": "cancelAgreement",
      "outputs": [],
      "payable": true,
      "stateMutability": "payable",
      "type": "function"
    },
    {
      "constant": false,
      "inputs": [
        {
          "name": "tenantEmail",
          "type": "string"
        }
      ],
      "name": "receiveFirstMonthRent",
      "outputs": [],
      "payable": true,
      "stateMutability": "payable",
      "type": "function"
    }
  ],
  "bytecode": "0x606060405260008060146101000a81548160ff02191690831515021790555034156200002a57600080fd5b604051620048433803806200484383398101604052808051820191906020018051820191906020018051820191906020018051906020019091908051906020019091908051906020019091908051906020019091908051906020019091908051906020019091908051820191905050610140604051908101604052808b81526020018a81526020018981526020018881526020018781526020018681526020018581526020018460030b81526020018360030b815260200182815250600160008201518160000190805190602001906200010692919062000235565b5060208201518160010190805190602001906200012592919062000235565b5060408201518160020190805190602001906200014492919062000235565b50606082015181600301556080820151816004015560a0820151816005015560c0820151816006015560e08201518160070160006101000a81548163ffffffff021916908360030b63ffffffff1602179055506101008201518160070160046101000a81548163ffffffff021916908360030b63ffffffff160217905550610120820151816008019080519060200190620001e192919062000235565b50905050336000806101000a81548173ffffffffffffffffffffffffffffffffffffffff021916908373ffffffffffffffffffffffffffffffffffffffff16021790555050505050505050505050620002e4565b828054600181600116156101000203166002900490600052602060002090601f016020900481019282601f106200027857805160ff1916838001178555620002a9565b82800160010185558215620002a9579182015b82811115620002a85782518255916020019190600101906200028b565b5b509050620002b89190620002bc565b5090565b620002e191905b80821115620002dd576000816000905550600101620002c3565b5090565b90565b61454f80620002f46000396000f30060606040526004361061011c576000357c0100000000000000000000000000000000000000000000000000000000900463ffffffff168062ff22c61461012157806303746e06146101b657806303a935981461024b578063222a7af91461028757806322e8e9eb14610443578063265adc33146104745780632d63ce27146105665780632fcc176d146105b857806331ae8ed0146106155780634d45780e14610850578063673a95ef146108a257806371ca1587146108ff5780637a51011614610aad578063893d20e814610c16578063a578945c14610c6b578063cdb1ca6a14610d09578063cf30901214610d7e578063d441a15214610dab578063e359a0a114610f59578063ec2b2a1214611088578063f278f78414611107575b600080fd5b6101b4600480803590602001908201803590602001908080601f0160208091040260200160405190810160405280939291908181526020018383808284378201915050505050509190803590602001908201803590602001908080601f01602080910402602001604051908101604052809392919081815260200183838082843782019150505050505091905050611159565b005b610249600480803590602001908201803590602001908080601f0160208091040260200160405190810160405280939291908181526020018383808284378201915050505050509190803590602001908201803590602001908080601f016020809104026020016040519081016040528093929190818152602001838380828437820191505050505050919050506114a3565b005b341561025657600080fd5b61025e611824565b604051808360030b60030b81526020018260030b60030b81526020019250505060405180910390f35b610441600480803590602001908201803590602001908080601f0160208091040260200160405190810160405280939291908181526020018383808284378201915050505050509190803590602001908201803590602001908080601f0160208091040260200160405190810160405280939291908181526020018383808284378201915050505050509190803590602001908201803590602001908080601f0160208091040260200160405190810160405280939291908181526020018383808284378201915050505050509190803590602001908201803590602001908080601f0160208091040260200160405190810160405280939291908181526020018383808284378201915050505050509190803590602001909190803590602001909190803590602001909190803590602001908201803590602001908080601f0160208091040260200160405190810160405280939291908181526020018383808284378201915050505050509190803590602001908201803590602001908080601f01602080910402602001604051908101604052809392919081815260200183838082843782019150505050505091905050611855565b005b341561044e57600080fd5b610456611e4a565b60405180826000191660001916815260200191505060405180910390f35b341561047f57600080fd5b6104cf600480803590602001908201803590602001908080601f01602080910402602001604051908101604052809392919081815260200183838082843782019150505050505091905050611ebe565b6040518086815260200185815260200184815260200183815260200180602001828103825283818151815260200191508051906020019080838360005b8381101561052757808201518184015260208101905061050c565b50505050905090810190601f1680156105545780820380516001836020036101000a031916815260200191505b50965050505050505060405180910390f35b6105b6600480803590602001908201803590602001908080601f0160208091040260200160405190810160405280939291908181526020018383808284378201915050505050509190505061205e565b005b6106136004808035151590602001909190803590602001908201803590602001908080601f016020809104026020016040519081016040528093929190818152602001838380828437820191505050505050919050506124d1565b005b341561062057600080fd5b610628612701565b6040518080602001806020018060200188600460200280838360005b8381101561065f578082015181840152602081019050610644565b5050505090500187600260200280838360005b8381101561068d578082015181840152602081019050610672565b50505050905001806020018615151515815260200185810385528c818151815260200191508051906020019080838360005b838110156106da5780820151818401526020810190506106bf565b50505050905090810190601f1680156107075780820380516001836020036101000a031916815260200191505b5085810384528b818151815260200191508051906020019080838360005b83811015610740578082015181840152602081019050610725565b50505050905090810190601f16801561076d5780820380516001836020036101000a031916815260200191505b5085810383528a818151815260200191508051906020019080838360005b838110156107a657808201518184015260208101905061078b565b50505050905090810190601f1680156107d35780820380516001836020036101000a031916815260200191505b50858103825287818151815260200191508051906020019080838360005b8381101561080c5780820151818401526020810190506107f1565b50505050905090810190601f1680156108395780820380516001836020036101000a031916815260200191505b509b50505050505050505050505060405180910390f35b6108a0600480803590602001908201803590602001908080601f01602080910402602001604051908101604052809392919081815260200183838082843782019150505050505091905050612ab3565b005b6108fd600480803590602001908201803590602001908080601f016020809104026020016040519081016040528093929190818152602001838380828437820191505050505050919080351515906020019091905050612d79565b005b341561090a57600080fd5b61095a600480803590602001908201803590602001908080601f0160208091040260200160405190810160405280939291908181526020018383808284378201915050505050509190505061304d565b60405180806020018060200180602001848103845287818151815260200191508051906020019080838360005b838110156109a2578082015181840152602081019050610987565b50505050905090810190601f1680156109cf5780820380516001836020036101000a031916815260200191505b50848103835286818151815260200191508051906020019080838360005b83811015610a085780820151818401526020810190506109ed565b50505050905090810190601f168015610a355780820380516001836020036101000a031916815260200191505b50848103825285818151815260200191508051906020019080838360005b83811015610a6e578082015181840152602081019050610a53565b50505050905090810190601f168015610a9b5780820380516001836020036101000a031916815260200191505b50965050505050505060405180910390f35b3415610ab857600080fd5b610b08600480803590602001908201803590602001908080601f0160208091040260200160405190810160405280939291908181526020018383808284378201915050505050509190505061331d565b60405180861515151581526020018581526020018060200180602001846003811115610b3057fe5b60ff168152602001838103835286818151815260200191508051906020019080838360005b83811015610b70578082015181840152602081019050610b55565b50505050905090810190601f168015610b9d5780820380516001836020036101000a031916815260200191505b50838103825285818151815260200191508051906020019080838360005b83811015610bd6578082015181840152602081019050610bbb565b50505050905090810190601f168015610c035780820380516001836020036101000a031916815260200191505b5097505050505050505060405180910390f35b3415610c2157600080fd5b610c29613578565b604051808273ffffffffffffffffffffffffffffffffffffffff1673ffffffffffffffffffffffffffffffffffffffff16815260200191505060405180910390f35b610d07600480803590602001909190803590602001908201803590602001908080601f0160208091040260200160405190810160405280939291908181526020018383808284378201915050505050509190803590602001908201803590602001908080601f016020809104026020016040519081016040528093929190818152602001838380828437820191505050505050919050506135fc565b005b3415610d1457600080fd5b610d64600480803590602001908201803590602001908080601f016020809104026020016040519081016040528093929190818152602001838380828437820191505050505050919050506139ba565b604051808215151515815260200191505060405180910390f35b3415610d8957600080fd5b610d91613a46565b604051808215151515815260200191505060405180910390f35b3415610db657600080fd5b610e06600480803590602001908201803590602001908080601f01602080910402602001604051908101604052809392919081815260200183838082843782019150505050505091905050613a59565b60405180806020018060200180602001848103845287818151815260200191508051906020019080838360005b83811015610e4e578082015181840152602081019050610e33565b50505050905090810190601f168015610e7b5780820380516001836020036101000a031916815260200191505b50848103835286818151815260200191508051906020019080838360005b83811015610eb4578082015181840152602081019050610e99565b50505050905090810190601f168015610ee15780820380516001836020036101000a031916815260200191505b50848103825285818151815260200191508051906020019080838360005b83811015610f1a578082015181840152602081019050610eff565b50505050905090810190601f168015610f475780820380516001836020036101000a031916815260200191505b50965050505050505060405180910390f35b3415610f6457600080fd5b610f7a6004808035906020019091905050613d29565b60405180861515151581526020018581526020018060200180602001846003811115610fa257fe5b60ff168152602001838103835286818151815260200191508051906020019080838360005b83811015610fe2578082015181840152602081019050610fc7565b50505050905090810190601f16801561100f5780820380516001836020036101000a031916815260200191505b50838103825285818151815260200191508051906020019080838360005b8381101561104857808201518184015260208101905061102d565b50505050905090810190601f1680156110755780820380516001836020036101000a031916815260200191505b5097505050505050505060405180910390f35b341561109357600080fd5b6110e3600480803590602001908201803590602001908080601f01602080910402602001604051908101604052809392919081815260200183838082843782019150505050505091905050613fa3565b604051808260078111156110f357fe5b60ff16815260200191505060405180910390f35b611157600480803590602001908201803590602001908080601f01602080910402602001604051908101604052809392919081815260200183838082843782019150505050505091905050614088565b005b6000809054906101000a900473ffffffffffffffffffffffffffffffffffffffff1673ffffffffffffffffffffffffffffffffffffffff163373ffffffffffffffffffffffffffffffffffffffff161415156111b457600080fd5b8160011515600a826040518082805190602001908083835b6020831015156111f157805182526020820191506020810190506020830392506111cc565b6001836020036101000a038019825116818451168082178552505050505050905001915050908152602001604051809103902060000160009054906101000a900460ff16151514151561124357600080fd5b60038381600381111561125257fe5b600a826040518082805190602001908083835b60208310151561128a5780518252602082019150602081019050602083039250611265565b6001836020036101000a038019825116818451168082178552505050505050905001915050908152602001604051809103902060040160009054906101000a900460ff1660038111156112d957fe5b1415156112e557600080fd5b6005858160078111156112f457fe5b600c826040518082805190602001908083835b60208310151561132c5780518252602082019150602081019050602083039250611307565b6001836020036101000a0380198251168184511680821785525050505050509050019150509081526020016040518091039020600b0160009054906101000a900460ff16600781111561137b57fe5b14151561138757600080fd5b85600c886040518082805190602001908083835b6020831015156113c0578051825260208201915060208101905060208303925061139b565b6001836020036101000a0380198251168184511680821785525050505050509050019150509081526020016040518091039020600a01908051906020019061140992919061429b565b506006600c886040518082805190602001908083835b602083101515611444578051825260208201915060208101905060208303925061141f565b6001836020036101000a0380198251168184511680821785525050505050509050019150509081526020016040518091039020600b0160006101000a81548160ff0219169083600781111561149557fe5b021790555050505050505050565b6000809054906101000a900473ffffffffffffffffffffffffffffffffffffffff1673ffffffffffffffffffffffffffffffffffffffff163373ffffffffffffffffffffffffffffffffffffffff161415156114fe57600080fd5b600060149054906101000a900460ff1615151561151a57600080fd5b8160011515600a826040518082805190602001908083835b6020831015156115575780518252602082019150602081019050602083039250611532565b6001836020036101000a038019825116818451168082178552505050505050905001915050908152602001604051809103902060000160009054906101000a900460ff1615151415156115a957600080fd5b6003838160038111156115b857fe5b600a826040518082805190602001908083835b6020831015156115f057805182526020820191506020810190506020830392506115cb565b6001836020036101000a038019825116818451168082178552505050505050905001915050908152602001604051809103902060040160009054906101000a900460ff16600381111561163f57fe5b14151561164b57600080fd5b60038581600781111561165a57fe5b600c826040518082805190602001908083835b602083101515611692578051825260208201915060208101905060208303925061166d565b6001836020036101000a0380198251168184511680821785525050505050509050019150509081526020016040518091039020600b0160009054906101000a900460ff1660078111156116e157fe5b1415156116ed57600080fd5b85600c886040518082805190602001908083835b6020831015156117265780518252602082019150602081019050602083039250611701565b6001836020036101000a0380198251168184511680821785525050505050509050019150509081526020016040518091039020600901908051906020019061176f92919061429b565b506005600c886040518082805190602001908083835b6020831015156117aa5780518252602082019150602081019050602083039250611785565b6001836020036101000a0380198251168184511680821785525050505050509050019150509081526020016040518091039020600b0160006101000a81548160ff021916908360078111156117fb57fe5b02179055506001600060146101000a81548160ff02191690831515021790555050505050505050565b600080600160070160009054906101000a900460030b600160070160049054906101000a900460030b915091509091565b60008060009054906101000a900473ffffffffffffffffffffffffffffffffffffffff1673ffffffffffffffffffffffffffffffffffffffff163373ffffffffffffffffffffffffffffffffffffffff161415156118b257600080fd5b8960011515600a826040518082805190602001908083835b6020831015156118ef57805182526020820191506020810190506020830392506118ca565b6001836020036101000a038019825116818451168082178552505050505050905001915050908152602001604051809103902060000160009054906101000a900460ff16151514151561194157600080fd5b60038b81600381111561195057fe5b600a826040518082805190602001908083835b6020831015156119885780518252602082019150602081019050602083039250611963565b6001836020036101000a038019825116818451168082178552505050505050905001915050908152602001604051809103902060040160009054906101000a900460ff1660038111156119d757fe5b1415156119e357600080fd5b8c600060078111156119f157fe5b600c826040518082805190602001908083835b602083101515611a295780518252602082019150602081019050602083039250611a04565b6001836020036101000a0380198251168184511680821785525050505050509050019150509081526020016040518091039020600b0160009054906101000a900460ff166007811115611a7857fe5b1480611b15575060026007811115611a8c57fe5b600c826040518082805190602001908083835b602083101515611ac45780518252602082019150602081019050602083039250611a9f565b6001836020036101000a0380198251168184511680821785525050505050509050019150509081526020016040518091039020600b0160009054906101000a900460ff166007811115611b1357fe5b145b80611bb1575060046007811115611b2857fe5b600c826040518082805190602001908083835b602083101515611b605780518252602082019150602081019050602083039250611b3b565b6001836020036101000a0380198251168184511680821785525050505050509050019150509081526020016040518091039020600b0160009054906101000a900460ff166007811115611baf57fe5b145b1515611bbc57600080fd5b600a8e6040518082805190602001908083835b602083101515611bf45780518252602082019150602081019050602083039250611bcf565b6001836020036101000a0380198251168184511680821785525050505050509050019150509081526020016040518091039020600101549450610180604051908101604052808e81526020018d81526020018c81526020018681526020018b81526020018a8152602001898152602001888152602001878152602001602060405190810160405280600081525081526020016020604051908101604052806000815250815260200160016007811115611ca957fe5b815250600c8f6040518082805190602001908083835b602083101515611ce45780518252602082019150602081019050602083039250611cbf565b6001836020036101000a03801982511681845116808217855250505050505090500191505090815260200160405180910390206000820151816000019080519060200190611d3392919061431b565b506020820151816001019080519060200190611d5092919061431b565b506040820151816002019080519060200190611d6d92919061431b565b50606082015181600301556080820151816004015560a0820151816005015560c0820151816006015560e0820151816007019080519060200190611db292919061431b565b50610100820151816008019080519060200190611dd092919061431b565b50610120820151816009019080519060200190611dee92919061431b565b5061014082015181600a019080519060200190611e0c92919061431b565b5061016082015181600b0160006101000a81548160ff02191690836007811115611e3257fe5b02179055509050505050505050505050505050505050565b600060016000016040518082805460018160011615610100020316600290048015611eac5780601f10611e8a576101008083540402835291820191611eac565b820191906000526020600020905b815481529060010190602001808311611e98575b50509150506040518091039020905090565b600080600080611ecc61439b565b60008060009054906101000a900473ffffffffffffffffffffffffffffffffffffffff1673ffffffffffffffffffffffffffffffffffffffff163373ffffffffffffffffffffffffffffffffffffffff16141515611f2957600080fd5b600c876040518082805190602001908083835b602083101515611f615780518252602082019150602081019050602083039250611f3c565b6001836020036101000a03801982511681845116808217855250505050505090500191505090815260200160405180910390209050806003015481600401548260050154836006015484600701808054600181600116156101000203166002900480601f0160208091040260200160405190810160405280929190818152602001828054600181600116156101000203166002900480156120435780601f1061201857610100808354040283529160200191612043565b820191906000526020600020905b81548152906001019060200180831161202657829003601f168201915b50505050509050955095509550955095505091939590929450565b6000809054906101000a900473ffffffffffffffffffffffffffffffffffffffff1673ffffffffffffffffffffffffffffffffffffffff163373ffffffffffffffffffffffffffffffffffffffff161415156120b957600080fd5b8060011515600a826040518082805190602001908083835b6020831015156120f657805182526020820191506020810190506020830392506120d1565b6001836020036101000a038019825116818451168082178552505050505050905001915050908152602001604051809103902060000160009054906101000a900460ff16151514151561214857600080fd5b81600080600a836040518082805190602001908083835b602083101515612184578051825260208201915060208101905060208303925061215f565b6001836020036101000a038019825116818451168082178552505050505050905001915050908152602001604051809103902060040160009054906101000a900460ff169150600060038111156121d757fe5b8260038111156121e357fe5b148061220457506003808111156121f657fe5b82600381111561220257fe5b145b151561220f57600080fd5b600c836040518082805190602001908083835b6020831015156122475780518252602082019150602081019050602083039250612222565b6001836020036101000a0380198251168184511680821785525050505050509050019150509081526020016040518091039020600b0160009054906101000a900460ff1690506004600781111561229a57fe5b8160078111156122a657fe5b14806122c85750600660078111156122ba57fe5b8160078111156122c657fe5b145b806122e857506007808111156122da57fe5b8160078111156122e657fe5b145b1515156122f457600080fd5b6002600a866040518082805190602001908083835b60208310151561232e5780518252602082019150602081019050602083039250612309565b6001836020036101000a038019825116818451168082178552505050505050905001915050908152602001604051809103902060040160006101000a81548160ff0219169083600381111561237f57fe5b02179055506000600781111561239157fe5b600c866040518082805190602001908083835b6020831015156123c957805182526020820191506020810190506020830392506123a4565b6001836020036101000a0380198251168184511680821785525050505050509050019150509081526020016040518091039020600b0160009054906101000a900460ff16600781111561241857fe5b1415156124b0576004600c866040518082805190602001908083835b6020831015156124595780518252602082019150602081019050602083039250612434565b6001836020036101000a0380198251168184511680821785525050505050509050019150509081526020016040518091039020600b0160006101000a81548160ff021916908360078111156124aa57fe5b02179055505b60008060146101000a81548160ff0219169083151502179055505050505050565b6000809054906101000a900473ffffffffffffffffffffffffffffffffffffffff1673ffffffffffffffffffffffffffffffffffffffff163373ffffffffffffffffffffffffffffffffffffffff1614151561252c57600080fd5b8060011515600a826040518082805190602001908083835b6020831015156125695780518252602082019150602081019050602083039250612544565b6001836020036101000a038019825116818451168082178552505050505050905001915050908152602001604051809103902060000160009054906101000a900460ff1615151415156125bb57600080fd5b6000828160038111156125ca57fe5b600a826040518082805190602001908083835b60208310151561260257805182526020820191506020810190506020830392506125dd565b6001836020036101000a038019825116818451168082178552505050505050905001915050908152602001604051809103902060040160009054906101000a900460ff16600381111561265157fe5b14151561265d57600080fd5b8461266957600161266c565b60035b600a856040518082805190602001908083835b6020831015156126a4578051825260208201915060208101905060208303925061267f565b6001836020036101000a038019825116818451168082178552505050505050905001915050908152602001604051809103902060040160006101000a81548160ff021916908360038111156126f557fe5b02179055505050505050565b61270961439b565b61271161439b565b61271961439b565b6127216143af565b6127296143d7565b61273161439b565b60008060009054906101000a900473ffffffffffffffffffffffffffffffffffffffff1673ffffffffffffffffffffffffffffffffffffffff163373ffffffffffffffffffffffffffffffffffffffff1614151561278e57600080fd5b60016000016001800160016002016080604051908101604052806001600301548152602001600160040154815260200160016005015481526020016001600601548152506040805190810160405280600160070160009054906101000a900460030b60030b60030b8152602001600160070160049054906101000a900460030b60030b60030b8152506001600801600060149054906101000a900460ff16868054600181600116156101000203166002900480601f0160208091040260200160405190810160405280929190818152602001828054600181600116156101000203166002900480156128c15780601f10612896576101008083540402835291602001916128c1565b820191906000526020600020905b8154815290600101906020018083116128a457829003601f168201915b50505050509650858054600181600116156101000203166002900480601f01602080910402602001604051908101604052809291908181526020018280546001816001161561010002031660029004801561295d5780601f106129325761010080835404028352916020019161295d565b820191906000526020600020905b81548152906001019060200180831161294057829003601f168201915b50505050509550848054600181600116156101000203166002900480601f0160208091040260200160405190810160405280929190818152602001828054600181600116156101000203166002900480156129f95780601f106129ce576101008083540402835291602001916129f9565b820191906000526020600020905b8154815290600101906020018083116129dc57829003601f168201915b50505050509450818054600181600116156101000203166002900480601f016020809104026020016040519081016040528092919081815260200182805460018160011615610100020316600290048015612a955780601f10612a6a57610100808354040283529160200191612a95565b820191906000526020600020905b815481529060010190602001808311612a7857829003601f168201915b50505050509150965096509650965096509650965090919293949596565b6000809054906101000a900473ffffffffffffffffffffffffffffffffffffffff1673ffffffffffffffffffffffffffffffffffffffff163373ffffffffffffffffffffffffffffffffffffffff16141515612b0e57600080fd5b8060011515600a826040518082805190602001908083835b602083101515612b4b5780518252602082019150602081019050602083039250612b26565b6001836020036101000a038019825116818451168082178552505050505050905001915050908152602001604051809103902060000160009054906101000a900460ff161515141515612b9d57600080fd5b600382816003811115612bac57fe5b600a826040518082805190602001908083835b602083101515612be45780518252602082019150602081019050602083039250612bbf565b6001836020036101000a038019825116818451168082178552505050505050905001915050908152602001604051809103902060040160009054906101000a900460ff166003811115612c3357fe5b141515612c3f57600080fd5b600684816007811115612c4e57fe5b600c826040518082805190602001908083835b602083101515612c865780518252602082019150602081019050602083039250612c61565b6001836020036101000a0380198251168184511680821785525050505050509050019150509081526020016040518091039020600b0160009054906101000a900460ff166007811115612cd557fe5b141515612ce157600080fd5b6007600c876040518082805190602001908083835b602083101515612d1b5780518252602082019150602081019050602083039250612cf6565b6001836020036101000a0380198251168184511680821785525050505050509050019150509081526020016040518091039020600b0160006101000a81548160ff02191690836007811115612d6c57fe5b0217905550505050505050565b6000809054906101000a900473ffffffffffffffffffffffffffffffffffffffff1673ffffffffffffffffffffffffffffffffffffffff163373ffffffffffffffffffffffffffffffffffffffff16141515612dd457600080fd5b8160011515600a826040518082805190602001908083835b602083101515612e115780518252602082019150602081019050602083039250612dec565b6001836020036101000a038019825116818451168082178552505050505050905001915050908152602001604051809103902060000160009054906101000a900460ff161515141515612e6357600080fd5b600383816003811115612e7257fe5b600a826040518082805190602001908083835b602083101515612eaa5780518252602082019150602081019050602083039250612e85565b6001836020036101000a038019825116818451168082178552505050505050905001915050908152602001604051809103902060040160009054906101000a900460ff166003811115612ef957fe5b141515612f0557600080fd5b600185816007811115612f1457fe5b600c826040518082805190602001908083835b602083101515612f4c5780518252602082019150602081019050602083039250612f27565b6001836020036101000a0380198251168184511680821785525050505050509050019150509081526020016040518091039020600b0160009054906101000a900460ff166007811115612f9b57fe5b141515612fa757600080fd5b85612fb3576002612fb6565b60035b600c886040518082805190602001908083835b602083101515612fee5780518252602082019150602081019050602083039250612fc9565b6001836020036101000a0380198251168184511680821785525050505050509050019150509081526020016040518091039020600b0160006101000a81548160ff0219169083600781111561303f57fe5b021790555050505050505050565b61305561439b565b61305d61439b565b61306561439b565b60008060009054906101000a900473ffffffffffffffffffffffffffffffffffffffff1673ffffffffffffffffffffffffffffffffffffffff163373ffffffffffffffffffffffffffffffffffffffff161415156130c257600080fd5b600c856040518082805190602001908083835b6020831015156130fa57805182526020820191506020810190506020830392506130d5565b6001836020036101000a03801982511681845116808217855250505050505090500191505090815260200160405180910390209050806000018160010182600201828054600181600116156101000203166002900480601f0160208091040260200160405190810160405280929190818152602001828054600181600116156101000203166002900480156131d05780601f106131a5576101008083540402835291602001916131d0565b820191906000526020600020905b8154815290600101906020018083116131b357829003601f168201915b50505050509250818054600181600116156101000203166002900480601f01602080910402602001604051908101604052809291908181526020018280546001816001161561010002031660029004801561326c5780601f106132415761010080835404028352916020019161326c565b820191906000526020600020905b81548152906001019060200180831161324f57829003601f168201915b50505050509150808054600181600116156101000203166002900480601f0160208091040260200160405190810160405280929190818152602001828054600181600116156101000203166002900480156133085780601f106132dd57610100808354040283529160200191613308565b820191906000526020600020905b8154815290600101906020018083116132eb57829003601f168201915b50505050509050935093509350509193909250565b60008061332861439b565b61333061439b565b6000806000809054906101000a900473ffffffffffffffffffffffffffffffffffffffff1673ffffffffffffffffffffffffffffffffffffffff163373ffffffffffffffffffffffffffffffffffffffff1614151561338e57600080fd5b600a876040518082805190602001908083835b6020831015156133c657805182526020820191506020810190506020830392506133a1565b6001836020036101000a038019825116818451168082178552505050505050905001915050908152602001604051809103902090508060000160009054906101000a900460ff16816001015482600201836003018460040160009054906101000a900460ff16828054600181600116156101000203166002900480601f0160208091040260200160405190810160405280929190818152602001828054600181600116156101000203166002900480156134c15780601f10613496576101008083540402835291602001916134c1565b820191906000526020600020905b8154815290600101906020018083116134a457829003601f168201915b50505050509250818054600181600116156101000203166002900480601f01602080910402602001604051908101604052809291908181526020018280546001816001161561010002031660029004801561355d5780601f106135325761010080835404028352916020019161355d565b820191906000526020600020905b81548152906001019060200180831161354057829003601f168201915b50505050509150955095509550955095505091939590929450565b60008060009054906101000a900473ffffffffffffffffffffffffffffffffffffffff1673ffffffffffffffffffffffffffffffffffffffff163373ffffffffffffffffffffffffffffffffffffffff161415156135d557600080fd5b6000809054906101000a900473ffffffffffffffffffffffffffffffffffffffff16905090565b613604614401565b6000809054906101000a900473ffffffffffffffffffffffffffffffffffffffff1673ffffffffffffffffffffffffffffffffffffffff163373ffffffffffffffffffffffffffffffffffffffff1614151561365f57600080fd5b8160001515600a826040518082805190602001908083835b60208310151561369c5780518252602082019150602081019050602083039250613677565b6001836020036101000a038019825116818451168082178552505050505050905001915050908152602001604051809103902060000160009054906101000a900460ff161515148061377f5750600160038111156136f657fe5b600a826040518082805190602001908083835b60208310151561372e5780518252602082019150602081019050602083039250613709565b6001836020036101000a038019825116818451168082178552505050505050905001915050908152602001604051809103902060040160009054906101000a900460ff16600381111561377d57fe5b145b8061381b57506002600381111561379257fe5b600a826040518082805190602001908083835b6020831015156137ca57805182526020820191506020810190506020830392506137a5565b6001836020036101000a038019825116818451168082178552505050505050905001915050908152602001604051809103902060040160009054906101000a900460ff16600381111561381957fe5b145b151561382657600080fd5b600060149054906101000a900460ff1615151561384257600080fd5b60a0604051908101604052806001151581526020018681526020018581526020018481526020016000600381111561387657fe5b815250915081600a846040518082805190602001908083835b6020831015156138b4578051825260208201915060208101905060208303925061388f565b6001836020036101000a038019825116818451168082178552505050505050905001915050908152602001604051809103902060008201518160000160006101000a81548160ff02191690831515021790555060208201518160010155604082015181600201908051906020019061392d92919061431b565b50606082015181600301908051906020019061394a92919061431b565b5060808201518160040160006101000a81548160ff0219169083600381111561396f57fe5b0217905550905050600b805480600101828161398b919061444a565b9160005260206000209001600085909190915090805190602001906139b192919061429b565b50505050505050565b600060011515600a836040518082805190602001908083835b6020831015156139f857805182526020820191506020810190506020830392506139d3565b6001836020036101000a038019825116818451168082178552505050505050905001915050908152602001604051809103902060000160009054906101000a900460ff161515149050919050565b600060149054906101000a900460ff1681565b613a6161439b565b613a6961439b565b613a7161439b565b60008060009054906101000a900473ffffffffffffffffffffffffffffffffffffffff1673ffffffffffffffffffffffffffffffffffffffff163373ffffffffffffffffffffffffffffffffffffffff16141515613ace57600080fd5b600c856040518082805190602001908083835b602083101515613b065780518252602082019150602081019050602083039250613ae1565b6001836020036101000a03801982511681845116808217855250505050505090500191505090815260200160405180910390209050806008018160090182600a01828054600181600116156101000203166002900480601f016020809104026020016040519081016040528092919081815260200182805460018160011615610100020316600290048015613bdc5780601f10613bb157610100808354040283529160200191613bdc565b820191906000526020600020905b815481529060010190602001808311613bbf57829003601f168201915b50505050509250818054600181600116156101000203166002900480601f016020809104026020016040519081016040528092919081815260200182805460018160011615610100020316600290048015613c785780601f10613c4d57610100808354040283529160200191613c78565b820191906000526020600020905b815481529060010190602001808311613c5b57829003601f168201915b50505050509150808054600181600116156101000203166002900480601f016020809104026020016040519081016040528092919081815260200182805460018160011615610100020316600290048015613d145780601f10613ce957610100808354040283529160200191613d14565b820191906000526020600020905b815481529060010190602001808311613cf757829003601f168201915b50505050509050935093509350509193909250565b600080613d3461439b565b613d3c61439b565b6000806000809054906101000a900473ffffffffffffffffffffffffffffffffffffffff1673ffffffffffffffffffffffffffffffffffffffff163373ffffffffffffffffffffffffffffffffffffffff16141515613d9a57600080fd5b600a600b88815481101515613dab57fe5b90600052602060002090016040518082805460018160011615610100020316600290048015613e115780601f10613def576101008083540402835291820191613e11565b820191906000526020600020905b815481529060010190602001808311613dfd575b5050915050908152602001604051809103902090508060000160009054906101000a900460ff16816001015482600201836003018460040160009054906101000a900460ff16828054600181600116156101000203166002900480601f016020809104026020016040519081016040528092919081815260200182805460018160011615610100020316600290048015613eec5780601f10613ec157610100808354040283529160200191613eec565b820191906000526020600020905b815481529060010190602001808311613ecf57829003601f168201915b50505050509250818054600181600116156101000203166002900480601f016020809104026020016040519081016040528092919081815260200182805460018160011615610100020316600290048015613f885780601f10613f5d57610100808354040283529160200191613f88565b820191906000526020600020905b815481529060010190602001808311613f6b57829003601f168201915b50505050509150955095509550955095505091939590929450565b6000806000809054906101000a900473ffffffffffffffffffffffffffffffffffffffff1673ffffffffffffffffffffffffffffffffffffffff163373ffffffffffffffffffffffffffffffffffffffff1614151561400157600080fd5b600c836040518082805190602001908083835b6020831015156140395780518252602082019150602081019050602083039250614014565b6001836020036101000a0380198251168184511680821785525050505050509050019150509081526020016040518091039020905080600b0160009054906101000a900460ff16915050919050565b6000809054906101000a900473ffffffffffffffffffffffffffffffffffffffff1673ffffffffffffffffffffffffffffffffffffffff163373ffffffffffffffffffffffffffffffffffffffff161415156140e357600080fd5b806000600c826040518082805190602001908083835b60208310151561411e57805182526020820191506020810190506020830392506140f9565b6001836020036101000a0380198251168184511680821785525050505050509050019150509081526020016040518091039020600b0160009054906101000a900460ff1690506004600781111561417157fe5b81600781111561417d57fe5b148061419f57506006600781111561419157fe5b81600781111561419d57fe5b145b806141bf57506007808111156141b157fe5b8160078111156141bd57fe5b145b806141e05750600260078111156141d257fe5b8160078111156141de57fe5b145b1515156141ec57600080fd5b6004600c846040518082805190602001908083835b6020831015156142265780518252602082019150602081019050602083039250614201565b6001836020036101000a0380198251168184511680821785525050505050509050019150509081526020016040518091039020600b0160006101000a81548160ff0219169083600781111561427757fe5b021790555060008060146101000a81548160ff021916908315150217905550505050565b828054600181600116156101000203166002900490600052602060002090601f016020900481019282601f106142dc57805160ff191683800117855561430a565b8280016001018555821561430a579182015b828111156143095782518255916020019190600101906142ee565b5b5090506143179190614476565b5090565b828054600181600116156101000203166002900490600052602060002090601f016020900481019282601f1061435c57805160ff191683800117855561438a565b8280016001018555821561438a579182015b8281111561438957825182559160200191906001019061436e565b5b5090506143979190614476565b5090565b602060405190810160405280600081525090565b6080604051908101604052806004905b60008152602001906001900390816143bf5790505090565b60408051908101604052806002905b600060030b8152602001906001900390816143e65790505090565b60a0604051908101604052806000151581526020016000815260200161442561449b565b815260200161443261449b565b81526020016000600381111561444457fe5b81525090565b8154818355818115116144715781836000526020600020918201910161447091906144af565b5b505050565b61449891905b8082111561449457600081600090555060010161447c565b5090565b90565b602060405190810160405280600081525090565b6144d891905b808211156144d457600081816144cb91906144db565b506001016144b5565b5090565b90565b50805460018160011615610100020316600290046000825580601f106145015750614520565b601f01602090049060005260206000209081019061451f9190614476565b5b505600a165627a7a72305820de506f8a754a0d6ee77cb05fa338a93f23c087c1c8933910b7de8aad53bba4090029",
  "source": "pragma solidity ^0.4.18;\ncontract Enlistment {\n\n    address owner;\n    bool public locked = false;\n    EnlistmentStruct enlistment;\n    mapping(string => Offer) tenantOfferMap;\n    string[] offerAuthors;\n    mapping(string => AgreementDraft) tenantAgreementMap;\n\n    function Enlistment(string landlordEmail, string landlordName, string streetName, uint floorNr, uint apartmentNr, uint houseNr, uint postalCode, int32 lat, int32 lng, string detailsJson) public\n    {\n        enlistment = EnlistmentStruct(landlordEmail, landlordName, streetName, floorNr, apartmentNr, houseNr, postalCode, lat, lng, detailsJson);\n        owner = msg.sender;\n    }\n\n    function getOwner() view public ownerOnly() returns (address) {\n        return owner;\n    }\n\n    function getLandlordEmailKeccak256() view public returns (bytes32) {\n        return keccak256(enlistment.landlordEmail);\n    }\n\n    function getEnlistment() view public ownerOnly() returns (string, string, string, uint[4], int32[2], string, bool) {\n        return (enlistment.landlordEmail, enlistment.landlordName, enlistment.streetName, [enlistment.floorNr, enlistment.apartmentNr, enlistment.houseNr, enlistment.postalCode], [enlistment.lat, enlistment.lng], enlistment.detailsJson, locked);\n    }\n\n    function getCoords() view public returns(int32, int32) {\n        return (enlistment.lat, enlistment.lng);\n    }\n\n    function hasBid(string tenantEmail) view public returns(bool) {\n        return tenantOfferMap[tenantEmail].initialized == true;\n    }\n\n    enum OfferStatus {\n        PENDING,\n        REJECTED,\n        CANCELLED,\n        ACCEPTED\n    }\n\n    enum AgreementStatus {\n        UNINITIALIZED, // internal\n        PENDING,\n        REJECTED,\n        CONFIRMED,\n        CANCELLED,\n        LANDLORD_SIGNED,\n        TENANT_SIGNED,\n        STARTED\n    }\n\n    struct EnlistmentStruct {\n        string landlordEmail;\n        string landlordName;\n        string streetName;\n        uint floorNr;\n        uint apartmentNr;\n        uint houseNr;\n        uint postalCode;\n        int32 lat;\n        int32 lng;\n        string detailsJson;\n    }\n\n    struct Offer {\n        bool initialized;\n        uint amount;\n        string tenantName;\n        string tenantEmail;\n        OfferStatus status;\n    }\n\n    struct AgreementDraft {\n        string landlordName; // for simplicity, there is only one landlord\n        string tenantName; // for simplicity, there is only one tenant and occupants are omitted\n        string tenantEmail;\n        uint amount;\n        uint leaseStart;\n        uint handoverDate;\n        uint leasePeriod;\n        string otherTerms;\n        string hash;\n        string landlordSignature;\n        string tenantSignature;\n        AgreementStatus status;\n    }\n\n    modifier noActiveOffer(string tenantEmail) {\n        require(tenantOfferMap[tenantEmail].initialized == false || tenantOfferMap[tenantEmail].status == OfferStatus.REJECTED || tenantOfferMap[tenantEmail].status == OfferStatus.CANCELLED);\n        _;\n    }\n\n    modifier offerExists(string tenantEmail) {\n        require(tenantOfferMap[tenantEmail].initialized == true);\n        _;\n    }\n\n    modifier offerInStatus(OfferStatus status, string tenantEmail) {\n        require(tenantOfferMap[tenantEmail].status == status);\n        _;\n    }\n\n    modifier offerCancellable(string tenantEmail) {\n        var offerStatus = tenantOfferMap[tenantEmail].status;\n        require(offerStatus == OfferStatus.PENDING || offerStatus == OfferStatus.ACCEPTED);\n        var agreementStatus = tenantAgreementMap[tenantEmail].status;\n        require(!(agreementStatus == AgreementStatus.CANCELLED || agreementStatus == AgreementStatus.TENANT_SIGNED || agreementStatus == AgreementStatus.STARTED));\n        _;\n    }\n\n    modifier agreementCanBeSubmitted(string tenantEmail) {\n        require(tenantAgreementMap[tenantEmail].status == AgreementStatus.UNINITIALIZED ||\n        tenantAgreementMap[tenantEmail].status == AgreementStatus.REJECTED || tenantAgreementMap[tenantEmail].status == AgreementStatus.CANCELLED);\n        _;\n    }\n\n    modifier agreementInStatus(AgreementStatus status, string tenantEmail) {\n        require(tenantAgreementMap[tenantEmail].status == status);\n        _;\n    }\n\n    modifier agreementCancellable(string tenantEmail) {\n        var agreementStatus = tenantAgreementMap[tenantEmail].status;\n        require(!(agreementStatus == AgreementStatus.CANCELLED || agreementStatus == AgreementStatus.TENANT_SIGNED || agreementStatus == AgreementStatus.STARTED || agreementStatus == AgreementStatus.REJECTED));\n        _;\n    }\n\n    modifier notLocked() {\n        require(!locked);\n        _;\n    }\n\n    modifier ownerOnly() {\n        require(msg.sender == owner);\n        _;\n    }\n\n    // what if the offer is in status PENDING and the tenant wants to send a new one?\n    function sendOffer(uint amount, string tenantName, string tenantEmail) payable public\n        ownerOnly()\n        noActiveOffer(tenantEmail)\n        notLocked()\n    {\n        var offer = Offer({\n            initialized: true,\n            amount: amount,\n            tenantName: tenantName,\n            tenantEmail: tenantEmail,\n            status: OfferStatus.PENDING\n        });\n        tenantOfferMap[tenantEmail] = offer;\n        offerAuthors.push(tenantEmail); \n    }\n\n    function cancelOffer(string tenantEmail) payable public\n        ownerOnly()\n        offerExists(tenantEmail)\n        offerCancellable(tenantEmail)\n    {\n        tenantOfferMap[tenantEmail].status = OfferStatus.CANCELLED;\n        if (tenantAgreementMap[tenantEmail].status != AgreementStatus.UNINITIALIZED) {\n            tenantAgreementMap[tenantEmail].status = AgreementStatus.CANCELLED;\n        }\n        locked = false; \n    }\n\n    function getOffer(string tenantEmail) view public ownerOnly() returns (bool, uint, string, string, OfferStatus) {\n        var o = tenantOfferMap[tenantEmail];\n        return (o.initialized, o.amount, o.tenantName, o.tenantEmail, o.status);\n    }\n\n    function getOfferByIndex(uint idx) view public ownerOnly() returns (bool, uint, string, string, OfferStatus) {\n        var o = tenantOfferMap[offerAuthors[idx]];\n        return (o.initialized, o.amount, o.tenantName, o.tenantEmail, o.status);\n    }\n\n    function reviewOffer(bool result, string tenantEmail) payable public\n        ownerOnly()\n        offerExists(tenantEmail)\n        offerInStatus(OfferStatus.PENDING, tenantEmail)\n    {\n        tenantOfferMap[tenantEmail].status = result ? OfferStatus.ACCEPTED : OfferStatus.REJECTED;\n    }\n\n    function submitDraft(string tenantEmail, string landlordName, string agreementTenantName, string agreementTenantEmail,\n        uint leaseStart, uint handoverDate, uint leasePeriod, string otherTerms, string hash) payable public\n        ownerOnly()\n        offerExists(tenantEmail)\n        offerInStatus(OfferStatus.ACCEPTED, tenantEmail)\n        agreementCanBeSubmitted(tenantEmail)\n    {\n        var amount = tenantOfferMap[tenantEmail].amount;\n        tenantAgreementMap[tenantEmail] = AgreementDraft(landlordName,\n            agreementTenantName, agreementTenantEmail,\n            amount, leaseStart,\n            handoverDate, leasePeriod,\n            otherTerms, hash, \"\", \"\", AgreementStatus.PENDING);\n    }\n\n    // getAgreement functions:\n    // can only return tuple of max 7 elements, otherwise throws \"Stack too geep\"\n    // solution: splitted into multiple functions\n\n    function getAgreementParticipants(string tenantEmail) view public ownerOnly() returns (string, string, string) {\n        var a = tenantAgreementMap[tenantEmail];\n        return (a.landlordName, a.tenantName, a.tenantEmail);\n    }\n\n    function getAgreementDetails(string tenantEmail) view public ownerOnly() returns (uint, uint, uint, uint, string) {\n        var a = tenantAgreementMap[tenantEmail];\n        return (a.amount, a.leaseStart, a.handoverDate, a.leasePeriod, a.otherTerms);\n    }\n\n    function getAgreementHashes(string tenantEmail) view public ownerOnly() returns (string, string, string) {\n        var a = tenantAgreementMap[tenantEmail];\n        return (a.hash, a.landlordSignature, a.tenantSignature);\n    }\n\n    function getAgreementStatus(string tenantEmail) view public ownerOnly() returns (AgreementStatus) {\n        var a = tenantAgreementMap[tenantEmail];\n        return (a.status);\n    }\n\n    function reviewAgreement(string tenantEmail, bool result) payable public\n        ownerOnly()\n        offerExists(tenantEmail)\n        offerInStatus(OfferStatus.ACCEPTED, tenantEmail)\n        agreementInStatus(AgreementStatus.PENDING, tenantEmail)\n    {\n        tenantAgreementMap[tenantEmail].status = result ? AgreementStatus.CONFIRMED : AgreementStatus.REJECTED;\n    }\n\n    function landlordSignAgreement(string tenantEmail, string landlordSignature) payable public\n        ownerOnly()\n        notLocked()\n        offerExists(tenantEmail)\n        offerInStatus(OfferStatus.ACCEPTED, tenantEmail)\n        agreementInStatus(AgreementStatus.CONFIRMED, tenantEmail)\n    {\n        tenantAgreementMap[tenantEmail].landlordSignature = landlordSignature;\n        tenantAgreementMap[tenantEmail].status = AgreementStatus.LANDLORD_SIGNED;\n        locked = true;\n    }\n\n    function tenantSignAgreement(string tenantEmail, string tenantSignature) payable public\n        ownerOnly()\n        offerExists(tenantEmail)\n        offerInStatus(OfferStatus.ACCEPTED, tenantEmail)\n        agreementInStatus(AgreementStatus.LANDLORD_SIGNED, tenantEmail)\n    {\n        tenantAgreementMap[tenantEmail].tenantSignature = tenantSignature;\n        tenantAgreementMap[tenantEmail].status = AgreementStatus.TENANT_SIGNED;\n    }\n\n    function cancelAgreement(string tenantEmail) payable public\n        ownerOnly()\n        agreementCancellable(tenantEmail)\n    {\n        tenantAgreementMap[tenantEmail].status = AgreementStatus.CANCELLED;\n        locked = false;\n    }\n\n    function receiveFirstMonthRent(string tenantEmail) payable public\n        ownerOnly()\n        offerExists(tenantEmail)\n        offerInStatus(OfferStatus.ACCEPTED, tenantEmail)\n        agreementInStatus(AgreementStatus.TENANT_SIGNED, tenantEmail)\n    {\n        tenantAgreementMap[tenantEmail].status = AgreementStatus.STARTED;\n    }\n}\n",
  "sourcePath": "/Users/Indrek/Ulikool/Thesis/blockchain-real-estate-baseline/ethereum/contracts/Enlistment.sol",
  "compiler": {
    "name": "solc",
    "version": "0.4.19+commit.c4cbbb05.Emscripten.clang"
  },
  "schemaVersion": "1.0.1",
  "updatedAt": "2018-05-02T22:46:13.188Z"
}