{
  "contractName": "EnlistmentRegistry",
  "abi": [
    {
      "constant": true,
      "inputs": [
        {
          "name": "lat",
          "type": "int256"
        },
        {
          "name": "lng",
          "type": "int256"
        },
        {
          "name": "searchRadius",
          "type": "uint256"
        }
      ],
      "name": "geosearch",
      "outputs": [
        {
          "name": "",
          "type": "address[]"
        }
      ],
      "payable": false,
      "stateMutability": "view",
      "type": "function"
    },
    {
      "constant": true,
      "inputs": [],
      "name": "getOwner",
      "outputs": [
        {
          "name": "",
          "type": "address"
        }
      ],
      "payable": false,
      "stateMutability": "view",
      "type": "function"
    },
    {
      "constant": true,
      "inputs": [],
      "name": "getEnlistments",
      "outputs": [
        {
          "name": "",
          "type": "address[]"
        }
      ],
      "payable": false,
      "stateMutability": "view",
      "type": "function"
    },
    {
      "constant": false,
      "inputs": [
        {
          "name": "enlistmentAddress",
          "type": "address"
        }
      ],
      "name": "addEnlistment",
      "outputs": [],
      "payable": true,
      "stateMutability": "payable",
      "type": "function"
    },
    {
      "constant": true,
      "inputs": [],
      "name": "getEnlistmentsForBidderFiltering",
      "outputs": [
        {
          "name": "",
          "type": "address[]"
        },
        {
          "name": "",
          "type": "uint256[]"
        }
      ],
      "payable": false,
      "stateMutability": "view",
      "type": "function"
    },
    {
      "inputs": [],
      "payable": false,
      "stateMutability": "nonpayable",
      "type": "constructor"
    }
  ],
  "bytecode": "0x6060604052341561000f57600080fd5b33600160006101000a81548173ffffffffffffffffffffffffffffffffffffffff021916908373ffffffffffffffffffffffffffffffffffffffff1602179055506109008061005f6000396000f30060606040526004361061006d576000357c0100000000000000000000000000000000000000000000000000000000900463ffffffff16806382ab4e6e14610072578063893d20e8146100fc578063a88d8c2614610151578063bdb7f581146101bb578063e0797215146101e9575b600080fd5b341561007d57600080fd5b6100a5600480803590602001909190803590602001909190803590602001909190505061029b565b6040518080602001828103825283818151815260200191508051906020019060200280838360005b838110156100e85780820151818401526020810190506100cd565b505050509050019250505060405180910390f35b341561010757600080fd5b61010f610505565b604051808273ffffffffffffffffffffffffffffffffffffffff1673ffffffffffffffffffffffffffffffffffffffff16815260200191505060405180910390f35b341561015c57600080fd5b61016461052f565b6040518080602001828103825283818151815260200191508051906020019060200280838360005b838110156101a757808201518184015260208101905061018c565b505050509050019250505060405180910390f35b6101e7600480803573ffffffffffffffffffffffffffffffffffffffff1690602001909190505061061f565b005b34156101f457600080fd5b6101fc610685565b604051808060200180602001838103835285818151815260200191508051906020019060200280838360005b83811015610243578082015181840152602081019050610228565b50505050905001838103825284818151815260200191508051906020019060200280838360005b8381101561028557808201518184015260208101905061026a565b5050505090500194505050505060405180910390f35b6102a361085b565b6102ab61085b565b600080600080805490506040518059106102c25750595b90808252806020026020018201604052509350600092505b6000805490508310156104f7576000838154811015156102f657fe5b906000526020600020900160009054906101000a900473ffffffffffffffffffffffffffffffffffffffff1673ffffffffffffffffffffffffffffffffffffffff166303a935986000604051604001526040518163ffffffff167c01000000000000000000000000000000000000000000000000000000000281526004016040805180830381600087803b151561038c57600080fd5b6102c65a03f1151561039d57600080fd5b50505060405180519060200180519050915091508573__GeoDistance___________________________63019898058a8a86866000604051602001526040518563ffffffff167c0100000000000000000000000000000000000000000000000000000000028152600401808581526020018481526020018360030b81526020018260030b815260200194505050505060206040518083038186803b151561044357600080fd5b6102c65a03f4151561045457600080fd5b5050506040518051905010156104ea5760008381548110151561047357fe5b906000526020600020900160009054906101000a900473ffffffffffffffffffffffffffffffffffffffff1684848151811015156104ad57fe5b9060200190602002019073ffffffffffffffffffffffffffffffffffffffff16908173ffffffffffffffffffffffffffffffffffffffff16815250505b82806001019350506102da565b839450505050509392505050565b6000600160009054906101000a900473ffffffffffffffffffffffffffffffffffffffff16905090565b61053761085b565b600160009054906101000a900473ffffffffffffffffffffffffffffffffffffffff1673ffffffffffffffffffffffffffffffffffffffff163373ffffffffffffffffffffffffffffffffffffffff1614151561059357600080fd5b600080548060200260200160405190810160405280929190818152602001828054801561061557602002820191906000526020600020905b8160009054906101000a900473ffffffffffffffffffffffffffffffffffffffff1673ffffffffffffffffffffffffffffffffffffffff16815260200190600101908083116105cb575b5050505050905090565b60008054806001018281610633919061086f565b9160005260206000209001600083909190916101000a81548173ffffffffffffffffffffffffffffffffffffffff021916908373ffffffffffffffffffffffffffffffffffffffff1602179055505050565b61068d61085b565b61069561089b565b61069d61089b565b6000806000805490506040518059106106b35750595b90808252806020026020018201604052509250600091505b6000805490508210156107c5576000828154811015156106e757fe5b906000526020600020900160009054906101000a900473ffffffffffffffffffffffffffffffffffffffff1690508073ffffffffffffffffffffffffffffffffffffffff16639450a7dc6000604051602001526040518163ffffffff167c0100000000000000000000000000000000000000000000000000000000028152600401602060405180830381600087803b151561078157600080fd5b6102c65a03f1151561079257600080fd5b5050506040518051905083838151811015156107aa57fe5b906020019060200201818152505081806001019250506106cb565b6000838180548060200260200160405190810160405280929190818152602001828054801561084957602002820191906000526020600020905b8160009054906101000a900473ffffffffffffffffffffffffffffffffffffffff1673ffffffffffffffffffffffffffffffffffffffff16815260200190600101908083116107ff575b50505050509150945094505050509091565b602060405190810160405280600081525090565b8154818355818115116108965781836000526020600020918201910161089591906108af565b5b505050565b602060405190810160405280600081525090565b6108d191905b808211156108cd5760008160009055506001016108b5565b5090565b905600a165627a7a723058202b53b9408af82bf03fd0179e5ffa09606fc424a770792a371e4f522c662469b60029",
  "source": "pragma solidity ^0.4.18;\n\ninterface Enlistment {\n    function getCoords() view external returns(int32, int32);\n    function getOfferAuthorsLength() view external returns (uint);\n}\n\nimport \"./GeoDistance.sol\";\n\ncontract EnlistmentRegistry {\n\n    address[] enlistments;\n    address owner;\n\n    function EnlistmentRegistry() public {\n        owner = msg.sender;\n    }\n\n    function addEnlistment(address enlistmentAddress) payable public {\n        enlistments.push(enlistmentAddress);\n    }\n\n    /* discontinued: bitmasking technique for filter result array indices does not work for registries bigger than 256+1 */\n    /* function bitmask_geosearch(int lat, int lng, uint searchRadius) view public returns (uint result, uint startsWithNthBit) {\n        result = 0;\n        startsWithNthBit = 0;\n        for (uint i = 0; i < enlistments.length; i++) {\n            var (enlistmentLat, enlistmentLng) = Enlistment(enlistments[i]).getCoords();\n            if (distance(lat, lng, enlistmentLat, enlistmentLng) < searchRadius) {\n                if (result == 0) {\n                    startsWithNthBit = i;\n                    result = 1;\n                } else {\n                    result = result * 2 ** i;\n                }\n            }\n        }\n        return (result, startsWithNthBit);\n    } */\n\n    function geosearch(int lat, int lng, uint searchRadius) view public returns (address[]) {\n        address[] memory result = new address[](enlistments.length);\n        for (uint i = 0; i < enlistments.length; i++) {\n            var (enlistmentLat, enlistmentLng) = Enlistment(enlistments[i]).getCoords();\n            if (GeoDistance.distance(lat, lng, enlistmentLat, enlistmentLng) < searchRadius) {\n                result[i] = enlistments[i];\n            }\n        }\n        return result;\n    }\n\n    function getEnlistmentsForBidderFiltering() view public returns(address[], uint[]) {\n        uint[] memory offerCounts = new uint[](enlistments.length);\n        for (uint i = 0; i < enlistments.length; i++) {\n            Enlistment enlistmentContractInstance = Enlistment(enlistments[i]);\n            offerCounts[i] = enlistmentContractInstance.getOfferAuthorsLength();\n        }\n        return (enlistments, offerCounts);\n    }\n\n    function getEnlistments() view public ownerOnly() returns(address[]) {\n        return enlistments;\n    }\n\n    function getOwner() view public returns (address) {\n        return owner;\n    }\n\n    modifier ownerOnly() {\n        require(msg.sender == owner);\n        _;\n    }\n\n}\n",
  "sourcePath": "/Users/Indrek/Ulikool/Thesis/blockchain-real-estate-baseline/ethereum/contracts/EnlistmentRegistry.sol",
  "compiler": {
    "name": "solc",
    "version": "0.4.19+commit.c4cbbb05.Emscripten.clang"
  },
  "schemaVersion": "1.0.1",
  "updatedAt": "2018-04-30T23:21:19.534Z"
}