{
  "contractName": "EnlistmentRegistry",
  "abi": [
    {
      "constant": true,
      "inputs": [
        {
          "name": "tenantEmail",
          "type": "string"
        }
      ],
      "name": "getEnlistmentsByBidder",
      "outputs": [
        {
          "name": "",
          "type": "address[]"
        }
      ],
      "payable": false,
      "stateMutability": "view",
      "type": "function"
    },
    {
      "constant": true,
      "inputs": [
        {
          "name": "lat",
          "type": "int256"
        },
        {
          "name": "lng",
          "type": "int256"
        },
        {
          "name": "searchRadius",
          "type": "uint256"
        }
      ],
      "name": "geosearch",
      "outputs": [
        {
          "name": "",
          "type": "address[]"
        }
      ],
      "payable": false,
      "stateMutability": "view",
      "type": "function"
    },
    {
      "constant": true,
      "inputs": [],
      "name": "getOwner",
      "outputs": [
        {
          "name": "",
          "type": "address"
        }
      ],
      "payable": false,
      "stateMutability": "view",
      "type": "function"
    },
    {
      "constant": true,
      "inputs": [],
      "name": "getEnlistments",
      "outputs": [
        {
          "name": "",
          "type": "address[]"
        }
      ],
      "payable": false,
      "stateMutability": "view",
      "type": "function"
    },
    {
      "constant": false,
      "inputs": [
        {
          "name": "enlistmentAddress",
          "type": "address"
        }
      ],
      "name": "addEnlistment",
      "outputs": [],
      "payable": true,
      "stateMutability": "payable",
      "type": "function"
    },
    {
      "inputs": [],
      "payable": false,
      "stateMutability": "nonpayable",
      "type": "constructor"
    }
  ],
  "bytecode": "0x6060604052341561000f57600080fd5b33600160006101000a81548173ffffffffffffffffffffffffffffffffffffffff021916908373ffffffffffffffffffffffffffffffffffffffff1602179055506109028061005f6000396000f30060606040526004361061006c576000357c0100000000000000000000000000000000000000000000000000000000900463ffffffff168062225efd1461007157806382ab4e6e14610123578063893d20e8146101ad578063a88d8c2614610202578063bdb7f5811461026c575b600080fd5b341561007c57600080fd5b6100cc600480803590602001908201803590602001908080601f0160208091040260200160405190810160405280939291908181526020018383808284378201915050505050509190505061029a565b6040518080602001828103825283818151815260200191508051906020019060200280838360005b8381101561010f5780820151818401526020810190506100f4565b505050509050019250505060405180910390f35b341561012e57600080fd5b6101566004808035906020019091908035906020019091908035906020019091905050610487565b6040518080602001828103825283818151815260200191508051906020019060200280838360005b8381101561019957808201518184015260208101905061017e565b505050509050019250505060405180910390f35b34156101b857600080fd5b6101c06106f1565b604051808273ffffffffffffffffffffffffffffffffffffffff1673ffffffffffffffffffffffffffffffffffffffff16815260200191505060405180910390f35b341561020d57600080fd5b61021561071b565b6040518080602001828103825283818151815260200191508051906020019060200280838360005b8381101561025857808201518184015260208101905061023d565b505050509050019250505060405180910390f35b610298600480803573ffffffffffffffffffffffffffffffffffffffff1690602001909190505061080b565b005b6102a2610871565b6102aa610871565b600080600080805490506040518059106102c15750595b90808252806020026020018201604052509350600092505b60008054905083101561047b576000838154811015156102f557fe5b906000526020600020900160009054906101000a900473ffffffffffffffffffffffffffffffffffffffff1691508190508073ffffffffffffffffffffffffffffffffffffffff1663cdb1ca6a876000604051602001526040518263ffffffff167c01000000000000000000000000000000000000000000000000000000000281526004018080602001828103825283818151815260200191508051906020019080838360005b838110156103b757808201518184015260208101905061039c565b50505050905090810190601f1680156103e45780820380516001836020036101000a031916815260200191505b5092505050602060405180830381600087803b151561040257600080fd5b6102c65a03f1151561041357600080fd5b505050604051805190501561046e5781848481518110151561043157fe5b9060200190602002019073ffffffffffffffffffffffffffffffffffffffff16908173ffffffffffffffffffffffffffffffffffffffff16815250505b82806001019350506102d9565b83945050505050919050565b61048f610871565b610497610871565b600080600080805490506040518059106104ae5750595b90808252806020026020018201604052509350600092505b6000805490508310156106e3576000838154811015156104e257fe5b906000526020600020900160009054906101000a900473ffffffffffffffffffffffffffffffffffffffff1673ffffffffffffffffffffffffffffffffffffffff166303a935986000604051604001526040518163ffffffff167c01000000000000000000000000000000000000000000000000000000000281526004016040805180830381600087803b151561057857600080fd5b6102c65a03f1151561058957600080fd5b50505060405180519060200180519050915091508573__GeoDistance___________________________63019898058a8a86866000604051602001526040518563ffffffff167c0100000000000000000000000000000000000000000000000000000000028152600401808581526020018481526020018360030b81526020018260030b815260200194505050505060206040518083038186803b151561062f57600080fd5b6102c65a03f4151561064057600080fd5b5050506040518051905010156106d65760008381548110151561065f57fe5b906000526020600020900160009054906101000a900473ffffffffffffffffffffffffffffffffffffffff16848481518110151561069957fe5b9060200190602002019073ffffffffffffffffffffffffffffffffffffffff16908173ffffffffffffffffffffffffffffffffffffffff16815250505b82806001019350506104c6565b839450505050509392505050565b6000600160009054906101000a900473ffffffffffffffffffffffffffffffffffffffff16905090565b610723610871565b600160009054906101000a900473ffffffffffffffffffffffffffffffffffffffff1673ffffffffffffffffffffffffffffffffffffffff163373ffffffffffffffffffffffffffffffffffffffff1614151561077f57600080fd5b600080548060200260200160405190810160405280929190818152602001828054801561080157602002820191906000526020600020905b8160009054906101000a900473ffffffffffffffffffffffffffffffffffffffff1673ffffffffffffffffffffffffffffffffffffffff16815260200190600101908083116107b7575b5050505050905090565b6000805480600101828161081f9190610885565b9160005260206000209001600083909190916101000a81548173ffffffffffffffffffffffffffffffffffffffff021916908373ffffffffffffffffffffffffffffffffffffffff1602179055505050565b602060405190810160405280600081525090565b8154818355818115116108ac578183600052602060002091820191016108ab91906108b1565b5b505050565b6108d391905b808211156108cf5760008160009055506001016108b7565b5090565b905600a165627a7a7230582086b964ab62e230e9894c2b0b10bae956ce0c4064c7c6084984962382316a30000029",
  "source": "pragma solidity ^0.4.18;\n\ninterface Enlistment {\n    function getCoords() view external returns(int32, int32);\n    function hasBid(string tenantEmail) view external returns (bool);\n}\n\nimport \"./GeoDistance.sol\";\n\ncontract EnlistmentRegistry {\n\n    address[] enlistments;\n    address owner;\n\n    function EnlistmentRegistry() public {\n        owner = msg.sender;\n    }\n\n    function addEnlistment(address enlistmentAddress) payable public {\n        enlistments.push(enlistmentAddress);\n    }\n\n    /* discontinued: bitmasking technique for filter result array indices does not work for registries bigger than 256+1 */\n    /* function bitmask_geosearch(int lat, int lng, uint searchRadius) view public returns (uint result, uint startsWithNthBit) {\n        result = 0;\n        startsWithNthBit = 0;\n        for (uint i = 0; i < enlistments.length; i++) {\n            var (enlistmentLat, enlistmentLng) = Enlistment(enlistments[i]).getCoords();\n            if (distance(lat, lng, enlistmentLat, enlistmentLng) < searchRadius) {\n                if (result == 0) {\n                    startsWithNthBit = i;\n                    result = 1;\n                } else {\n                    result = result * 2 ** i;\n                }\n            }\n        }\n        return (result, startsWithNthBit);\n    } */\n\n    function geosearch(int lat, int lng, uint searchRadius) view public returns (address[]) {\n        address[] memory result = new address[](enlistments.length);\n        for (uint i = 0; i < enlistments.length; i++) {\n            var (enlistmentLat, enlistmentLng) = Enlistment(enlistments[i]).getCoords();\n            if (GeoDistance.distance(lat, lng, enlistmentLat, enlistmentLng) < searchRadius) {\n                result[i] = enlistments[i];\n            }\n        }\n        return result;\n    }\n\n    function getEnlistmentsByBidder(string tenantEmail) view public returns(address[]) {\n        address[] memory result = new address[](enlistments.length);\n        for (uint i = 0; i < enlistments.length; i++) {\n            var en = enlistments[i];\n            Enlistment enlistmentContractInstance = Enlistment(en);\n            if (enlistmentContractInstance.hasBid(tenantEmail)) {\n                result[i] = en;\n            }\n        }\n        return result;\n    }\n\n    function getEnlistments() view public ownerOnly() returns(address[]) {\n        return enlistments;\n    }\n\n    function getOwner() view public returns (address) {\n        return owner;\n    }\n\n    modifier ownerOnly() {\n        require(msg.sender == owner);\n        _;\n    }\n\n}\n",
  "sourcePath": "/Users/Indrek/Ulikool/Thesis/blockchain-real-estate-baseline/ethereum/contracts/EnlistmentRegistry.sol",
  "compiler": {
    "name": "solc",
    "version": "0.4.19+commit.c4cbbb05.Emscripten.clang"
  },
  "schemaVersion": "1.0.1",
  "updatedAt": "2018-05-01T00:03:45.185Z"
}