{
  "contractName": "GeoDistance",
  "abi": [
    {
      "constant": true,
      "inputs": [
        {
          "name": "lat1",
          "type": "int256"
        },
        {
          "name": "lng1",
          "type": "int256"
        },
        {
          "name": "lat2",
          "type": "int256"
        },
        {
          "name": "lng2",
          "type": "int256"
        }
      ],
      "name": "distance",
      "outputs": [
        {
          "name": "",
          "type": "uint256"
        }
      ],
      "payable": false,
      "stateMutability": "pure",
      "type": "function"
    }
  ],
  "bytecode": "0x6060604052341561000f57600080fd5b6102318061001e6000396000f300606060405260043610610041576000357c0100000000000000000000000000000000000000000000000000000000900463ffffffff1680630198980514610046575b600080fd5b610077600480803590602001909190803590602001909190803590602001909190803590602001909190505061008d565b6040518082815260200191505060405180910390f35b60008060008487039150617fff60010b73__Trigonometry__________________________63564a6b946100c088610170565b6000604051602001526040518263ffffffff167c0100000000000000000000000000000000000000000000000000000000028152600401808261ffff1661ffff16815260200191505060206040518083038186803b151561012057600080fd5b6102c65a03f4151561013157600080fd5b505050604051805190508588030281151561014857fe5b05905061015a81820283840201610194565b6201b2d762ffffff160292505050949350505050565b60006315752a0060030b61400061ffff16830281151561018c57fe5b059050919050565b60008060008314156101a957600091506101ff565b6003831115156101bc57600191506101ff565b6002600184018115156101cb57fe5b0490508291505b818110156101fe5780915060028182858115156101eb57fe5b04018115156101f657fe5b0490506101d2565b5b509190505600a165627a7a723058202791b817477bb246faf987ec99b0069beb1cfc5374c0f716261569810b143e7a0029",
  "source": "/**\n * Library to calculate distance between geographic latitude and longitude points using equi­rectangular projec­tion of the Earth\n *\n * The library exposes one public function which inputs latitude and longitude value with fixed recision of 6 decimal points, represented as integers. I.e. latitude between -90e6 and 90e6 and longitude between 180e6 and -180e6.\n *\n * As the performance is important on the blockchain, the library implements Pythagoras' theorem with an equi­rectangular projec­tion. In contrast to Haversine or the Law of Cosines method, the library function is light on trigonometric calculations. As a trade-off, the method may be introduce inaccuracies due to the distortions created by the simple projection.\n *\n * Square root function based on Babylonian method. Trigonometry library based on a sine lookup table.\n *\n * @author Indrek Värva\n */\n\npragma solidity ^0.4.18;\n\nimport \"./Trigonometry.sol\";\n\nlibrary GeoDistance {\n\n    uint16 constant ANGLES_IN_CYCLE = 16384; // number of angles in a circle to be used in the internal cosine calculation\n    int32 constant FULL_CYCLE_DEGREES = 360000000; // compensates 6 decimal points for coordinates\n    int16 constant AMPLITUDE = 32767; // projected amplitude of the internal cosine function\n    uint24 constant EQUATOR_LNG_DEG_LEN = 111319; // distance of 1 degree of longitude on the equator in metres\n\n\n    // Projects coordinates to integer angles\n    function degreesToIntAngle(int degrees) pure internal returns(uint16) {\n        return uint16(degrees * ANGLES_IN_CYCLE / FULL_CYCLE_DEGREES);\n    }\n\n    /*\n     * @params 6 decimal point bearings of 2 points projected to integers\n     * @return distance between bearings in micrometres\n    */\n    function distance(int lat1, int lng1, int lat2, int lng2) pure public returns(uint) {\n        int dLat = lat1 - lat2;\n        int adjustedDLng = (lng1 - lng2) * Trigonometry.cos(degreesToIntAngle(lat2)) / AMPLITUDE;\n        return EQUATOR_LNG_DEG_LEN * sqrt(uint(dLat * dLat) + uint(adjustedDLng * adjustedDLng));\n    }\n\n    /*\n    * Implementation by chriseth (https://github.com/chriseth) posted in https://github.com/ethereum/dapp-bin/pull/50.\n    */\n    function sqrt(uint x) pure internal returns (uint y) {\n        if (x == 0) return 0;\n        else if (x <= 3) return 1;\n        uint z = (x + 1) / 2;\n        y = x;\n        while (z < y) {\n            y = z;\n            z = (x / z + z) / 2;\n        }\n    }\n\n}",
  "sourcePath": "/Users/Indrek/Ulikool/Thesis/blockchain-real-estate-baseline/ethereum/contracts/GeoDistance.sol",
  "compiler": {
    "name": "solc",
    "version": "0.4.19+commit.c4cbbb05.Emscripten.clang"
  },
  "schemaVersion": "1.0.1",
  "updatedAt": "2018-05-01T00:03:45.182Z"
}