{
  "contractName": "GeoDistance",
  "abi": [
    {
      "constant": true,
      "inputs": [
        {
          "name": "lat1",
          "type": "int256"
        },
        {
          "name": "lng1",
          "type": "int256"
        },
        {
          "name": "lat2",
          "type": "int256"
        },
        {
          "name": "lng2",
          "type": "int256"
        }
      ],
      "name": "distancePow2",
      "outputs": [
        {
          "name": "",
          "type": "uint256"
        }
      ],
      "payable": false,
      "stateMutability": "pure",
      "type": "function"
    }
  ],
  "bytecode": "0x6060604052341561000f57600080fd5b6101ca8061001e6000396000f300606060405260043610610041576000357c0100000000000000000000000000000000000000000000000000000000900463ffffffff168063c59a45d014610046575b600080fd5b610077600480803590602001909190803590602001909190803590602001909190803590602001909190505061008d565b6040518082815260200191505060405180910390f35b60008060008487039150617fff60010b73__Trigonometry__________________________63564a6b946100ce6002898c018115156100c857fe5b0561017a565b6000604051602001526040518263ffffffff167c0100000000000000000000000000000000000000000000000000000000028152600401808261ffff1661ffff16815260200191505060206040518083038186803b151561012e57600080fd5b6102c65a03f4151561013f57600080fd5b505050604051805190508588030281151561015657fe5b059050808102828302016402e29db09164ffffffffff160292505050949350505050565b60006315752a0060030b61400061ffff16830281151561019657fe5b0590509190505600a165627a7a723058202b6c40f7f55b36e64dd1cebd4b590a9fc0eb780228b2eefc5697acbd28b2b8c90029",
  "source": "/**\n * Library to calculate distance between geographic latitude and longitude points using equi­rectangular projec­tion of the Earth\n *\n * The library exposes one public function which inputs latitude and longitude value with fixed recision of 6 decimal points, represented as integers. I.e. latitude between -90e6 and 90e6 and longitude between 180e6 and -180e6.\n *\n * As the performance is important on the blockchain, the library implements Pythagoras' theorem with an equi­rectangular projec­tion. In contrast to Haversine or the Law of Cosines method, the library function is light on trigonometric calculations. As a trade-off, the method may be introduce inaccuracies due to the distortions created by the simple projection.\n *\n * Square root function based on Babylonian method. Trigonometry library based on a sine lookup table.\n *\n * @author Indrek Värva\n */\n\npragma solidity ^0.4.18;\n\nimport \"./Trigonometry.sol\";\n\nlibrary GeoDistance {\n\n    uint16 constant ANGLES_IN_CYCLE = 16384; // number of angles in a circle to be used in the internal cosine calculation\n    int32 constant FULL_CYCLE_DEGREES = 360000000; // compensates 6 decimal points for coordinates\n    int16 constant AMPLITUDE = 32767; // projected amplitude of the internal cosine function\n\n    /*\n    * Distance of 1 degree of WGS 84 longitude on the Equator in metres\n    * \n    * semi-major axis of the Earth on the Equator = 6378137 metres (http://epsg.io/7030-ellipsoid)\n    * \n    * EQUATOR_LNG_DEG_LEN = circumference of the Earth on the Equator / 360 = semi-major axis * 2 * PI / 360 = 6378137 * 2 * PI / 360 = 111319\n    * take the result to the power of 2 to avoid the necessity to use expensive square root function in the calculation of distance\n    * 111319**2 = 12391919761\n    */\n    uint40 constant EQUATOR_LNG_DEG_LEN_POW_2 = 12391919761; \n\n\n    // Projects coordinates to integer angles\n    function degreesToIntAngle(int degrees) pure internal returns(uint16) {\n        return uint16(degrees * ANGLES_IN_CYCLE / FULL_CYCLE_DEGREES);\n    }\n\n    /*\n     * @params 6 decimal point WSG 84 coordinades of 2 points encoded as integers\n     * @return distance between locations in micrometres\n    */\n    function distancePow2(int lat1, int lng1, int lat2, int lng2) pure public returns(uint) {\n        int dLat = lat1 - lat2;\n        int adjustedDLng = (lng1 - lng2) * Trigonometry.cos(degreesToIntAngle((lat1 + lat2) / 2)) / AMPLITUDE;\n        return EQUATOR_LNG_DEG_LEN_POW_2 * (uint(dLat * dLat) + uint(adjustedDLng * adjustedDLng));\n    }\n\n    /*\n    * Implementation by chriseth (https://github.com/chriseth) posted in https://github.com/ethereum/dapp-bin/pull/50.\n    * Refactored out for optimization purposes.\n    */\n    /* function sqrt(uint x) pure internal returns (uint y) {\n        if (x == 0) return 0;\n        else if (x <= 3) return 1;\n        uint z = (x + 1) / 2;\n        y = x;\n        while (z < y) {\n            y = z;\n            z = (x / z + z) / 2;\n        }\n    } */\n\n}",
  "sourcePath": "/Users/Indrek/Ulikool/Thesis/blockchain-real-estate-baseline/ethereum/contracts/GeoDistance.sol",
  "compiler": {
    "name": "solc",
    "version": "0.4.19+commit.c4cbbb05.Emscripten.clang"
  },
  "schemaVersion": "1.0.1",
  "updatedAt": "2018-05-11T21:41:12.400Z"
}