{
  "contractName": "Trigonometry",
  "abi": [
    {
      "constant": true,
      "inputs": [
        {
          "name": "_angle",
          "type": "uint16"
        }
      ],
      "name": "sin",
      "outputs": [
        {
          "name": "",
          "type": "int256"
        }
      ],
      "payable": false,
      "stateMutability": "pure",
      "type": "function"
    },
    {
      "constant": true,
      "inputs": [
        {
          "name": "_angle",
          "type": "uint16"
        }
      ],
      "name": "cos",
      "outputs": [
        {
          "name": "",
          "type": "int256"
        }
      ],
      "payable": false,
      "stateMutability": "pure",
      "type": "function"
    }
  ],
  "bytecode": "0x6060604052341561000f57600080fd5b6102cc8061001e6000396000f30060606040526004361061004c576000357c0100000000000000000000000000000000000000000000000000000000900463ffffffff168063564a6b9414610051578063f985779c14610081575b600080fd5b61006b600480803561ffff169060200190919050506100b1565b6040518082815260200191505060405180910390f35b61009b600480803561ffff169060200190919050506100f1565b6040518082815260200191505060405180910390f35b60006110006140000361ffff168261ffff1611156100d95781614000611000030391506100e1565b611000820191505b6100ea826100f1565b9050919050565b60008060008060008060008060006101158a61ffff166008806004600c03036101e3565b975061012a8a61ffff16600480600c036101e3565b965060006110008b1661ffff1614955060006120008b1661ffff161415945085151561015a578660016010030396505b61016387610205565b61ffff16935061017560018801610205565b61ffff169250600860020a888585030281151561018e57fe5b04915085156101a15781840190506101a7565b81830390505b84156101d3577fffffffffffffffffffffffffffffffffffffffffffffffffffffffffffffffff810290505b8098505050505050505050919050565b600060018360020a038260020a858115156101fa57fe5b041690509392505050565b600061020f61028c565b600080606060405190810160405280602281526020017d0c8c18f9252830fb3c56471c51335a8262f16a6d70e276417a7c7d897f6181526020017f7fff0000000000000000000000000000000000000000000000000000000000008152509250600260ff1660018601029150818301519050809350505050919050565b6020604051908101604052806000815250905600a165627a7a723058203128958acb4e39460d90cdbe34f4ff426ce8ceb9e5acb2b6f124c111e7b896210029",
  "source": "/**\n * Basic trigonometry functions\n *\n * Solidity library offering the functionality of basic trigonometry functions\n * with both input and output being integer approximated.\n *\n * This is useful since:\n * - At the moment no floating/fixed point math can happen in solidity\n * - Should be (?) cheaper than the actual operations using floating point\n *   if and when they are implemented.\n *\n * The implementation is based off Dave Dribin's trigint C library\n * http://www.dribin.org/dave/trigint/\n * Which in turn is based from a now deleted article which can be found in\n * the internet wayback machine:\n * http://web.archive.org/web/20120301144605/http://www.dattalo.com/technical/software/pic/picsine.html\n *\n * @author Lefteris Karapetsas\n * @license BSD3\n */\n\npragma solidity ^0.4.18;\n\nlibrary Trigonometry {\n\n    // Table index into the trigonometric table\n    uint constant INDEX_WIDTH = 4;\n    // Interpolation between successive entries in the tables\n    uint constant INTERP_WIDTH = 8;\n    uint constant INDEX_OFFSET = 12 - INDEX_WIDTH;\n    uint constant INTERP_OFFSET = INDEX_OFFSET - INTERP_WIDTH;\n    uint16 constant ANGLES_IN_CYCLE = 16384;\n    uint16 constant QUADRANT_HIGH_MASK = 8192;\n    uint16 constant QUADRANT_LOW_MASK = 4096;\n    uint constant SINE_TABLE_SIZE = 16;\n\n    // constant sine lookup table generated by gen_tables.py\n    // We have no other choice but this since constant arrays don't yet exist\n    uint8 constant entry_bytes = 2;\n    bytes constant sin_table = \"\\x00\\x00\\x0c\\x8c\\x18\\xf9\\x25\\x28\\x30\\xfb\\x3c\\x56\\x47\\x1c\\x51\\x33\\x5a\\x82\\x62\\xf1\\x6a\\x6d\\x70\\xe2\\x76\\x41\\x7a\\x7c\\x7d\\x89\\x7f\\x61\\x7f\\xff\";\n\n    /**\n     * Convenience function to apply a mask on an integer to extract a certain\n     * number of bits. Using exponents since solidity still does not support\n     * shifting.\n     *\n     * @param _value The integer whose bits we want to get\n     * @param _width The width of the bits (in bits) we want to extract\n     * @param _offset The offset of the bits (in bits) we want to extract\n     * @return An integer containing _width bits of _value starting at the\n     *         _offset bit\n     */\n    function bits(uint _value, uint _width, uint _offset) pure internal returns (uint) {\n        return (_value / (2 ** _offset)) & (((2 ** _width)) - 1);\n    }\n\n    function sin_table_lookup(uint index) pure internal returns (uint16) {\n        bytes memory table = sin_table;\n        uint offset = (index + 1) * entry_bytes;\n        uint16 trigint_value;\n        assembly {\n            trigint_value := mload(add(table, offset))\n        }\n\n        return trigint_value;\n    }\n\n    /**\n     * Return the sine of an integer approximated angle as a signed 16-bit\n     * integer.\n     *\n     * @param _angle A 14-bit angle. This divides the circle into 16384\n     *               angle units, instead of the standard 360 degrees.\n     * @return The sine result as a number in the range -32767 to 32767.\n     */\n    function sin(uint16 _angle) public pure returns (int) {\n        uint interp = bits(_angle, INTERP_WIDTH, INTERP_OFFSET);\n        uint index = bits(_angle, INDEX_WIDTH, INDEX_OFFSET);\n\n        bool is_odd_quadrant = (_angle & QUADRANT_LOW_MASK) == 0;\n        bool is_negative_quadrant = (_angle & QUADRANT_HIGH_MASK) != 0;\n\n        if (!is_odd_quadrant) {\n            index = SINE_TABLE_SIZE - 1 - index;\n        }\n\n        uint x1 = sin_table_lookup(index);\n        uint x2 = sin_table_lookup(index + 1);\n        uint approximation = ((x2 - x1) * interp) / (2 ** INTERP_WIDTH);\n\n        int sine;\n        if (is_odd_quadrant) {\n            sine = int(x1) + int(approximation);\n        } else {\n            sine = int(x2) - int(approximation);\n        }\n\n        if (is_negative_quadrant) {\n            sine *= -1;\n        }\n\n        return sine;\n    }\n\n    /**\n     * Return the cos of an integer approximated angle.\n     * It functions just like the sin() method but uses the trigonometric\n     * identity sin(x + pi/2) = cos(x) to quickly calculate the cos.\n     */\n    function cos(uint16 _angle) public pure returns (int) {\n        if (_angle > ANGLES_IN_CYCLE - QUADRANT_LOW_MASK) {\n            _angle = QUADRANT_LOW_MASK - ANGLES_IN_CYCLE - _angle;\n        } else {\n            _angle += QUADRANT_LOW_MASK;\n        }\n        return sin(_angle);\n    }\n\n}",
  "sourcePath": "/Users/Indrek/Ulikool/Thesis/blockchain-real-estate-baseline/ethereum/contracts/Trigonometry.sol",
  "compiler": {
    "name": "solc",
    "version": "0.4.19+commit.c4cbbb05.Emscripten.clang"
  },
  "schemaVersion": "1.0.1",
  "updatedAt": "2018-05-08T15:31:55.611Z"
}